{
	"contracts/ProductManagement.sol": {
		"ProductManagement": {
			"abi": [
				{
					"inputs": [
						{
							"internalType": "address",
							"name": "_materialContractAddress",
							"type": "address"
						}
					],
					"stateMutability": "nonpayable",
					"type": "constructor"
				},
				{
					"anonymous": false,
					"inputs": [
						{
							"indexed": true,
							"internalType": "uint256",
							"name": "productId",
							"type": "uint256"
						},
						{
							"indexed": false,
							"internalType": "string",
							"name": "name",
							"type": "string"
						},
						{
							"indexed": false,
							"internalType": "uint256",
							"name": "quantity",
							"type": "uint256"
						},
						{
							"indexed": false,
							"internalType": "uint256",
							"name": "price",
							"type": "uint256"
						},
						{
							"indexed": false,
							"internalType": "uint256",
							"name": "status",
							"type": "uint256"
						}
					],
					"name": "ProductAdded",
					"type": "event"
				},
				{
					"inputs": [
						{
							"internalType": "string",
							"name": "_name",
							"type": "string"
						},
						{
							"internalType": "uint256",
							"name": "_price",
							"type": "uint256"
						},
						{
							"internalType": "uint256",
							"name": "_quantity",
							"type": "uint256"
						},
						{
							"internalType": "uint256",
							"name": "_status",
							"type": "uint256"
						},
						{
							"internalType": "uint256[]",
							"name": "_matIds",
							"type": "uint256[]"
						},
						{
							"internalType": "address[]",
							"name": "_ownerIds",
							"type": "address[]"
						},
						{
							"internalType": "uint256[]",
							"name": "_costs",
							"type": "uint256[]"
						},
						{
							"internalType": "uint256[]",
							"name": "_qts",
							"type": "uint256[]"
						}
					],
					"name": "addProduct",
					"outputs": [
						{
							"internalType": "uint256",
							"name": "",
							"type": "uint256"
						}
					],
					"stateMutability": "payable",
					"type": "function"
				},
				{
					"inputs": [
						{
							"internalType": "uint256",
							"name": "_productId",
							"type": "uint256"
						},
						{
							"internalType": "uint256",
							"name": "_qts",
							"type": "uint256"
						}
					],
					"name": "changeProductQuantity",
					"outputs": [],
					"stateMutability": "nonpayable",
					"type": "function"
				},
				{
					"inputs": [
						{
							"internalType": "uint256",
							"name": "productId",
							"type": "uint256"
						},
						{
							"internalType": "uint256",
							"name": "newStatus",
							"type": "uint256"
						}
					],
					"name": "changeProductStatus",
					"outputs": [],
					"stateMutability": "nonpayable",
					"type": "function"
				},
				{
					"inputs": [
						{
							"internalType": "uint256",
							"name": "_productId",
							"type": "uint256"
						}
					],
					"name": "getProductQuantity",
					"outputs": [
						{
							"internalType": "uint256",
							"name": "",
							"type": "uint256"
						}
					],
					"stateMutability": "view",
					"type": "function"
				},
				{
					"inputs": [],
					"name": "materialContract",
					"outputs": [
						{
							"internalType": "contract MaterialManagement",
							"name": "",
							"type": "address"
						}
					],
					"stateMutability": "view",
					"type": "function"
				},
				{
					"inputs": [],
					"name": "productCount",
					"outputs": [
						{
							"internalType": "uint256",
							"name": "",
							"type": "uint256"
						}
					],
					"stateMutability": "view",
					"type": "function"
				},
				{
					"inputs": [
						{
							"internalType": "uint256",
							"name": "",
							"type": "uint256"
						}
					],
					"name": "products",
					"outputs": [
						{
							"internalType": "string",
							"name": "name",
							"type": "string"
						},
						{
							"internalType": "uint256",
							"name": "price",
							"type": "uint256"
						},
						{
							"internalType": "uint256",
							"name": "quantity",
							"type": "uint256"
						},
						{
							"internalType": "uint256",
							"name": "status",
							"type": "uint256"
						}
					],
					"stateMutability": "view",
					"type": "function"
				}
			],
			"devdoc": {
				"kind": "dev",
				"methods": {},
				"version": 1
			},
			"evm": {
				"assembly": "    /* \"contracts/ProductManagement.sol\":96:1920  contract ProductManagement {... */\n  mstore(0x40, 0x80)\n    /* \"contracts/ProductManagement.sol\":646:774  constructor(address _materialContractAddress) {... */\n  callvalue\n  dup1\n  iszero\n  tag_1\n  jumpi\n  0x00\n  dup1\n  revert\ntag_1:\n  pop\n  mload(0x40)\n  sub(codesize, bytecodeSize)\n  dup1\n  bytecodeSize\n  dup4\n  codecopy\n  dup2\n  dup2\n  add\n  0x40\n  mstore\n  dup2\n  add\n  swap1\n  tag_2\n  swap2\n  swap1\n  tag_3\n  jump\t// in\ntag_2:\n    /* \"contracts/ProductManagement.sol\":741:765  _materialContractAddress */\n  dup1\n    /* \"contracts/ProductManagement.sol\":703:719  materialContract */\n  0x02\n  0x00\n    /* \"contracts/ProductManagement.sol\":703:766  materialContract = MaterialManagement(_materialContractAddress) */\n  0x0100\n  exp\n  dup2\n  sload\n  dup2\n  0xffffffffffffffffffffffffffffffffffffffff\n  mul\n  not\n  and\n  swap1\n  dup4\n  0xffffffffffffffffffffffffffffffffffffffff\n  and\n  mul\n  or\n  swap1\n  sstore\n  pop\n    /* \"contracts/ProductManagement.sol\":646:774  constructor(address _materialContractAddress) {... */\n  pop\n    /* \"contracts/ProductManagement.sol\":96:1920  contract ProductManagement {... */\n  jump(tag_6)\n    /* \"#utility.yul\":88:205   */\ntag_8:\n    /* \"#utility.yul\":197:198   */\n  0x00\n    /* \"#utility.yul\":194:195   */\n  dup1\n    /* \"#utility.yul\":187:199   */\n  revert\n    /* \"#utility.yul\":334:460   */\ntag_10:\n    /* \"#utility.yul\":371:378   */\n  0x00\n    /* \"#utility.yul\":411:453   */\n  0xffffffffffffffffffffffffffffffffffffffff\n    /* \"#utility.yul\":404:409   */\n  dup3\n    /* \"#utility.yul\":400:454   */\n  and\n    /* \"#utility.yul\":389:454   */\n  swap1\n  pop\n    /* \"#utility.yul\":334:460   */\n  swap2\n  swap1\n  pop\n  jump\t// out\n    /* \"#utility.yul\":466:562   */\ntag_11:\n    /* \"#utility.yul\":503:510   */\n  0x00\n    /* \"#utility.yul\":532:556   */\n  tag_20\n    /* \"#utility.yul\":550:555   */\n  dup3\n    /* \"#utility.yul\":532:556   */\n  tag_10\n  jump\t// in\ntag_20:\n    /* \"#utility.yul\":521:556   */\n  swap1\n  pop\n    /* \"#utility.yul\":466:562   */\n  swap2\n  swap1\n  pop\n  jump\t// out\n    /* \"#utility.yul\":568:690   */\ntag_12:\n    /* \"#utility.yul\":641:665   */\n  tag_22\n    /* \"#utility.yul\":659:664   */\n  dup2\n    /* \"#utility.yul\":641:665   */\n  tag_11\n  jump\t// in\ntag_22:\n    /* \"#utility.yul\":634:639   */\n  dup2\n    /* \"#utility.yul\":631:666   */\n  eq\n    /* \"#utility.yul\":621:684   */\n  tag_23\n  jumpi\n    /* \"#utility.yul\":680:681   */\n  0x00\n    /* \"#utility.yul\":677:678   */\n  dup1\n    /* \"#utility.yul\":670:682   */\n  revert\n    /* \"#utility.yul\":621:684   */\ntag_23:\n    /* \"#utility.yul\":568:690   */\n  pop\n  jump\t// out\n    /* \"#utility.yul\":696:839   */\ntag_13:\n    /* \"#utility.yul\":753:758   */\n  0x00\n    /* \"#utility.yul\":784:790   */\n  dup2\n    /* \"#utility.yul\":778:791   */\n  mload\n    /* \"#utility.yul\":769:791   */\n  swap1\n  pop\n    /* \"#utility.yul\":800:833   */\n  tag_25\n    /* \"#utility.yul\":827:832   */\n  dup2\n    /* \"#utility.yul\":800:833   */\n  tag_12\n  jump\t// in\ntag_25:\n    /* \"#utility.yul\":696:839   */\n  swap3\n  swap2\n  pop\n  pop\n  jump\t// out\n    /* \"#utility.yul\":845:1196   */\ntag_3:\n    /* \"#utility.yul\":915:921   */\n  0x00\n    /* \"#utility.yul\":964:966   */\n  0x20\n    /* \"#utility.yul\":952:961   */\n  dup3\n    /* \"#utility.yul\":943:950   */\n  dup5\n    /* \"#utility.yul\":939:962   */\n  sub\n    /* \"#utility.yul\":935:967   */\n  slt\n    /* \"#utility.yul\":932:1051   */\n  iszero\n  tag_27\n  jumpi\n    /* \"#utility.yul\":970:1049   */\n  tag_28\n  tag_8\n  jump\t// in\ntag_28:\n    /* \"#utility.yul\":932:1051   */\ntag_27:\n    /* \"#utility.yul\":1090:1091   */\n  0x00\n    /* \"#utility.yul\":1115:1179   */\n  tag_29\n    /* \"#utility.yul\":1171:1178   */\n  dup5\n    /* \"#utility.yul\":1162:1168   */\n  dup3\n    /* \"#utility.yul\":1151:1160   */\n  dup6\n    /* \"#utility.yul\":1147:1169   */\n  add\n    /* \"#utility.yul\":1115:1179   */\n  tag_13\n  jump\t// in\ntag_29:\n    /* \"#utility.yul\":1105:1179   */\n  swap2\n  pop\n    /* \"#utility.yul\":1061:1189   */\n  pop\n    /* \"#utility.yul\":845:1196   */\n  swap3\n  swap2\n  pop\n  pop\n  jump\t// out\n    /* \"contracts/ProductManagement.sol\":96:1920  contract ProductManagement {... */\ntag_6:\n  dataSize(sub_0)\n  dup1\n  dataOffset(sub_0)\n  0x00\n  codecopy\n  0x00\n  return\nstop\n\nsub_0: assembly {\n        /* \"contracts/ProductManagement.sol\":96:1920  contract ProductManagement {... */\n      mstore(0x40, 0x80)\n      jumpi(tag_1, lt(calldatasize, 0x04))\n      shr(0xe0, calldataload(0x00))\n      dup1\n      0x7acc0b20\n      gt\n      tag_9\n      jumpi\n      dup1\n      0x7acc0b20\n      eq\n      tag_5\n      jumpi\n      dup1\n      0xdb34d123\n      eq\n      tag_6\n      jumpi\n      dup1\n      0xe0f6ef87\n      eq\n      tag_7\n      jumpi\n      dup1\n      0xe5b9ca80\n      eq\n      tag_8\n      jumpi\n      jump(tag_1)\n    tag_9:\n      dup1\n      0x0a423e3a\n      eq\n      tag_2\n      jumpi\n      dup1\n      0x240f2ec0\n      eq\n      tag_3\n      jumpi\n      dup1\n      0x253d01f1\n      eq\n      tag_4\n      jumpi\n    tag_1:\n      0x00\n      dup1\n      revert\n        /* \"contracts/ProductManagement.sol\":1640:1770  function changeProductQuantity(uint256 _productId, uint256 _qts) external {... */\n    tag_2:\n      callvalue\n      dup1\n      iszero\n      tag_10\n      jumpi\n      0x00\n      dup1\n      revert\n    tag_10:\n      pop\n      tag_11\n      0x04\n      dup1\n      calldatasize\n      sub\n      dup2\n      add\n      swap1\n      tag_12\n      swap2\n      swap1\n      tag_13\n      jump\t// in\n    tag_12:\n      tag_14\n      jump\t// in\n    tag_11:\n      stop\n        /* \"contracts/ProductManagement.sol\":479:521  MaterialManagement public materialContract */\n    tag_3:\n      callvalue\n      dup1\n      iszero\n      tag_15\n      jumpi\n      0x00\n      dup1\n      revert\n    tag_15:\n      pop\n      tag_16\n      tag_17\n      jump\t// in\n    tag_16:\n      mload(0x40)\n      tag_18\n      swap2\n      swap1\n      tag_19\n      jump\t// in\n    tag_18:\n      mload(0x40)\n      dup1\n      swap2\n      sub\n      swap1\n      return\n        /* \"contracts/ProductManagement.sol\":782:1485  function addProduct(string memory _name, uint256 _price, uint256 _quantity, uint256 _status, uint256[] memory _matIds, address[] memory _ownerIds, uint256[] memory _costs, uint256[] memory _qts) external payable returns (uint256) {... */\n    tag_4:\n      tag_20\n      0x04\n      dup1\n      calldatasize\n      sub\n      dup2\n      add\n      swap1\n      tag_21\n      swap2\n      swap1\n      tag_22\n      jump\t// in\n    tag_21:\n      tag_23\n      jump\t// in\n    tag_20:\n      mload(0x40)\n      tag_24\n      swap2\n      swap1\n      tag_25\n      jump\t// in\n    tag_24:\n      mload(0x40)\n      dup1\n      swap2\n      sub\n      swap1\n      return\n        /* \"contracts/ProductManagement.sol\":395:438  mapping(uint256 => Product) public products */\n    tag_5:\n      callvalue\n      dup1\n      iszero\n      tag_26\n      jumpi\n      0x00\n      dup1\n      revert\n    tag_26:\n      pop\n      tag_27\n      0x04\n      dup1\n      calldatasize\n      sub\n      dup2\n      add\n      swap1\n      tag_28\n      swap2\n      swap1\n      tag_29\n      jump\t// in\n    tag_28:\n      tag_30\n      jump\t// in\n    tag_27:\n      mload(0x40)\n      tag_31\n      swap5\n      swap4\n      swap3\n      swap2\n      swap1\n      tag_32\n      jump\t// in\n    tag_31:\n      mload(0x40)\n      dup1\n      swap2\n      sub\n      swap1\n      return\n        /* \"contracts/ProductManagement.sol\":1778:1915  function getProductQuantity(uint256 _productId) view  external  returns (uint256) {... */\n    tag_6:\n      callvalue\n      dup1\n      iszero\n      tag_33\n      jumpi\n      0x00\n      dup1\n      revert\n    tag_33:\n      pop\n      tag_34\n      0x04\n      dup1\n      calldatasize\n      sub\n      dup2\n      add\n      swap1\n      tag_35\n      swap2\n      swap1\n      tag_29\n      jump\t// in\n    tag_35:\n      tag_36\n      jump\t// in\n    tag_34:\n      mload(0x40)\n      tag_37\n      swap2\n      swap1\n      tag_25\n      jump\t// in\n    tag_37:\n      mload(0x40)\n      dup1\n      swap2\n      sub\n      swap1\n      return\n        /* \"contracts/ProductManagement.sol\":445:472  uint256 public productCount */\n    tag_7:\n      callvalue\n      dup1\n      iszero\n      tag_38\n      jumpi\n      0x00\n      dup1\n      revert\n    tag_38:\n      pop\n      tag_39\n      tag_40\n      jump\t// in\n    tag_39:\n      mload(0x40)\n      tag_41\n      swap2\n      swap1\n      tag_25\n      jump\t// in\n    tag_41:\n      mload(0x40)\n      dup1\n      swap2\n      sub\n      swap1\n      return\n        /* \"contracts/ProductManagement.sol\":1493:1626  function changeProductStatus(uint256 productId, uint256 newStatus) external {... */\n    tag_8:\n      callvalue\n      dup1\n      iszero\n      tag_42\n      jumpi\n      0x00\n      dup1\n      revert\n    tag_42:\n      pop\n      tag_43\n      0x04\n      dup1\n      calldatasize\n      sub\n      dup2\n      add\n      swap1\n      tag_44\n      swap2\n      swap1\n      tag_13\n      jump\t// in\n    tag_44:\n      tag_45\n      jump\t// in\n    tag_43:\n      stop\n        /* \"contracts/ProductManagement.sol\":1640:1770  function changeProductQuantity(uint256 _productId, uint256 _qts) external {... */\n    tag_14:\n        /* \"contracts/ProductManagement.sol\":1758:1762  _qts */\n      dup1\n        /* \"contracts/ProductManagement.sol\":1725:1733  products */\n      0x00\n        /* \"contracts/ProductManagement.sol\":1725:1745  products[_productId] */\n      dup1\n        /* \"contracts/ProductManagement.sol\":1734:1744  _productId */\n      dup5\n        /* \"contracts/ProductManagement.sol\":1725:1745  products[_productId] */\n      dup2\n      mstore\n      0x20\n      add\n      swap1\n      dup2\n      mstore\n      0x20\n      add\n      0x00\n      keccak256\n        /* \"contracts/ProductManagement.sol\":1725:1754  products[_productId].quantity */\n      0x02\n      add\n      0x00\n        /* \"contracts/ProductManagement.sol\":1725:1762  products[_productId].quantity -= _qts */\n      dup3\n      dup3\n      sload\n      tag_47\n      swap2\n      swap1\n      tag_48\n      jump\t// in\n    tag_47:\n      swap3\n      pop\n      pop\n      dup2\n      swap1\n      sstore\n      pop\n        /* \"contracts/ProductManagement.sol\":1640:1770  function changeProductQuantity(uint256 _productId, uint256 _qts) external {... */\n      pop\n      pop\n      jump\t// out\n        /* \"contracts/ProductManagement.sol\":479:521  MaterialManagement public materialContract */\n    tag_17:\n      0x02\n      0x00\n      swap1\n      sload\n      swap1\n      0x0100\n      exp\n      swap1\n      div\n      0xffffffffffffffffffffffffffffffffffffffff\n      and\n      dup2\n      jump\t// out\n        /* \"contracts/ProductManagement.sol\":782:1485  function addProduct(string memory _name, uint256 _price, uint256 _quantity, uint256 _status, uint256[] memory _matIds, address[] memory _ownerIds, uint256[] memory _costs, uint256[] memory _qts) external payable returns (uint256) {... */\n    tag_23:\n        /* \"contracts/ProductManagement.sol\":1003:1010  uint256 */\n      0x00\n        /* \"contracts/ProductManagement.sol\":1023:1035  productCount */\n      0x01\n      0x00\n        /* \"contracts/ProductManagement.sol\":1023:1037  productCount++ */\n      dup2\n      sload\n      dup1\n      swap3\n      swap2\n      swap1\n      tag_50\n      swap1\n      tag_51\n      jump\t// in\n    tag_50:\n      swap2\n      swap1\n      pop\n      sstore\n      pop\n        /* \"contracts/ProductManagement.sol\":1055:1064  uint256 i */\n      0x00\n        /* \"contracts/ProductManagement.sol\":1050:1326  for (uint256 i = 0; i < _matIds.length; i++) {... */\n    tag_52:\n        /* \"contracts/ProductManagement.sol\":1074:1081  _matIds */\n      dup6\n        /* \"contracts/ProductManagement.sol\":1074:1088  _matIds.length */\n      mload\n        /* \"contracts/ProductManagement.sol\":1070:1071  i */\n      dup2\n        /* \"contracts/ProductManagement.sol\":1070:1088  i < _matIds.length */\n      lt\n        /* \"contracts/ProductManagement.sol\":1050:1326  for (uint256 i = 0; i < _matIds.length; i++) {... */\n      iszero\n      tag_53\n      jumpi\n        /* \"contracts/ProductManagement.sol\":1110:1118  products */\n      0x00\n        /* \"contracts/ProductManagement.sol\":1110:1132  products[productCount] */\n      dup1\n        /* \"contracts/ProductManagement.sol\":1119:1131  productCount */\n      sload(0x01)\n        /* \"contracts/ProductManagement.sol\":1110:1132  products[productCount] */\n      dup2\n      mstore\n      0x20\n      add\n      swap1\n      dup2\n      mstore\n      0x20\n      add\n      0x00\n      keccak256\n        /* \"contracts/ProductManagement.sol\":1110:1142  products[productCount].materials */\n      0x04\n      add\n        /* \"contracts/ProductManagement.sol\":1148:1193  Material(_matIds[i], _ownerIds[i], _costs[i]) */\n      mload(0x40)\n      dup1\n      0x60\n      add\n      0x40\n      mstore\n      dup1\n        /* \"contracts/ProductManagement.sol\":1157:1164  _matIds */\n      dup9\n        /* \"contracts/ProductManagement.sol\":1165:1166  i */\n      dup5\n        /* \"contracts/ProductManagement.sol\":1157:1167  _matIds[i] */\n      dup2\n      mload\n      dup2\n      lt\n      tag_55\n      jumpi\n      tag_56\n      tag_57\n      jump\t// in\n    tag_56:\n    tag_55:\n      0x20\n      mul\n      0x20\n      add\n      add\n      mload\n        /* \"contracts/ProductManagement.sol\":1148:1193  Material(_matIds[i], _ownerIds[i], _costs[i]) */\n      dup2\n      mstore\n      0x20\n      add\n        /* \"contracts/ProductManagement.sol\":1169:1178  _ownerIds */\n      dup8\n        /* \"contracts/ProductManagement.sol\":1179:1180  i */\n      dup5\n        /* \"contracts/ProductManagement.sol\":1169:1181  _ownerIds[i] */\n      dup2\n      mload\n      dup2\n      lt\n      tag_58\n      jumpi\n      tag_59\n      tag_57\n      jump\t// in\n    tag_59:\n    tag_58:\n      0x20\n      mul\n      0x20\n      add\n      add\n      mload\n        /* \"contracts/ProductManagement.sol\":1148:1193  Material(_matIds[i], _ownerIds[i], _costs[i]) */\n      0xffffffffffffffffffffffffffffffffffffffff\n      and\n      dup2\n      mstore\n      0x20\n      add\n        /* \"contracts/ProductManagement.sol\":1183:1189  _costs */\n      dup7\n        /* \"contracts/ProductManagement.sol\":1190:1191  i */\n      dup5\n        /* \"contracts/ProductManagement.sol\":1183:1192  _costs[i] */\n      dup2\n      mload\n      dup2\n      lt\n      tag_60\n      jumpi\n      tag_61\n      tag_57\n      jump\t// in\n    tag_61:\n    tag_60:\n      0x20\n      mul\n      0x20\n      add\n      add\n      mload\n        /* \"contracts/ProductManagement.sol\":1148:1193  Material(_matIds[i], _ownerIds[i], _costs[i]) */\n      dup2\n      mstore\n      pop\n        /* \"contracts/ProductManagement.sol\":1110:1194  products[productCount].materials.push(Material(_matIds[i], _ownerIds[i], _costs[i])) */\n      swap1\n      dup1\n      0x01\n      dup2\n      sload\n      add\n      dup1\n      dup3\n      sstore\n      dup1\n      swap2\n      pop\n      pop\n      0x01\n      swap1\n      sub\n      swap1\n      0x00\n      mstore\n      keccak256(0x00, 0x20)\n      swap1\n      0x03\n      mul\n      add\n      0x00\n      swap1\n      swap2\n      swap1\n      swap2\n      swap1\n      swap2\n      pop\n      0x00\n      dup3\n      add\n      mload\n      dup2\n      0x00\n      add\n      sstore\n      0x20\n      dup3\n      add\n      mload\n      dup2\n      0x01\n      add\n      exp(0x0100, 0x00)\n      dup2\n      sload\n      dup2\n      0xffffffffffffffffffffffffffffffffffffffff\n      mul\n      not\n      and\n      swap1\n      dup4\n      0xffffffffffffffffffffffffffffffffffffffff\n      and\n      mul\n      or\n      swap1\n      sstore\n      pop\n      0x40\n      dup3\n      add\n      mload\n      dup2\n      0x02\n      add\n      sstore\n      pop\n      pop\n        /* \"contracts/ProductManagement.sol\":1209:1225  materialContract */\n      0x02\n      0x00\n      swap1\n      sload\n      swap1\n      0x0100\n      exp\n      swap1\n      div\n      0xffffffffffffffffffffffffffffffffffffffff\n      and\n        /* \"contracts/ProductManagement.sol\":1209:1237  materialContract.setQuantity */\n      0xffffffffffffffffffffffffffffffffffffffff\n      and\n      0x9405c78f\n        /* \"contracts/ProductManagement.sol\":1238:1245  _matIds */\n      dup8\n        /* \"contracts/ProductManagement.sol\":1246:1247  i */\n      dup4\n        /* \"contracts/ProductManagement.sol\":1238:1248  _matIds[i] */\n      dup2\n      mload\n      dup2\n      lt\n      tag_63\n      jumpi\n      tag_64\n      tag_57\n      jump\t// in\n    tag_64:\n    tag_63:\n      0x20\n      mul\n      0x20\n      add\n      add\n      mload\n        /* \"contracts/ProductManagement.sol\":1250:1254  _qts */\n      dup6\n        /* \"contracts/ProductManagement.sol\":1255:1256  i */\n      dup5\n        /* \"contracts/ProductManagement.sol\":1250:1257  _qts[i] */\n      dup2\n      mload\n      dup2\n      lt\n      tag_65\n      jumpi\n      tag_66\n      tag_57\n      jump\t// in\n    tag_66:\n    tag_65:\n      0x20\n      mul\n      0x20\n      add\n      add\n      mload\n        /* \"contracts/ProductManagement.sol\":1209:1258  materialContract.setQuantity(_matIds[i], _qts[i]) */\n      mload(0x40)\n      dup4\n      0xffffffff\n      and\n      0xe0\n      shl\n      dup2\n      mstore\n      0x04\n      add\n      tag_67\n      swap3\n      swap2\n      swap1\n      tag_68\n      jump\t// in\n    tag_67:\n      0x00\n      mload(0x40)\n      dup1\n      dup4\n      sub\n      dup2\n      0x00\n      dup8\n      dup1\n      extcodesize\n      iszero\n      dup1\n      iszero\n      tag_69\n      jumpi\n      0x00\n      dup1\n      revert\n    tag_69:\n      pop\n      gas\n      call\n      iszero\n      dup1\n      iszero\n      tag_71\n      jumpi\n      returndatasize\n      0x00\n      dup1\n      returndatacopy\n      revert(0x00, returndatasize)\n    tag_71:\n      pop\n      pop\n      pop\n      pop\n        /* \"contracts/ProductManagement.sol\":1281:1290  _ownerIds */\n      dup5\n        /* \"contracts/ProductManagement.sol\":1291:1292  i */\n      dup2\n        /* \"contracts/ProductManagement.sol\":1281:1293  _ownerIds[i] */\n      dup2\n      mload\n      dup2\n      lt\n      tag_72\n      jumpi\n      tag_73\n      tag_57\n      jump\t// in\n    tag_73:\n    tag_72:\n      0x20\n      mul\n      0x20\n      add\n      add\n      mload\n        /* \"contracts/ProductManagement.sol\":1273:1303  payable(_ownerIds[i]).transfer */\n      0xffffffffffffffffffffffffffffffffffffffff\n      and\n        /* \"contracts/ProductManagement.sol\":1273:1314  payable(_ownerIds[i]).transfer(_costs[i]) */\n      0x08fc\n        /* \"contracts/ProductManagement.sol\":1304:1310  _costs */\n      dup6\n        /* \"contracts/ProductManagement.sol\":1311:1312  i */\n      dup4\n        /* \"contracts/ProductManagement.sol\":1304:1313  _costs[i] */\n      dup2\n      mload\n      dup2\n      lt\n      tag_74\n      jumpi\n      tag_75\n      tag_57\n      jump\t// in\n    tag_75:\n    tag_74:\n      0x20\n      mul\n      0x20\n      add\n      add\n      mload\n        /* \"contracts/ProductManagement.sol\":1273:1314  payable(_ownerIds[i]).transfer(_costs[i]) */\n      swap1\n      dup2\n      iszero\n      mul\n      swap1\n      mload(0x40)\n      0x00\n      mload(0x40)\n      dup1\n      dup4\n      sub\n      dup2\n      dup6\n      dup9\n      dup9\n      call\n      swap4\n      pop\n      pop\n      pop\n      pop\n      iszero\n      dup1\n      iszero\n      tag_77\n      jumpi\n      returndatasize\n      0x00\n      dup1\n      returndatacopy\n      revert(0x00, returndatasize)\n    tag_77:\n      pop\n        /* \"contracts/ProductManagement.sol\":1090:1093  i++ */\n      dup1\n      dup1\n      0x01\n      add\n      swap2\n      pop\n      pop\n        /* \"contracts/ProductManagement.sol\":1050:1326  for (uint256 i = 0; i < _matIds.length; i++) {... */\n      jump(tag_52)\n    tag_53:\n      pop\n        /* \"contracts/ProductManagement.sol\":1358:1370  productCount */\n      sload(0x01)\n        /* \"contracts/ProductManagement.sol\":1345:1406  ProductAdded(productCount, _name, _quantity, _price, _status) */\n      0x1e9ea568bc9c12f61e1906e20d1fdd96d2d8487fe9c3d58fff2af8d15c7316cb\n        /* \"contracts/ProductManagement.sol\":1372:1377  _name */\n      dup11\n        /* \"contracts/ProductManagement.sol\":1379:1388  _quantity */\n      dup10\n        /* \"contracts/ProductManagement.sol\":1390:1396  _price */\n      dup12\n        /* \"contracts/ProductManagement.sol\":1398:1405  _status */\n      dup11\n        /* \"contracts/ProductManagement.sol\":1345:1406  ProductAdded(productCount, _name, _quantity, _price, _status) */\n      mload(0x40)\n      tag_78\n      swap5\n      swap4\n      swap3\n      swap2\n      swap1\n      tag_32\n      jump\t// in\n    tag_78:\n      mload(0x40)\n      dup1\n      swap2\n      sub\n      swap1\n      log2\n        /* \"contracts/ProductManagement.sol\":1426:1438  productCount */\n      sload(0x01)\n        /* \"contracts/ProductManagement.sol\":1419:1438  return productCount */\n      swap1\n      pop\n        /* \"contracts/ProductManagement.sol\":782:1485  function addProduct(string memory _name, uint256 _price, uint256 _quantity, uint256 _status, uint256[] memory _matIds, address[] memory _ownerIds, uint256[] memory _costs, uint256[] memory _qts) external payable returns (uint256) {... */\n      swap9\n      swap8\n      pop\n      pop\n      pop\n      pop\n      pop\n      pop\n      pop\n      pop\n      jump\t// out\n        /* \"contracts/ProductManagement.sol\":395:438  mapping(uint256 => Product) public products */\n    tag_30:\n      mstore(0x20, 0x00)\n      dup1\n      0x00\n      mstore\n      keccak256(0x00, 0x40)\n      0x00\n      swap2\n      pop\n      swap1\n      pop\n      dup1\n      0x00\n      add\n      dup1\n      sload\n      tag_79\n      swap1\n      tag_80\n      jump\t// in\n    tag_79:\n      dup1\n      0x1f\n      add\n      0x20\n      dup1\n      swap2\n      div\n      mul\n      0x20\n      add\n      mload(0x40)\n      swap1\n      dup2\n      add\n      0x40\n      mstore\n      dup1\n      swap3\n      swap2\n      swap1\n      dup2\n      dup2\n      mstore\n      0x20\n      add\n      dup3\n      dup1\n      sload\n      tag_81\n      swap1\n      tag_80\n      jump\t// in\n    tag_81:\n      dup1\n      iszero\n      tag_82\n      jumpi\n      dup1\n      0x1f\n      lt\n      tag_83\n      jumpi\n      0x0100\n      dup1\n      dup4\n      sload\n      div\n      mul\n      dup4\n      mstore\n      swap2\n      0x20\n      add\n      swap2\n      jump(tag_82)\n    tag_83:\n      dup3\n      add\n      swap2\n      swap1\n      0x00\n      mstore\n      keccak256(0x00, 0x20)\n      swap1\n    tag_84:\n      dup2\n      sload\n      dup2\n      mstore\n      swap1\n      0x01\n      add\n      swap1\n      0x20\n      add\n      dup1\n      dup4\n      gt\n      tag_84\n      jumpi\n      dup3\n      swap1\n      sub\n      0x1f\n      and\n      dup3\n      add\n      swap2\n    tag_82:\n      pop\n      pop\n      pop\n      pop\n      pop\n      swap1\n      dup1\n      0x01\n      add\n      sload\n      swap1\n      dup1\n      0x02\n      add\n      sload\n      swap1\n      dup1\n      0x03\n      add\n      sload\n      swap1\n      pop\n      dup5\n      jump\t// out\n        /* \"contracts/ProductManagement.sol\":1778:1915  function getProductQuantity(uint256 _productId) view  external  returns (uint256) {... */\n    tag_36:\n        /* \"contracts/ProductManagement.sol\":1851:1858  uint256 */\n      0x00\n        /* \"contracts/ProductManagement.sol\":1878:1886  products */\n      dup1\n        /* \"contracts/ProductManagement.sol\":1878:1898  products[_productId] */\n      0x00\n        /* \"contracts/ProductManagement.sol\":1887:1897  _productId */\n      dup4\n        /* \"contracts/ProductManagement.sol\":1878:1898  products[_productId] */\n      dup2\n      mstore\n      0x20\n      add\n      swap1\n      dup2\n      mstore\n      0x20\n      add\n      0x00\n      keccak256\n        /* \"contracts/ProductManagement.sol\":1878:1907  products[_productId].quantity */\n      0x02\n      add\n      sload\n        /* \"contracts/ProductManagement.sol\":1871:1907  return products[_productId].quantity */\n      swap1\n      pop\n        /* \"contracts/ProductManagement.sol\":1778:1915  function getProductQuantity(uint256 _productId) view  external  returns (uint256) {... */\n      swap2\n      swap1\n      pop\n      jump\t// out\n        /* \"contracts/ProductManagement.sol\":445:472  uint256 public productCount */\n    tag_40:\n      sload(0x01)\n      dup2\n      jump\t// out\n        /* \"contracts/ProductManagement.sol\":1493:1626  function changeProductStatus(uint256 productId, uint256 newStatus) external {... */\n    tag_45:\n        /* \"contracts/ProductManagement.sol\":1609:1618  newStatus */\n      dup1\n        /* \"contracts/ProductManagement.sol\":1580:1588  products */\n      0x00\n        /* \"contracts/ProductManagement.sol\":1580:1599  products[productId] */\n      dup1\n        /* \"contracts/ProductManagement.sol\":1589:1598  productId */\n      dup5\n        /* \"contracts/ProductManagement.sol\":1580:1599  products[productId] */\n      dup2\n      mstore\n      0x20\n      add\n      swap1\n      dup2\n      mstore\n      0x20\n      add\n      0x00\n      keccak256\n        /* \"contracts/ProductManagement.sol\":1580:1606  products[productId].status */\n      0x03\n      add\n        /* \"contracts/ProductManagement.sol\":1580:1618  products[productId].status = newStatus */\n      dup2\n      swap1\n      sstore\n      pop\n        /* \"contracts/ProductManagement.sol\":1493:1626  function changeProductStatus(uint256 productId, uint256 newStatus) external {... */\n      pop\n      pop\n      jump\t// out\n        /* \"#utility.yul\":7:82   */\n    tag_87:\n        /* \"#utility.yul\":40:46   */\n      0x00\n        /* \"#utility.yul\":73:75   */\n      0x40\n        /* \"#utility.yul\":67:76   */\n      mload\n        /* \"#utility.yul\":57:76   */\n      swap1\n      pop\n        /* \"#utility.yul\":7:82   */\n      swap1\n      jump\t// out\n        /* \"#utility.yul\":88:205   */\n    tag_88:\n        /* \"#utility.yul\":197:198   */\n      0x00\n        /* \"#utility.yul\":194:195   */\n      dup1\n        /* \"#utility.yul\":187:199   */\n      revert\n        /* \"#utility.yul\":211:328   */\n    tag_89:\n        /* \"#utility.yul\":320:321   */\n      0x00\n        /* \"#utility.yul\":317:318   */\n      dup1\n        /* \"#utility.yul\":310:322   */\n      revert\n        /* \"#utility.yul\":334:411   */\n    tag_90:\n        /* \"#utility.yul\":371:378   */\n      0x00\n        /* \"#utility.yul\":400:405   */\n      dup2\n        /* \"#utility.yul\":389:405   */\n      swap1\n      pop\n        /* \"#utility.yul\":334:411   */\n      swap2\n      swap1\n      pop\n      jump\t// out\n        /* \"#utility.yul\":417:539   */\n    tag_91:\n        /* \"#utility.yul\":490:514   */\n      tag_132\n        /* \"#utility.yul\":508:513   */\n      dup2\n        /* \"#utility.yul\":490:514   */\n      tag_90\n      jump\t// in\n    tag_132:\n        /* \"#utility.yul\":483:488   */\n      dup2\n        /* \"#utility.yul\":480:515   */\n      eq\n        /* \"#utility.yul\":470:533   */\n      tag_133\n      jumpi\n        /* \"#utility.yul\":529:530   */\n      0x00\n        /* \"#utility.yul\":526:527   */\n      dup1\n        /* \"#utility.yul\":519:531   */\n      revert\n        /* \"#utility.yul\":470:533   */\n    tag_133:\n        /* \"#utility.yul\":417:539   */\n      pop\n      jump\t// out\n        /* \"#utility.yul\":545:684   */\n    tag_92:\n        /* \"#utility.yul\":591:596   */\n      0x00\n        /* \"#utility.yul\":629:635   */\n      dup2\n        /* \"#utility.yul\":616:636   */\n      calldataload\n        /* \"#utility.yul\":607:636   */\n      swap1\n      pop\n        /* \"#utility.yul\":645:678   */\n      tag_135\n        /* \"#utility.yul\":672:677   */\n      dup2\n        /* \"#utility.yul\":645:678   */\n      tag_91\n      jump\t// in\n    tag_135:\n        /* \"#utility.yul\":545:684   */\n      swap3\n      swap2\n      pop\n      pop\n      jump\t// out\n        /* \"#utility.yul\":690:1164   */\n    tag_13:\n        /* \"#utility.yul\":758:764   */\n      0x00\n        /* \"#utility.yul\":766:772   */\n      dup1\n        /* \"#utility.yul\":815:817   */\n      0x40\n        /* \"#utility.yul\":803:812   */\n      dup4\n        /* \"#utility.yul\":794:801   */\n      dup6\n        /* \"#utility.yul\":790:813   */\n      sub\n        /* \"#utility.yul\":786:818   */\n      slt\n        /* \"#utility.yul\":783:902   */\n      iszero\n      tag_137\n      jumpi\n        /* \"#utility.yul\":821:900   */\n      tag_138\n      tag_88\n      jump\t// in\n    tag_138:\n        /* \"#utility.yul\":783:902   */\n    tag_137:\n        /* \"#utility.yul\":941:942   */\n      0x00\n        /* \"#utility.yul\":966:1019   */\n      tag_139\n        /* \"#utility.yul\":1011:1018   */\n      dup6\n        /* \"#utility.yul\":1002:1008   */\n      dup3\n        /* \"#utility.yul\":991:1000   */\n      dup7\n        /* \"#utility.yul\":987:1009   */\n      add\n        /* \"#utility.yul\":966:1019   */\n      tag_92\n      jump\t// in\n    tag_139:\n        /* \"#utility.yul\":956:1019   */\n      swap3\n      pop\n        /* \"#utility.yul\":912:1029   */\n      pop\n        /* \"#utility.yul\":1068:1070   */\n      0x20\n        /* \"#utility.yul\":1094:1147   */\n      tag_140\n        /* \"#utility.yul\":1139:1146   */\n      dup6\n        /* \"#utility.yul\":1130:1136   */\n      dup3\n        /* \"#utility.yul\":1119:1128   */\n      dup7\n        /* \"#utility.yul\":1115:1137   */\n      add\n        /* \"#utility.yul\":1094:1147   */\n      tag_92\n      jump\t// in\n    tag_140:\n        /* \"#utility.yul\":1084:1147   */\n      swap2\n      pop\n        /* \"#utility.yul\":1039:1157   */\n      pop\n        /* \"#utility.yul\":690:1164   */\n      swap3\n      pop\n      swap3\n      swap1\n      pop\n      jump\t// out\n        /* \"#utility.yul\":1170:1296   */\n    tag_93:\n        /* \"#utility.yul\":1207:1214   */\n      0x00\n        /* \"#utility.yul\":1247:1289   */\n      0xffffffffffffffffffffffffffffffffffffffff\n        /* \"#utility.yul\":1240:1245   */\n      dup3\n        /* \"#utility.yul\":1236:1290   */\n      and\n        /* \"#utility.yul\":1225:1290   */\n      swap1\n      pop\n        /* \"#utility.yul\":1170:1296   */\n      swap2\n      swap1\n      pop\n      jump\t// out\n        /* \"#utility.yul\":1302:1362   */\n    tag_94:\n        /* \"#utility.yul\":1330:1333   */\n      0x00\n        /* \"#utility.yul\":1351:1356   */\n      dup2\n        /* \"#utility.yul\":1344:1356   */\n      swap1\n      pop\n        /* \"#utility.yul\":1302:1362   */\n      swap2\n      swap1\n      pop\n      jump\t// out\n        /* \"#utility.yul\":1368:1510   */\n    tag_95:\n        /* \"#utility.yul\":1418:1427   */\n      0x00\n        /* \"#utility.yul\":1451:1504   */\n      tag_144\n        /* \"#utility.yul\":1469:1503   */\n      tag_145\n        /* \"#utility.yul\":1478:1502   */\n      tag_146\n        /* \"#utility.yul\":1496:1501   */\n      dup5\n        /* \"#utility.yul\":1478:1502   */\n      tag_93\n      jump\t// in\n    tag_146:\n        /* \"#utility.yul\":1469:1503   */\n      tag_94\n      jump\t// in\n    tag_145:\n        /* \"#utility.yul\":1451:1504   */\n      tag_93\n      jump\t// in\n    tag_144:\n        /* \"#utility.yul\":1438:1504   */\n      swap1\n      pop\n        /* \"#utility.yul\":1368:1510   */\n      swap2\n      swap1\n      pop\n      jump\t// out\n        /* \"#utility.yul\":1516:1642   */\n    tag_96:\n        /* \"#utility.yul\":1566:1575   */\n      0x00\n        /* \"#utility.yul\":1599:1636   */\n      tag_148\n        /* \"#utility.yul\":1630:1635   */\n      dup3\n        /* \"#utility.yul\":1599:1636   */\n      tag_95\n      jump\t// in\n    tag_148:\n        /* \"#utility.yul\":1586:1636   */\n      swap1\n      pop\n        /* \"#utility.yul\":1516:1642   */\n      swap2\n      swap1\n      pop\n      jump\t// out\n        /* \"#utility.yul\":1648:1800   */\n    tag_97:\n        /* \"#utility.yul\":1724:1733   */\n      0x00\n        /* \"#utility.yul\":1757:1794   */\n      tag_150\n        /* \"#utility.yul\":1788:1793   */\n      dup3\n        /* \"#utility.yul\":1757:1794   */\n      tag_96\n      jump\t// in\n    tag_150:\n        /* \"#utility.yul\":1744:1794   */\n      swap1\n      pop\n        /* \"#utility.yul\":1648:1800   */\n      swap2\n      swap1\n      pop\n      jump\t// out\n        /* \"#utility.yul\":1806:1989   */\n    tag_98:\n        /* \"#utility.yul\":1919:1982   */\n      tag_152\n        /* \"#utility.yul\":1976:1981   */\n      dup2\n        /* \"#utility.yul\":1919:1982   */\n      tag_97\n      jump\t// in\n    tag_152:\n        /* \"#utility.yul\":1914:1917   */\n      dup3\n        /* \"#utility.yul\":1907:1983   */\n      mstore\n        /* \"#utility.yul\":1806:1989   */\n      pop\n      pop\n      jump\t// out\n        /* \"#utility.yul\":1995:2269   */\n    tag_19:\n        /* \"#utility.yul\":2114:2118   */\n      0x00\n        /* \"#utility.yul\":2152:2154   */\n      0x20\n        /* \"#utility.yul\":2141:2150   */\n      dup3\n        /* \"#utility.yul\":2137:2155   */\n      add\n        /* \"#utility.yul\":2129:2155   */\n      swap1\n      pop\n        /* \"#utility.yul\":2165:2262   */\n      tag_154\n        /* \"#utility.yul\":2259:2260   */\n      0x00\n        /* \"#utility.yul\":2248:2257   */\n      dup4\n        /* \"#utility.yul\":2244:2261   */\n      add\n        /* \"#utility.yul\":2235:2241   */\n      dup5\n        /* \"#utility.yul\":2165:2262   */\n      tag_98\n      jump\t// in\n    tag_154:\n        /* \"#utility.yul\":1995:2269   */\n      swap3\n      swap2\n      pop\n      pop\n      jump\t// out\n        /* \"#utility.yul\":2275:2392   */\n    tag_99:\n        /* \"#utility.yul\":2384:2385   */\n      0x00\n        /* \"#utility.yul\":2381:2382   */\n      dup1\n        /* \"#utility.yul\":2374:2386   */\n      revert\n        /* \"#utility.yul\":2398:2515   */\n    tag_100:\n        /* \"#utility.yul\":2507:2508   */\n      0x00\n        /* \"#utility.yul\":2504:2505   */\n      dup1\n        /* \"#utility.yul\":2497:2509   */\n      revert\n        /* \"#utility.yul\":2521:2623   */\n    tag_101:\n        /* \"#utility.yul\":2562:2568   */\n      0x00\n        /* \"#utility.yul\":2613:2615   */\n      0x1f\n        /* \"#utility.yul\":2609:2616   */\n      not\n        /* \"#utility.yul\":2604:2606   */\n      0x1f\n        /* \"#utility.yul\":2597:2602   */\n      dup4\n        /* \"#utility.yul\":2593:2607   */\n      add\n        /* \"#utility.yul\":2589:2617   */\n      and\n        /* \"#utility.yul\":2579:2617   */\n      swap1\n      pop\n        /* \"#utility.yul\":2521:2623   */\n      swap2\n      swap1\n      pop\n      jump\t// out\n        /* \"#utility.yul\":2629:2809   */\n    tag_102:\n        /* \"#utility.yul\":2677:2754   */\n      0x4e487b7100000000000000000000000000000000000000000000000000000000\n        /* \"#utility.yul\":2674:2675   */\n      0x00\n        /* \"#utility.yul\":2667:2755   */\n      mstore\n        /* \"#utility.yul\":2774:2778   */\n      0x41\n        /* \"#utility.yul\":2771:2772   */\n      0x04\n        /* \"#utility.yul\":2764:2779   */\n      mstore\n        /* \"#utility.yul\":2798:2802   */\n      0x24\n        /* \"#utility.yul\":2795:2796   */\n      0x00\n        /* \"#utility.yul\":2788:2803   */\n      revert\n        /* \"#utility.yul\":2815:3096   */\n    tag_103:\n        /* \"#utility.yul\":2898:2925   */\n      tag_160\n        /* \"#utility.yul\":2920:2924   */\n      dup3\n        /* \"#utility.yul\":2898:2925   */\n      tag_101\n      jump\t// in\n    tag_160:\n        /* \"#utility.yul\":2890:2896   */\n      dup2\n        /* \"#utility.yul\":2886:2926   */\n      add\n        /* \"#utility.yul\":3028:3034   */\n      dup2\n        /* \"#utility.yul\":3016:3026   */\n      dup2\n        /* \"#utility.yul\":3013:3035   */\n      lt\n        /* \"#utility.yul\":2992:3010   */\n      0xffffffffffffffff\n        /* \"#utility.yul\":2980:2990   */\n      dup3\n        /* \"#utility.yul\":2977:3011   */\n      gt\n        /* \"#utility.yul\":2974:3036   */\n      or\n        /* \"#utility.yul\":2971:3059   */\n      iszero\n      tag_161\n      jumpi\n        /* \"#utility.yul\":3039:3057   */\n      tag_162\n      tag_102\n      jump\t// in\n    tag_162:\n        /* \"#utility.yul\":2971:3059   */\n    tag_161:\n        /* \"#utility.yul\":3079:3089   */\n      dup1\n        /* \"#utility.yul\":3075:3077   */\n      0x40\n        /* \"#utility.yul\":3068:3090   */\n      mstore\n        /* \"#utility.yul\":2858:3096   */\n      pop\n        /* \"#utility.yul\":2815:3096   */\n      pop\n      pop\n      jump\t// out\n        /* \"#utility.yul\":3102:3231   */\n    tag_104:\n        /* \"#utility.yul\":3136:3142   */\n      0x00\n        /* \"#utility.yul\":3163:3183   */\n      tag_164\n      tag_87\n      jump\t// in\n    tag_164:\n        /* \"#utility.yul\":3153:3183   */\n      swap1\n      pop\n        /* \"#utility.yul\":3192:3225   */\n      tag_165\n        /* \"#utility.yul\":3220:3224   */\n      dup3\n        /* \"#utility.yul\":3212:3218   */\n      dup3\n        /* \"#utility.yul\":3192:3225   */\n      tag_103\n      jump\t// in\n    tag_165:\n        /* \"#utility.yul\":3102:3231   */\n      swap2\n      swap1\n      pop\n      jump\t// out\n        /* \"#utility.yul\":3237:3545   */\n    tag_105:\n        /* \"#utility.yul\":3299:3303   */\n      0x00\n        /* \"#utility.yul\":3389:3407   */\n      0xffffffffffffffff\n        /* \"#utility.yul\":3381:3387   */\n      dup3\n        /* \"#utility.yul\":3378:3408   */\n      gt\n        /* \"#utility.yul\":3375:3431   */\n      iszero\n      tag_167\n      jumpi\n        /* \"#utility.yul\":3411:3429   */\n      tag_168\n      tag_102\n      jump\t// in\n    tag_168:\n        /* \"#utility.yul\":3375:3431   */\n    tag_167:\n        /* \"#utility.yul\":3449:3478   */\n      tag_169\n        /* \"#utility.yul\":3471:3477   */\n      dup3\n        /* \"#utility.yul\":3449:3478   */\n      tag_101\n      jump\t// in\n    tag_169:\n        /* \"#utility.yul\":3441:3478   */\n      swap1\n      pop\n        /* \"#utility.yul\":3533:3537   */\n      0x20\n        /* \"#utility.yul\":3527:3531   */\n      dup2\n        /* \"#utility.yul\":3523:3538   */\n      add\n        /* \"#utility.yul\":3515:3538   */\n      swap1\n      pop\n        /* \"#utility.yul\":3237:3545   */\n      swap2\n      swap1\n      pop\n      jump\t// out\n        /* \"#utility.yul\":3551:3697   */\n    tag_106:\n        /* \"#utility.yul\":3648:3654   */\n      dup3\n        /* \"#utility.yul\":3643:3646   */\n      dup2\n        /* \"#utility.yul\":3638:3641   */\n      dup4\n        /* \"#utility.yul\":3625:3655   */\n      calldatacopy\n        /* \"#utility.yul\":3689:3690   */\n      0x00\n        /* \"#utility.yul\":3680:3686   */\n      dup4\n        /* \"#utility.yul\":3675:3678   */\n      dup4\n        /* \"#utility.yul\":3671:3687   */\n      add\n        /* \"#utility.yul\":3664:3691   */\n      mstore\n        /* \"#utility.yul\":3551:3697   */\n      pop\n      pop\n      pop\n      jump\t// out\n        /* \"#utility.yul\":3703:4128   */\n    tag_107:\n        /* \"#utility.yul\":3781:3786   */\n      0x00\n        /* \"#utility.yul\":3806:3872   */\n      tag_172\n        /* \"#utility.yul\":3822:3871   */\n      tag_173\n        /* \"#utility.yul\":3864:3870   */\n      dup5\n        /* \"#utility.yul\":3822:3871   */\n      tag_105\n      jump\t// in\n    tag_173:\n        /* \"#utility.yul\":3806:3872   */\n      tag_104\n      jump\t// in\n    tag_172:\n        /* \"#utility.yul\":3797:3872   */\n      swap1\n      pop\n        /* \"#utility.yul\":3895:3901   */\n      dup3\n        /* \"#utility.yul\":3888:3893   */\n      dup2\n        /* \"#utility.yul\":3881:3902   */\n      mstore\n        /* \"#utility.yul\":3933:3937   */\n      0x20\n        /* \"#utility.yul\":3926:3931   */\n      dup2\n        /* \"#utility.yul\":3922:3938   */\n      add\n        /* \"#utility.yul\":3971:3974   */\n      dup5\n        /* \"#utility.yul\":3962:3968   */\n      dup5\n        /* \"#utility.yul\":3957:3960   */\n      dup5\n        /* \"#utility.yul\":3953:3969   */\n      add\n        /* \"#utility.yul\":3950:3975   */\n      gt\n        /* \"#utility.yul\":3947:4059   */\n      iszero\n      tag_174\n      jumpi\n        /* \"#utility.yul\":3978:4057   */\n      tag_175\n      tag_100\n      jump\t// in\n    tag_175:\n        /* \"#utility.yul\":3947:4059   */\n    tag_174:\n        /* \"#utility.yul\":4068:4122   */\n      tag_176\n        /* \"#utility.yul\":4115:4121   */\n      dup5\n        /* \"#utility.yul\":4110:4113   */\n      dup3\n        /* \"#utility.yul\":4105:4108   */\n      dup6\n        /* \"#utility.yul\":4068:4122   */\n      tag_106\n      jump\t// in\n    tag_176:\n        /* \"#utility.yul\":3787:4128   */\n      pop\n        /* \"#utility.yul\":3703:4128   */\n      swap4\n      swap3\n      pop\n      pop\n      pop\n      jump\t// out\n        /* \"#utility.yul\":4148:4488   */\n    tag_108:\n        /* \"#utility.yul\":4204:4209   */\n      0x00\n        /* \"#utility.yul\":4253:4256   */\n      dup3\n        /* \"#utility.yul\":4246:4250   */\n      0x1f\n        /* \"#utility.yul\":4238:4244   */\n      dup4\n        /* \"#utility.yul\":4234:4251   */\n      add\n        /* \"#utility.yul\":4230:4257   */\n      slt\n        /* \"#utility.yul\":4220:4342   */\n      tag_178\n      jumpi\n        /* \"#utility.yul\":4261:4340   */\n      tag_179\n      tag_99\n      jump\t// in\n    tag_179:\n        /* \"#utility.yul\":4220:4342   */\n    tag_178:\n        /* \"#utility.yul\":4378:4384   */\n      dup2\n        /* \"#utility.yul\":4365:4385   */\n      calldataload\n        /* \"#utility.yul\":4403:4482   */\n      tag_180\n        /* \"#utility.yul\":4478:4481   */\n      dup5\n        /* \"#utility.yul\":4470:4476   */\n      dup3\n        /* \"#utility.yul\":4463:4467   */\n      0x20\n        /* \"#utility.yul\":4455:4461   */\n      dup7\n        /* \"#utility.yul\":4451:4468   */\n      add\n        /* \"#utility.yul\":4403:4482   */\n      tag_107\n      jump\t// in\n    tag_180:\n        /* \"#utility.yul\":4394:4482   */\n      swap2\n      pop\n        /* \"#utility.yul\":4210:4488   */\n      pop\n        /* \"#utility.yul\":4148:4488   */\n      swap3\n      swap2\n      pop\n      pop\n      jump\t// out\n        /* \"#utility.yul\":4494:4805   */\n    tag_109:\n        /* \"#utility.yul\":4571:4575   */\n      0x00\n        /* \"#utility.yul\":4661:4679   */\n      0xffffffffffffffff\n        /* \"#utility.yul\":4653:4659   */\n      dup3\n        /* \"#utility.yul\":4650:4680   */\n      gt\n        /* \"#utility.yul\":4647:4703   */\n      iszero\n      tag_182\n      jumpi\n        /* \"#utility.yul\":4683:4701   */\n      tag_183\n      tag_102\n      jump\t// in\n    tag_183:\n        /* \"#utility.yul\":4647:4703   */\n    tag_182:\n        /* \"#utility.yul\":4733:4737   */\n      0x20\n        /* \"#utility.yul\":4725:4731   */\n      dup3\n        /* \"#utility.yul\":4721:4738   */\n      mul\n        /* \"#utility.yul\":4713:4738   */\n      swap1\n      pop\n        /* \"#utility.yul\":4793:4797   */\n      0x20\n        /* \"#utility.yul\":4787:4791   */\n      dup2\n        /* \"#utility.yul\":4783:4798   */\n      add\n        /* \"#utility.yul\":4775:4798   */\n      swap1\n      pop\n        /* \"#utility.yul\":4494:4805   */\n      swap2\n      swap1\n      pop\n      jump\t// out\n        /* \"#utility.yul\":4811:4928   */\n    tag_110:\n        /* \"#utility.yul\":4920:4921   */\n      0x00\n        /* \"#utility.yul\":4917:4918   */\n      dup1\n        /* \"#utility.yul\":4910:4922   */\n      revert\n        /* \"#utility.yul\":4951:5661   */\n    tag_111:\n        /* \"#utility.yul\":5047:5052   */\n      0x00\n        /* \"#utility.yul\":5072:5153   */\n      tag_186\n        /* \"#utility.yul\":5088:5152   */\n      tag_187\n        /* \"#utility.yul\":5145:5151   */\n      dup5\n        /* \"#utility.yul\":5088:5152   */\n      tag_109\n      jump\t// in\n    tag_187:\n        /* \"#utility.yul\":5072:5153   */\n      tag_104\n      jump\t// in\n    tag_186:\n        /* \"#utility.yul\":5063:5153   */\n      swap1\n      pop\n        /* \"#utility.yul\":5173:5178   */\n      dup1\n        /* \"#utility.yul\":5202:5208   */\n      dup4\n        /* \"#utility.yul\":5195:5200   */\n      dup3\n        /* \"#utility.yul\":5188:5209   */\n      mstore\n        /* \"#utility.yul\":5236:5240   */\n      0x20\n        /* \"#utility.yul\":5229:5234   */\n      dup3\n        /* \"#utility.yul\":5225:5241   */\n      add\n        /* \"#utility.yul\":5218:5241   */\n      swap1\n      pop\n        /* \"#utility.yul\":5289:5293   */\n      0x20\n        /* \"#utility.yul\":5281:5287   */\n      dup5\n        /* \"#utility.yul\":5277:5294   */\n      mul\n        /* \"#utility.yul\":5269:5275   */\n      dup4\n        /* \"#utility.yul\":5265:5295   */\n      add\n        /* \"#utility.yul\":5318:5321   */\n      dup6\n        /* \"#utility.yul\":5310:5316   */\n      dup2\n        /* \"#utility.yul\":5307:5322   */\n      gt\n        /* \"#utility.yul\":5304:5426   */\n      iszero\n      tag_188\n      jumpi\n        /* \"#utility.yul\":5337:5416   */\n      tag_189\n      tag_110\n      jump\t// in\n    tag_189:\n        /* \"#utility.yul\":5304:5426   */\n    tag_188:\n        /* \"#utility.yul\":5452:5458   */\n      dup4\n        /* \"#utility.yul\":5435:5655   */\n    tag_190:\n        /* \"#utility.yul\":5469:5475   */\n      dup2\n        /* \"#utility.yul\":5464:5467   */\n      dup2\n        /* \"#utility.yul\":5461:5476   */\n      lt\n        /* \"#utility.yul\":5435:5655   */\n      iszero\n      tag_192\n      jumpi\n        /* \"#utility.yul\":5544:5547   */\n      dup1\n        /* \"#utility.yul\":5573:5610   */\n      tag_193\n        /* \"#utility.yul\":5606:5609   */\n      dup9\n        /* \"#utility.yul\":5594:5604   */\n      dup3\n        /* \"#utility.yul\":5573:5610   */\n      tag_92\n      jump\t// in\n    tag_193:\n        /* \"#utility.yul\":5568:5571   */\n      dup5\n        /* \"#utility.yul\":5561:5611   */\n      mstore\n        /* \"#utility.yul\":5640:5644   */\n      0x20\n        /* \"#utility.yul\":5635:5638   */\n      dup5\n        /* \"#utility.yul\":5631:5645   */\n      add\n        /* \"#utility.yul\":5624:5645   */\n      swap4\n      pop\n        /* \"#utility.yul\":5511:5655   */\n      pop\n        /* \"#utility.yul\":5495:5499   */\n      0x20\n        /* \"#utility.yul\":5490:5493   */\n      dup2\n        /* \"#utility.yul\":5486:5500   */\n      add\n        /* \"#utility.yul\":5479:5500   */\n      swap1\n      pop\n        /* \"#utility.yul\":5435:5655   */\n      jump(tag_190)\n    tag_192:\n        /* \"#utility.yul\":5439:5460   */\n      pop\n        /* \"#utility.yul\":5053:5661   */\n      pop\n      pop\n        /* \"#utility.yul\":4951:5661   */\n      swap4\n      swap3\n      pop\n      pop\n      pop\n      jump\t// out\n        /* \"#utility.yul\":5684:6054   */\n    tag_112:\n        /* \"#utility.yul\":5755:5760   */\n      0x00\n        /* \"#utility.yul\":5804:5807   */\n      dup3\n        /* \"#utility.yul\":5797:5801   */\n      0x1f\n        /* \"#utility.yul\":5789:5795   */\n      dup4\n        /* \"#utility.yul\":5785:5802   */\n      add\n        /* \"#utility.yul\":5781:5808   */\n      slt\n        /* \"#utility.yul\":5771:5893   */\n      tag_195\n      jumpi\n        /* \"#utility.yul\":5812:5891   */\n      tag_196\n      tag_99\n      jump\t// in\n    tag_196:\n        /* \"#utility.yul\":5771:5893   */\n    tag_195:\n        /* \"#utility.yul\":5929:5935   */\n      dup2\n        /* \"#utility.yul\":5916:5936   */\n      calldataload\n        /* \"#utility.yul\":5954:6048   */\n      tag_197\n        /* \"#utility.yul\":6044:6047   */\n      dup5\n        /* \"#utility.yul\":6036:6042   */\n      dup3\n        /* \"#utility.yul\":6029:6033   */\n      0x20\n        /* \"#utility.yul\":6021:6027   */\n      dup7\n        /* \"#utility.yul\":6017:6034   */\n      add\n        /* \"#utility.yul\":5954:6048   */\n      tag_111\n      jump\t// in\n    tag_197:\n        /* \"#utility.yul\":5945:6048   */\n      swap2\n      pop\n        /* \"#utility.yul\":5761:6054   */\n      pop\n        /* \"#utility.yul\":5684:6054   */\n      swap3\n      swap2\n      pop\n      pop\n      jump\t// out\n        /* \"#utility.yul\":6060:6371   */\n    tag_113:\n        /* \"#utility.yul\":6137:6141   */\n      0x00\n        /* \"#utility.yul\":6227:6245   */\n      0xffffffffffffffff\n        /* \"#utility.yul\":6219:6225   */\n      dup3\n        /* \"#utility.yul\":6216:6246   */\n      gt\n        /* \"#utility.yul\":6213:6269   */\n      iszero\n      tag_199\n      jumpi\n        /* \"#utility.yul\":6249:6267   */\n      tag_200\n      tag_102\n      jump\t// in\n    tag_200:\n        /* \"#utility.yul\":6213:6269   */\n    tag_199:\n        /* \"#utility.yul\":6299:6303   */\n      0x20\n        /* \"#utility.yul\":6291:6297   */\n      dup3\n        /* \"#utility.yul\":6287:6304   */\n      mul\n        /* \"#utility.yul\":6279:6304   */\n      swap1\n      pop\n        /* \"#utility.yul\":6359:6363   */\n      0x20\n        /* \"#utility.yul\":6353:6357   */\n      dup2\n        /* \"#utility.yul\":6349:6364   */\n      add\n        /* \"#utility.yul\":6341:6364   */\n      swap1\n      pop\n        /* \"#utility.yul\":6060:6371   */\n      swap2\n      swap1\n      pop\n      jump\t// out\n        /* \"#utility.yul\":6377:6473   */\n    tag_114:\n        /* \"#utility.yul\":6414:6421   */\n      0x00\n        /* \"#utility.yul\":6443:6467   */\n      tag_202\n        /* \"#utility.yul\":6461:6466   */\n      dup3\n        /* \"#utility.yul\":6443:6467   */\n      tag_93\n      jump\t// in\n    tag_202:\n        /* \"#utility.yul\":6432:6467   */\n      swap1\n      pop\n        /* \"#utility.yul\":6377:6473   */\n      swap2\n      swap1\n      pop\n      jump\t// out\n        /* \"#utility.yul\":6479:6601   */\n    tag_115:\n        /* \"#utility.yul\":6552:6576   */\n      tag_204\n        /* \"#utility.yul\":6570:6575   */\n      dup2\n        /* \"#utility.yul\":6552:6576   */\n      tag_114\n      jump\t// in\n    tag_204:\n        /* \"#utility.yul\":6545:6550   */\n      dup2\n        /* \"#utility.yul\":6542:6577   */\n      eq\n        /* \"#utility.yul\":6532:6595   */\n      tag_205\n      jumpi\n        /* \"#utility.yul\":6591:6592   */\n      0x00\n        /* \"#utility.yul\":6588:6589   */\n      dup1\n        /* \"#utility.yul\":6581:6593   */\n      revert\n        /* \"#utility.yul\":6532:6595   */\n    tag_205:\n        /* \"#utility.yul\":6479:6601   */\n      pop\n      jump\t// out\n        /* \"#utility.yul\":6607:6746   */\n    tag_116:\n        /* \"#utility.yul\":6653:6658   */\n      0x00\n        /* \"#utility.yul\":6691:6697   */\n      dup2\n        /* \"#utility.yul\":6678:6698   */\n      calldataload\n        /* \"#utility.yul\":6669:6698   */\n      swap1\n      pop\n        /* \"#utility.yul\":6707:6740   */\n      tag_207\n        /* \"#utility.yul\":6734:6739   */\n      dup2\n        /* \"#utility.yul\":6707:6740   */\n      tag_115\n      jump\t// in\n    tag_207:\n        /* \"#utility.yul\":6607:6746   */\n      swap3\n      swap2\n      pop\n      pop\n      jump\t// out\n        /* \"#utility.yul\":6769:7479   */\n    tag_117:\n        /* \"#utility.yul\":6865:6870   */\n      0x00\n        /* \"#utility.yul\":6890:6971   */\n      tag_209\n        /* \"#utility.yul\":6906:6970   */\n      tag_210\n        /* \"#utility.yul\":6963:6969   */\n      dup5\n        /* \"#utility.yul\":6906:6970   */\n      tag_113\n      jump\t// in\n    tag_210:\n        /* \"#utility.yul\":6890:6971   */\n      tag_104\n      jump\t// in\n    tag_209:\n        /* \"#utility.yul\":6881:6971   */\n      swap1\n      pop\n        /* \"#utility.yul\":6991:6996   */\n      dup1\n        /* \"#utility.yul\":7020:7026   */\n      dup4\n        /* \"#utility.yul\":7013:7018   */\n      dup3\n        /* \"#utility.yul\":7006:7027   */\n      mstore\n        /* \"#utility.yul\":7054:7058   */\n      0x20\n        /* \"#utility.yul\":7047:7052   */\n      dup3\n        /* \"#utility.yul\":7043:7059   */\n      add\n        /* \"#utility.yul\":7036:7059   */\n      swap1\n      pop\n        /* \"#utility.yul\":7107:7111   */\n      0x20\n        /* \"#utility.yul\":7099:7105   */\n      dup5\n        /* \"#utility.yul\":7095:7112   */\n      mul\n        /* \"#utility.yul\":7087:7093   */\n      dup4\n        /* \"#utility.yul\":7083:7113   */\n      add\n        /* \"#utility.yul\":7136:7139   */\n      dup6\n        /* \"#utility.yul\":7128:7134   */\n      dup2\n        /* \"#utility.yul\":7125:7140   */\n      gt\n        /* \"#utility.yul\":7122:7244   */\n      iszero\n      tag_211\n      jumpi\n        /* \"#utility.yul\":7155:7234   */\n      tag_212\n      tag_110\n      jump\t// in\n    tag_212:\n        /* \"#utility.yul\":7122:7244   */\n    tag_211:\n        /* \"#utility.yul\":7270:7276   */\n      dup4\n        /* \"#utility.yul\":7253:7473   */\n    tag_213:\n        /* \"#utility.yul\":7287:7293   */\n      dup2\n        /* \"#utility.yul\":7282:7285   */\n      dup2\n        /* \"#utility.yul\":7279:7294   */\n      lt\n        /* \"#utility.yul\":7253:7473   */\n      iszero\n      tag_215\n      jumpi\n        /* \"#utility.yul\":7362:7365   */\n      dup1\n        /* \"#utility.yul\":7391:7428   */\n      tag_216\n        /* \"#utility.yul\":7424:7427   */\n      dup9\n        /* \"#utility.yul\":7412:7422   */\n      dup3\n        /* \"#utility.yul\":7391:7428   */\n      tag_116\n      jump\t// in\n    tag_216:\n        /* \"#utility.yul\":7386:7389   */\n      dup5\n        /* \"#utility.yul\":7379:7429   */\n      mstore\n        /* \"#utility.yul\":7458:7462   */\n      0x20\n        /* \"#utility.yul\":7453:7456   */\n      dup5\n        /* \"#utility.yul\":7449:7463   */\n      add\n        /* \"#utility.yul\":7442:7463   */\n      swap4\n      pop\n        /* \"#utility.yul\":7329:7473   */\n      pop\n        /* \"#utility.yul\":7313:7317   */\n      0x20\n        /* \"#utility.yul\":7308:7311   */\n      dup2\n        /* \"#utility.yul\":7304:7318   */\n      add\n        /* \"#utility.yul\":7297:7318   */\n      swap1\n      pop\n        /* \"#utility.yul\":7253:7473   */\n      jump(tag_213)\n    tag_215:\n        /* \"#utility.yul\":7257:7278   */\n      pop\n        /* \"#utility.yul\":6871:7479   */\n      pop\n      pop\n        /* \"#utility.yul\":6769:7479   */\n      swap4\n      swap3\n      pop\n      pop\n      pop\n      jump\t// out\n        /* \"#utility.yul\":7502:7872   */\n    tag_118:\n        /* \"#utility.yul\":7573:7578   */\n      0x00\n        /* \"#utility.yul\":7622:7625   */\n      dup3\n        /* \"#utility.yul\":7615:7619   */\n      0x1f\n        /* \"#utility.yul\":7607:7613   */\n      dup4\n        /* \"#utility.yul\":7603:7620   */\n      add\n        /* \"#utility.yul\":7599:7626   */\n      slt\n        /* \"#utility.yul\":7589:7711   */\n      tag_218\n      jumpi\n        /* \"#utility.yul\":7630:7709   */\n      tag_219\n      tag_99\n      jump\t// in\n    tag_219:\n        /* \"#utility.yul\":7589:7711   */\n    tag_218:\n        /* \"#utility.yul\":7747:7753   */\n      dup2\n        /* \"#utility.yul\":7734:7754   */\n      calldataload\n        /* \"#utility.yul\":7772:7866   */\n      tag_220\n        /* \"#utility.yul\":7862:7865   */\n      dup5\n        /* \"#utility.yul\":7854:7860   */\n      dup3\n        /* \"#utility.yul\":7847:7851   */\n      0x20\n        /* \"#utility.yul\":7839:7845   */\n      dup7\n        /* \"#utility.yul\":7835:7852   */\n      add\n        /* \"#utility.yul\":7772:7866   */\n      tag_117\n      jump\t// in\n    tag_220:\n        /* \"#utility.yul\":7763:7866   */\n      swap2\n      pop\n        /* \"#utility.yul\":7579:7872   */\n      pop\n        /* \"#utility.yul\":7502:7872   */\n      swap3\n      swap2\n      pop\n      pop\n      jump\t// out\n        /* \"#utility.yul\":7878:10247   */\n    tag_22:\n        /* \"#utility.yul\":8110:8116   */\n      0x00\n        /* \"#utility.yul\":8118:8124   */\n      dup1\n        /* \"#utility.yul\":8126:8132   */\n      0x00\n        /* \"#utility.yul\":8134:8140   */\n      dup1\n        /* \"#utility.yul\":8142:8148   */\n      0x00\n        /* \"#utility.yul\":8150:8156   */\n      dup1\n        /* \"#utility.yul\":8158:8164   */\n      0x00\n        /* \"#utility.yul\":8166:8172   */\n      dup1\n        /* \"#utility.yul\":8215:8218   */\n      0x0100\n        /* \"#utility.yul\":8203:8212   */\n      dup10\n        /* \"#utility.yul\":8194:8201   */\n      dup12\n        /* \"#utility.yul\":8190:8213   */\n      sub\n        /* \"#utility.yul\":8186:8219   */\n      slt\n        /* \"#utility.yul\":8183:8303   */\n      iszero\n      tag_222\n      jumpi\n        /* \"#utility.yul\":8222:8301   */\n      tag_223\n      tag_88\n      jump\t// in\n    tag_223:\n        /* \"#utility.yul\":8183:8303   */\n    tag_222:\n        /* \"#utility.yul\":8370:8371   */\n      0x00\n        /* \"#utility.yul\":8359:8368   */\n      dup10\n        /* \"#utility.yul\":8355:8372   */\n      add\n        /* \"#utility.yul\":8342:8373   */\n      calldataload\n        /* \"#utility.yul\":8400:8418   */\n      0xffffffffffffffff\n        /* \"#utility.yul\":8392:8398   */\n      dup2\n        /* \"#utility.yul\":8389:8419   */\n      gt\n        /* \"#utility.yul\":8386:8503   */\n      iszero\n      tag_224\n      jumpi\n        /* \"#utility.yul\":8422:8501   */\n      tag_225\n      tag_89\n      jump\t// in\n    tag_225:\n        /* \"#utility.yul\":8386:8503   */\n    tag_224:\n        /* \"#utility.yul\":8527:8590   */\n      tag_226\n        /* \"#utility.yul\":8582:8589   */\n      dup12\n        /* \"#utility.yul\":8573:8579   */\n      dup3\n        /* \"#utility.yul\":8562:8571   */\n      dup13\n        /* \"#utility.yul\":8558:8580   */\n      add\n        /* \"#utility.yul\":8527:8590   */\n      tag_108\n      jump\t// in\n    tag_226:\n        /* \"#utility.yul\":8517:8590   */\n      swap9\n      pop\n        /* \"#utility.yul\":8313:8600   */\n      pop\n        /* \"#utility.yul\":8639:8641   */\n      0x20\n        /* \"#utility.yul\":8665:8718   */\n      tag_227\n        /* \"#utility.yul\":8710:8717   */\n      dup12\n        /* \"#utility.yul\":8701:8707   */\n      dup3\n        /* \"#utility.yul\":8690:8699   */\n      dup13\n        /* \"#utility.yul\":8686:8708   */\n      add\n        /* \"#utility.yul\":8665:8718   */\n      tag_92\n      jump\t// in\n    tag_227:\n        /* \"#utility.yul\":8655:8718   */\n      swap8\n      pop\n        /* \"#utility.yul\":8610:8728   */\n      pop\n        /* \"#utility.yul\":8767:8769   */\n      0x40\n        /* \"#utility.yul\":8793:8846   */\n      tag_228\n        /* \"#utility.yul\":8838:8845   */\n      dup12\n        /* \"#utility.yul\":8829:8835   */\n      dup3\n        /* \"#utility.yul\":8818:8827   */\n      dup13\n        /* \"#utility.yul\":8814:8836   */\n      add\n        /* \"#utility.yul\":8793:8846   */\n      tag_92\n      jump\t// in\n    tag_228:\n        /* \"#utility.yul\":8783:8846   */\n      swap7\n      pop\n        /* \"#utility.yul\":8738:8856   */\n      pop\n        /* \"#utility.yul\":8895:8897   */\n      0x60\n        /* \"#utility.yul\":8921:8974   */\n      tag_229\n        /* \"#utility.yul\":8966:8973   */\n      dup12\n        /* \"#utility.yul\":8957:8963   */\n      dup3\n        /* \"#utility.yul\":8946:8955   */\n      dup13\n        /* \"#utility.yul\":8942:8964   */\n      add\n        /* \"#utility.yul\":8921:8974   */\n      tag_92\n      jump\t// in\n    tag_229:\n        /* \"#utility.yul\":8911:8974   */\n      swap6\n      pop\n        /* \"#utility.yul\":8866:8984   */\n      pop\n        /* \"#utility.yul\":9051:9054   */\n      0x80\n        /* \"#utility.yul\":9040:9049   */\n      dup10\n        /* \"#utility.yul\":9036:9055   */\n      add\n        /* \"#utility.yul\":9023:9056   */\n      calldataload\n        /* \"#utility.yul\":9083:9101   */\n      0xffffffffffffffff\n        /* \"#utility.yul\":9075:9081   */\n      dup2\n        /* \"#utility.yul\":9072:9102   */\n      gt\n        /* \"#utility.yul\":9069:9186   */\n      iszero\n      tag_230\n      jumpi\n        /* \"#utility.yul\":9105:9184   */\n      tag_231\n      tag_89\n      jump\t// in\n    tag_231:\n        /* \"#utility.yul\":9069:9186   */\n    tag_230:\n        /* \"#utility.yul\":9210:9288   */\n      tag_232\n        /* \"#utility.yul\":9280:9287   */\n      dup12\n        /* \"#utility.yul\":9271:9277   */\n      dup3\n        /* \"#utility.yul\":9260:9269   */\n      dup13\n        /* \"#utility.yul\":9256:9278   */\n      add\n        /* \"#utility.yul\":9210:9288   */\n      tag_112\n      jump\t// in\n    tag_232:\n        /* \"#utility.yul\":9200:9288   */\n      swap5\n      pop\n        /* \"#utility.yul\":8994:9298   */\n      pop\n        /* \"#utility.yul\":9365:9368   */\n      0xa0\n        /* \"#utility.yul\":9354:9363   */\n      dup10\n        /* \"#utility.yul\":9350:9369   */\n      add\n        /* \"#utility.yul\":9337:9370   */\n      calldataload\n        /* \"#utility.yul\":9397:9415   */\n      0xffffffffffffffff\n        /* \"#utility.yul\":9389:9395   */\n      dup2\n        /* \"#utility.yul\":9386:9416   */\n      gt\n        /* \"#utility.yul\":9383:9500   */\n      iszero\n      tag_233\n      jumpi\n        /* \"#utility.yul\":9419:9498   */\n      tag_234\n      tag_89\n      jump\t// in\n    tag_234:\n        /* \"#utility.yul\":9383:9500   */\n    tag_233:\n        /* \"#utility.yul\":9524:9602   */\n      tag_235\n        /* \"#utility.yul\":9594:9601   */\n      dup12\n        /* \"#utility.yul\":9585:9591   */\n      dup3\n        /* \"#utility.yul\":9574:9583   */\n      dup13\n        /* \"#utility.yul\":9570:9592   */\n      add\n        /* \"#utility.yul\":9524:9602   */\n      tag_118\n      jump\t// in\n    tag_235:\n        /* \"#utility.yul\":9514:9602   */\n      swap4\n      pop\n        /* \"#utility.yul\":9308:9612   */\n      pop\n        /* \"#utility.yul\":9679:9682   */\n      0xc0\n        /* \"#utility.yul\":9668:9677   */\n      dup10\n        /* \"#utility.yul\":9664:9683   */\n      add\n        /* \"#utility.yul\":9651:9684   */\n      calldataload\n        /* \"#utility.yul\":9711:9729   */\n      0xffffffffffffffff\n        /* \"#utility.yul\":9703:9709   */\n      dup2\n        /* \"#utility.yul\":9700:9730   */\n      gt\n        /* \"#utility.yul\":9697:9814   */\n      iszero\n      tag_236\n      jumpi\n        /* \"#utility.yul\":9733:9812   */\n      tag_237\n      tag_89\n      jump\t// in\n    tag_237:\n        /* \"#utility.yul\":9697:9814   */\n    tag_236:\n        /* \"#utility.yul\":9838:9916   */\n      tag_238\n        /* \"#utility.yul\":9908:9915   */\n      dup12\n        /* \"#utility.yul\":9899:9905   */\n      dup3\n        /* \"#utility.yul\":9888:9897   */\n      dup13\n        /* \"#utility.yul\":9884:9906   */\n      add\n        /* \"#utility.yul\":9838:9916   */\n      tag_112\n      jump\t// in\n    tag_238:\n        /* \"#utility.yul\":9828:9916   */\n      swap3\n      pop\n        /* \"#utility.yul\":9622:9926   */\n      pop\n        /* \"#utility.yul\":9993:9996   */\n      0xe0\n        /* \"#utility.yul\":9982:9991   */\n      dup10\n        /* \"#utility.yul\":9978:9997   */\n      add\n        /* \"#utility.yul\":9965:9998   */\n      calldataload\n        /* \"#utility.yul\":10025:10043   */\n      0xffffffffffffffff\n        /* \"#utility.yul\":10017:10023   */\n      dup2\n        /* \"#utility.yul\":10014:10044   */\n      gt\n        /* \"#utility.yul\":10011:10128   */\n      iszero\n      tag_239\n      jumpi\n        /* \"#utility.yul\":10047:10126   */\n      tag_240\n      tag_89\n      jump\t// in\n    tag_240:\n        /* \"#utility.yul\":10011:10128   */\n    tag_239:\n        /* \"#utility.yul\":10152:10230   */\n      tag_241\n        /* \"#utility.yul\":10222:10229   */\n      dup12\n        /* \"#utility.yul\":10213:10219   */\n      dup3\n        /* \"#utility.yul\":10202:10211   */\n      dup13\n        /* \"#utility.yul\":10198:10220   */\n      add\n        /* \"#utility.yul\":10152:10230   */\n      tag_112\n      jump\t// in\n    tag_241:\n        /* \"#utility.yul\":10142:10230   */\n      swap2\n      pop\n        /* \"#utility.yul\":9936:10240   */\n      pop\n        /* \"#utility.yul\":7878:10247   */\n      swap3\n      swap6\n      swap9\n      pop\n      swap3\n      swap6\n      swap9\n      swap1\n      swap4\n      swap7\n      pop\n      jump\t// out\n        /* \"#utility.yul\":10253:10371   */\n    tag_119:\n        /* \"#utility.yul\":10340:10364   */\n      tag_243\n        /* \"#utility.yul\":10358:10363   */\n      dup2\n        /* \"#utility.yul\":10340:10364   */\n      tag_90\n      jump\t// in\n    tag_243:\n        /* \"#utility.yul\":10335:10338   */\n      dup3\n        /* \"#utility.yul\":10328:10365   */\n      mstore\n        /* \"#utility.yul\":10253:10371   */\n      pop\n      pop\n      jump\t// out\n        /* \"#utility.yul\":10377:10599   */\n    tag_25:\n        /* \"#utility.yul\":10470:10474   */\n      0x00\n        /* \"#utility.yul\":10508:10510   */\n      0x20\n        /* \"#utility.yul\":10497:10506   */\n      dup3\n        /* \"#utility.yul\":10493:10511   */\n      add\n        /* \"#utility.yul\":10485:10511   */\n      swap1\n      pop\n        /* \"#utility.yul\":10521:10592   */\n      tag_245\n        /* \"#utility.yul\":10589:10590   */\n      0x00\n        /* \"#utility.yul\":10578:10587   */\n      dup4\n        /* \"#utility.yul\":10574:10591   */\n      add\n        /* \"#utility.yul\":10565:10571   */\n      dup5\n        /* \"#utility.yul\":10521:10592   */\n      tag_119\n      jump\t// in\n    tag_245:\n        /* \"#utility.yul\":10377:10599   */\n      swap3\n      swap2\n      pop\n      pop\n      jump\t// out\n        /* \"#utility.yul\":10605:10934   */\n    tag_29:\n        /* \"#utility.yul\":10664:10670   */\n      0x00\n        /* \"#utility.yul\":10713:10715   */\n      0x20\n        /* \"#utility.yul\":10701:10710   */\n      dup3\n        /* \"#utility.yul\":10692:10699   */\n      dup5\n        /* \"#utility.yul\":10688:10711   */\n      sub\n        /* \"#utility.yul\":10684:10716   */\n      slt\n        /* \"#utility.yul\":10681:10800   */\n      iszero\n      tag_247\n      jumpi\n        /* \"#utility.yul\":10719:10798   */\n      tag_248\n      tag_88\n      jump\t// in\n    tag_248:\n        /* \"#utility.yul\":10681:10800   */\n    tag_247:\n        /* \"#utility.yul\":10839:10840   */\n      0x00\n        /* \"#utility.yul\":10864:10917   */\n      tag_249\n        /* \"#utility.yul\":10909:10916   */\n      dup5\n        /* \"#utility.yul\":10900:10906   */\n      dup3\n        /* \"#utility.yul\":10889:10898   */\n      dup6\n        /* \"#utility.yul\":10885:10907   */\n      add\n        /* \"#utility.yul\":10864:10917   */\n      tag_92\n      jump\t// in\n    tag_249:\n        /* \"#utility.yul\":10854:10917   */\n      swap2\n      pop\n        /* \"#utility.yul\":10810:10927   */\n      pop\n        /* \"#utility.yul\":10605:10934   */\n      swap3\n      swap2\n      pop\n      pop\n      jump\t// out\n        /* \"#utility.yul\":10940:11039   */\n    tag_120:\n        /* \"#utility.yul\":10992:10998   */\n      0x00\n        /* \"#utility.yul\":11026:11031   */\n      dup2\n        /* \"#utility.yul\":11020:11032   */\n      mload\n        /* \"#utility.yul\":11010:11032   */\n      swap1\n      pop\n        /* \"#utility.yul\":10940:11039   */\n      swap2\n      swap1\n      pop\n      jump\t// out\n        /* \"#utility.yul\":11045:11214   */\n    tag_121:\n        /* \"#utility.yul\":11129:11140   */\n      0x00\n        /* \"#utility.yul\":11163:11169   */\n      dup3\n        /* \"#utility.yul\":11158:11161   */\n      dup3\n        /* \"#utility.yul\":11151:11170   */\n      mstore\n        /* \"#utility.yul\":11203:11207   */\n      0x20\n        /* \"#utility.yul\":11198:11201   */\n      dup3\n        /* \"#utility.yul\":11194:11208   */\n      add\n        /* \"#utility.yul\":11179:11208   */\n      swap1\n      pop\n        /* \"#utility.yul\":11045:11214   */\n      swap3\n      swap2\n      pop\n      pop\n      jump\t// out\n        /* \"#utility.yul\":11220:11466   */\n    tag_122:\n        /* \"#utility.yul\":11301:11302   */\n      0x00\n        /* \"#utility.yul\":11311:11424   */\n    tag_253:\n        /* \"#utility.yul\":11325:11331   */\n      dup4\n        /* \"#utility.yul\":11322:11323   */\n      dup2\n        /* \"#utility.yul\":11319:11332   */\n      lt\n        /* \"#utility.yul\":11311:11424   */\n      iszero\n      tag_255\n      jumpi\n        /* \"#utility.yul\":11410:11411   */\n      dup1\n        /* \"#utility.yul\":11405:11408   */\n      dup3\n        /* \"#utility.yul\":11401:11412   */\n      add\n        /* \"#utility.yul\":11395:11413   */\n      mload\n        /* \"#utility.yul\":11391:11392   */\n      dup2\n        /* \"#utility.yul\":11386:11389   */\n      dup5\n        /* \"#utility.yul\":11382:11393   */\n      add\n        /* \"#utility.yul\":11375:11414   */\n      mstore\n        /* \"#utility.yul\":11347:11349   */\n      0x20\n        /* \"#utility.yul\":11344:11345   */\n      dup2\n        /* \"#utility.yul\":11340:11350   */\n      add\n        /* \"#utility.yul\":11335:11350   */\n      swap1\n      pop\n        /* \"#utility.yul\":11311:11424   */\n      jump(tag_253)\n    tag_255:\n        /* \"#utility.yul\":11458:11459   */\n      0x00\n        /* \"#utility.yul\":11449:11455   */\n      dup5\n        /* \"#utility.yul\":11444:11447   */\n      dup5\n        /* \"#utility.yul\":11440:11456   */\n      add\n        /* \"#utility.yul\":11433:11460   */\n      mstore\n        /* \"#utility.yul\":11282:11466   */\n      pop\n        /* \"#utility.yul\":11220:11466   */\n      pop\n      pop\n      pop\n      jump\t// out\n        /* \"#utility.yul\":11472:11849   */\n    tag_123:\n        /* \"#utility.yul\":11560:11563   */\n      0x00\n        /* \"#utility.yul\":11588:11627   */\n      tag_257\n        /* \"#utility.yul\":11621:11626   */\n      dup3\n        /* \"#utility.yul\":11588:11627   */\n      tag_120\n      jump\t// in\n    tag_257:\n        /* \"#utility.yul\":11643:11714   */\n      tag_258\n        /* \"#utility.yul\":11707:11713   */\n      dup2\n        /* \"#utility.yul\":11702:11705   */\n      dup6\n        /* \"#utility.yul\":11643:11714   */\n      tag_121\n      jump\t// in\n    tag_258:\n        /* \"#utility.yul\":11636:11714   */\n      swap4\n      pop\n        /* \"#utility.yul\":11723:11788   */\n      tag_259\n        /* \"#utility.yul\":11781:11787   */\n      dup2\n        /* \"#utility.yul\":11776:11779   */\n      dup6\n        /* \"#utility.yul\":11769:11773   */\n      0x20\n        /* \"#utility.yul\":11762:11767   */\n      dup7\n        /* \"#utility.yul\":11758:11774   */\n      add\n        /* \"#utility.yul\":11723:11788   */\n      tag_122\n      jump\t// in\n    tag_259:\n        /* \"#utility.yul\":11813:11842   */\n      tag_260\n        /* \"#utility.yul\":11835:11841   */\n      dup2\n        /* \"#utility.yul\":11813:11842   */\n      tag_101\n      jump\t// in\n    tag_260:\n        /* \"#utility.yul\":11808:11811   */\n      dup5\n        /* \"#utility.yul\":11804:11843   */\n      add\n        /* \"#utility.yul\":11797:11843   */\n      swap2\n      pop\n        /* \"#utility.yul\":11564:11849   */\n      pop\n        /* \"#utility.yul\":11472:11849   */\n      swap3\n      swap2\n      pop\n      pop\n      jump\t// out\n        /* \"#utility.yul\":11855:12499   */\n    tag_32:\n        /* \"#utility.yul\":12052:12056   */\n      0x00\n        /* \"#utility.yul\":12090:12093   */\n      0x80\n        /* \"#utility.yul\":12079:12088   */\n      dup3\n        /* \"#utility.yul\":12075:12094   */\n      add\n        /* \"#utility.yul\":12067:12094   */\n      swap1\n      pop\n        /* \"#utility.yul\":12140:12149   */\n      dup2\n        /* \"#utility.yul\":12134:12138   */\n      dup2\n        /* \"#utility.yul\":12130:12150   */\n      sub\n        /* \"#utility.yul\":12126:12127   */\n      0x00\n        /* \"#utility.yul\":12115:12124   */\n      dup4\n        /* \"#utility.yul\":12111:12128   */\n      add\n        /* \"#utility.yul\":12104:12151   */\n      mstore\n        /* \"#utility.yul\":12168:12246   */\n      tag_262\n        /* \"#utility.yul\":12241:12245   */\n      dup2\n        /* \"#utility.yul\":12232:12238   */\n      dup8\n        /* \"#utility.yul\":12168:12246   */\n      tag_123\n      jump\t// in\n    tag_262:\n        /* \"#utility.yul\":12160:12246   */\n      swap1\n      pop\n        /* \"#utility.yul\":12256:12328   */\n      tag_263\n        /* \"#utility.yul\":12324:12326   */\n      0x20\n        /* \"#utility.yul\":12313:12322   */\n      dup4\n        /* \"#utility.yul\":12309:12327   */\n      add\n        /* \"#utility.yul\":12300:12306   */\n      dup7\n        /* \"#utility.yul\":12256:12328   */\n      tag_119\n      jump\t// in\n    tag_263:\n        /* \"#utility.yul\":12338:12410   */\n      tag_264\n        /* \"#utility.yul\":12406:12408   */\n      0x40\n        /* \"#utility.yul\":12395:12404   */\n      dup4\n        /* \"#utility.yul\":12391:12409   */\n      add\n        /* \"#utility.yul\":12382:12388   */\n      dup6\n        /* \"#utility.yul\":12338:12410   */\n      tag_119\n      jump\t// in\n    tag_264:\n        /* \"#utility.yul\":12420:12492   */\n      tag_265\n        /* \"#utility.yul\":12488:12490   */\n      0x60\n        /* \"#utility.yul\":12477:12486   */\n      dup4\n        /* \"#utility.yul\":12473:12491   */\n      add\n        /* \"#utility.yul\":12464:12470   */\n      dup5\n        /* \"#utility.yul\":12420:12492   */\n      tag_119\n      jump\t// in\n    tag_265:\n        /* \"#utility.yul\":11855:12499   */\n      swap6\n      swap5\n      pop\n      pop\n      pop\n      pop\n      pop\n      jump\t// out\n        /* \"#utility.yul\":12505:12685   */\n    tag_124:\n        /* \"#utility.yul\":12553:12630   */\n      0x4e487b7100000000000000000000000000000000000000000000000000000000\n        /* \"#utility.yul\":12550:12551   */\n      0x00\n        /* \"#utility.yul\":12543:12631   */\n      mstore\n        /* \"#utility.yul\":12650:12654   */\n      0x11\n        /* \"#utility.yul\":12647:12648   */\n      0x04\n        /* \"#utility.yul\":12640:12655   */\n      mstore\n        /* \"#utility.yul\":12674:12678   */\n      0x24\n        /* \"#utility.yul\":12671:12672   */\n      0x00\n        /* \"#utility.yul\":12664:12679   */\n      revert\n        /* \"#utility.yul\":12691:12885   */\n    tag_48:\n        /* \"#utility.yul\":12731:12735   */\n      0x00\n        /* \"#utility.yul\":12751:12771   */\n      tag_268\n        /* \"#utility.yul\":12769:12770   */\n      dup3\n        /* \"#utility.yul\":12751:12771   */\n      tag_90\n      jump\t// in\n    tag_268:\n        /* \"#utility.yul\":12746:12771   */\n      swap2\n      pop\n        /* \"#utility.yul\":12785:12805   */\n      tag_269\n        /* \"#utility.yul\":12803:12804   */\n      dup4\n        /* \"#utility.yul\":12785:12805   */\n      tag_90\n      jump\t// in\n    tag_269:\n        /* \"#utility.yul\":12780:12805   */\n      swap3\n      pop\n        /* \"#utility.yul\":12829:12830   */\n      dup3\n        /* \"#utility.yul\":12826:12827   */\n      dup3\n        /* \"#utility.yul\":12822:12831   */\n      sub\n        /* \"#utility.yul\":12814:12831   */\n      swap1\n      pop\n        /* \"#utility.yul\":12853:12854   */\n      dup2\n        /* \"#utility.yul\":12847:12851   */\n      dup2\n        /* \"#utility.yul\":12844:12855   */\n      gt\n        /* \"#utility.yul\":12841:12878   */\n      iszero\n      tag_270\n      jumpi\n        /* \"#utility.yul\":12858:12876   */\n      tag_271\n      tag_124\n      jump\t// in\n    tag_271:\n        /* \"#utility.yul\":12841:12878   */\n    tag_270:\n        /* \"#utility.yul\":12691:12885   */\n      swap3\n      swap2\n      pop\n      pop\n      jump\t// out\n        /* \"#utility.yul\":12891:13124   */\n    tag_51:\n        /* \"#utility.yul\":12930:12933   */\n      0x00\n        /* \"#utility.yul\":12953:12977   */\n      tag_273\n        /* \"#utility.yul\":12971:12976   */\n      dup3\n        /* \"#utility.yul\":12953:12977   */\n      tag_90\n      jump\t// in\n    tag_273:\n        /* \"#utility.yul\":12944:12977   */\n      swap2\n      pop\n        /* \"#utility.yul\":12999:13065   */\n      0xffffffffffffffffffffffffffffffffffffffffffffffffffffffffffffffff\n        /* \"#utility.yul\":12992:12997   */\n      dup3\n        /* \"#utility.yul\":12989:13066   */\n      sub\n        /* \"#utility.yul\":12986:13089   */\n      tag_274\n      jumpi\n        /* \"#utility.yul\":13069:13087   */\n      tag_275\n      tag_124\n      jump\t// in\n    tag_275:\n        /* \"#utility.yul\":12986:13089   */\n    tag_274:\n        /* \"#utility.yul\":13116:13117   */\n      0x01\n        /* \"#utility.yul\":13109:13114   */\n      dup3\n        /* \"#utility.yul\":13105:13118   */\n      add\n        /* \"#utility.yul\":13098:13118   */\n      swap1\n      pop\n        /* \"#utility.yul\":12891:13124   */\n      swap2\n      swap1\n      pop\n      jump\t// out\n        /* \"#utility.yul\":13130:13310   */\n    tag_57:\n        /* \"#utility.yul\":13178:13255   */\n      0x4e487b7100000000000000000000000000000000000000000000000000000000\n        /* \"#utility.yul\":13175:13176   */\n      0x00\n        /* \"#utility.yul\":13168:13256   */\n      mstore\n        /* \"#utility.yul\":13275:13279   */\n      0x32\n        /* \"#utility.yul\":13272:13273   */\n      0x04\n        /* \"#utility.yul\":13265:13280   */\n      mstore\n        /* \"#utility.yul\":13299:13303   */\n      0x24\n        /* \"#utility.yul\":13296:13297   */\n      0x00\n        /* \"#utility.yul\":13289:13304   */\n      revert\n        /* \"#utility.yul\":13316:13648   */\n    tag_68:\n        /* \"#utility.yul\":13437:13441   */\n      0x00\n        /* \"#utility.yul\":13475:13477   */\n      0x40\n        /* \"#utility.yul\":13464:13473   */\n      dup3\n        /* \"#utility.yul\":13460:13478   */\n      add\n        /* \"#utility.yul\":13452:13478   */\n      swap1\n      pop\n        /* \"#utility.yul\":13488:13559   */\n      tag_278\n        /* \"#utility.yul\":13556:13557   */\n      0x00\n        /* \"#utility.yul\":13545:13554   */\n      dup4\n        /* \"#utility.yul\":13541:13558   */\n      add\n        /* \"#utility.yul\":13532:13538   */\n      dup6\n        /* \"#utility.yul\":13488:13559   */\n      tag_119\n      jump\t// in\n    tag_278:\n        /* \"#utility.yul\":13569:13641   */\n      tag_279\n        /* \"#utility.yul\":13637:13639   */\n      0x20\n        /* \"#utility.yul\":13626:13635   */\n      dup4\n        /* \"#utility.yul\":13622:13640   */\n      add\n        /* \"#utility.yul\":13613:13619   */\n      dup5\n        /* \"#utility.yul\":13569:13641   */\n      tag_119\n      jump\t// in\n    tag_279:\n        /* \"#utility.yul\":13316:13648   */\n      swap4\n      swap3\n      pop\n      pop\n      pop\n      jump\t// out\n        /* \"#utility.yul\":13654:13834   */\n    tag_125:\n        /* \"#utility.yul\":13702:13779   */\n      0x4e487b7100000000000000000000000000000000000000000000000000000000\n        /* \"#utility.yul\":13699:13700   */\n      0x00\n        /* \"#utility.yul\":13692:13780   */\n      mstore\n        /* \"#utility.yul\":13799:13803   */\n      0x22\n        /* \"#utility.yul\":13796:13797   */\n      0x04\n        /* \"#utility.yul\":13789:13804   */\n      mstore\n        /* \"#utility.yul\":13823:13827   */\n      0x24\n        /* \"#utility.yul\":13820:13821   */\n      0x00\n        /* \"#utility.yul\":13813:13828   */\n      revert\n        /* \"#utility.yul\":13840:14160   */\n    tag_80:\n        /* \"#utility.yul\":13884:13890   */\n      0x00\n        /* \"#utility.yul\":13921:13922   */\n      0x02\n        /* \"#utility.yul\":13915:13919   */\n      dup3\n        /* \"#utility.yul\":13911:13923   */\n      div\n        /* \"#utility.yul\":13901:13923   */\n      swap1\n      pop\n        /* \"#utility.yul\":13968:13969   */\n      0x01\n        /* \"#utility.yul\":13962:13966   */\n      dup3\n        /* \"#utility.yul\":13958:13970   */\n      and\n        /* \"#utility.yul\":13989:14007   */\n      dup1\n        /* \"#utility.yul\":13979:14060   */\n      tag_282\n      jumpi\n        /* \"#utility.yul\":14045:14049   */\n      0x7f\n        /* \"#utility.yul\":14037:14043   */\n      dup3\n        /* \"#utility.yul\":14033:14050   */\n      and\n        /* \"#utility.yul\":14023:14050   */\n      swap2\n      pop\n        /* \"#utility.yul\":13979:14060   */\n    tag_282:\n        /* \"#utility.yul\":14107:14109   */\n      0x20\n        /* \"#utility.yul\":14099:14105   */\n      dup3\n        /* \"#utility.yul\":14096:14110   */\n      lt\n        /* \"#utility.yul\":14076:14094   */\n      dup2\n        /* \"#utility.yul\":14073:14111   */\n      sub\n        /* \"#utility.yul\":14070:14154   */\n      tag_283\n      jumpi\n        /* \"#utility.yul\":14126:14144   */\n      tag_284\n      tag_125\n      jump\t// in\n    tag_284:\n        /* \"#utility.yul\":14070:14154   */\n    tag_283:\n        /* \"#utility.yul\":13891:14160   */\n      pop\n        /* \"#utility.yul\":13840:14160   */\n      swap2\n      swap1\n      pop\n      jump\t// out\n\n    auxdata: 0xa26469706673582212207fbd9aef70446d25b4ea0b9776f003482aa9eef1d8044f331dd4eb8cdc3a936a64736f6c63430008180033\n}\n",
				"bytecode": {
					"linkReferences": {},
					"object": "608060405234801561001057600080fd5b50604051610f42380380610f42833981810160405281019061003291906100dc565b80600260006101000a81548173ffffffffffffffffffffffffffffffffffffffff021916908373ffffffffffffffffffffffffffffffffffffffff16021790555050610109565b600080fd5b600073ffffffffffffffffffffffffffffffffffffffff82169050919050565b60006100a98261007e565b9050919050565b6100b98161009e565b81146100c457600080fd5b50565b6000815190506100d6816100b0565b92915050565b6000602082840312156100f2576100f1610079565b5b6000610100848285016100c7565b91505092915050565b610e2a806101186000396000f3fe6080604052600436106100705760003560e01c80637acc0b201161004e5780637acc0b20146100f9578063db34d12314610139578063e0f6ef8714610176578063e5b9ca80146101a157610070565b80630a423e3a14610075578063240f2ec01461009e578063253d01f1146100c9575b600080fd5b34801561008157600080fd5b5061009c60048036038101906100979190610644565b6101ca565b005b3480156100aa57600080fd5b506100b36101fa565b6040516100c09190610703565b60405180910390f35b6100e360048036038101906100de9190610a2d565b610220565b6040516100f09190610b7e565b60405180910390f35b34801561010557600080fd5b50610120600480360381019061011b9190610b99565b6104ff565b6040516101309493929190610c45565b60405180910390f35b34801561014557600080fd5b50610160600480360381019061015b9190610b99565b6105b7565b60405161016d9190610b7e565b60405180910390f35b34801561018257600080fd5b5061018b6105d6565b6040516101989190610b7e565b60405180910390f35b3480156101ad57600080fd5b506101c860048036038101906101c39190610644565b6105dc565b005b8060008084815260200190815260200160002060020160008282546101ef9190610cc0565b925050819055505050565b600260009054906101000a900473ffffffffffffffffffffffffffffffffffffffff1681565b60006001600081548092919061023590610cf4565b919050555060005b85518110156104ad576000806001548152602001908152602001600020600401604051806060016040528088848151811061027b5761027a610d3c565b5b6020026020010151815260200187848151811061029b5761029a610d3c565b5b602002602001015173ffffffffffffffffffffffffffffffffffffffff1681526020018684815181106102d1576102d0610d3c565b5b602002602001015181525090806001815401808255809150506001900390600052602060002090600302016000909190919091506000820151816000015560208201518160010160006101000a81548173ffffffffffffffffffffffffffffffffffffffff021916908373ffffffffffffffffffffffffffffffffffffffff160217905550604082015181600201555050600260009054906101000a900473ffffffffffffffffffffffffffffffffffffffff1673ffffffffffffffffffffffffffffffffffffffff16639405c78f8783815181106103b3576103b2610d3c565b5b60200260200101518584815181106103ce576103cd610d3c565b5b60200260200101516040518363ffffffff1660e01b81526004016103f3929190610d6b565b600060405180830381600087803b15801561040d57600080fd5b505af1158015610421573d6000803e3d6000fd5b5050505084818151811061043857610437610d3c565b5b602002602001015173ffffffffffffffffffffffffffffffffffffffff166108fc85838151811061046c5761046b610d3c565b5b60200260200101519081150290604051600060405180830381858888f1935050505015801561049f573d6000803e3d6000fd5b50808060010191505061023d565b506001547f1e9ea568bc9c12f61e1906e20d1fdd96d2d8487fe9c3d58fff2af8d15c7316cb8a898b8a6040516104e69493929190610c45565b60405180910390a2600154905098975050505050505050565b600060205280600052604060002060009150905080600001805461052290610dc3565b80601f016020809104026020016040519081016040528092919081815260200182805461054e90610dc3565b801561059b5780601f106105705761010080835404028352916020019161059b565b820191906000526020600020905b81548152906001019060200180831161057e57829003601f168201915b5050505050908060010154908060020154908060030154905084565b6000806000838152602001908152602001600020600201549050919050565b60015481565b80600080848152602001908152602001600020600301819055505050565b6000604051905090565b600080fd5b600080fd5b6000819050919050565b6106218161060e565b811461062c57600080fd5b50565b60008135905061063e81610618565b92915050565b6000806040838503121561065b5761065a610604565b5b60006106698582860161062f565b925050602061067a8582860161062f565b9150509250929050565b600073ffffffffffffffffffffffffffffffffffffffff82169050919050565b6000819050919050565b60006106c96106c46106bf84610684565b6106a4565b610684565b9050919050565b60006106db826106ae565b9050919050565b60006106ed826106d0565b9050919050565b6106fd816106e2565b82525050565b600060208201905061071860008301846106f4565b92915050565b600080fd5b600080fd5b6000601f19601f8301169050919050565b7f4e487b7100000000000000000000000000000000000000000000000000000000600052604160045260246000fd5b61077182610728565b810181811067ffffffffffffffff821117156107905761078f610739565b5b80604052505050565b60006107a36105fa565b90506107af8282610768565b919050565b600067ffffffffffffffff8211156107cf576107ce610739565b5b6107d882610728565b9050602081019050919050565b82818337600083830152505050565b6000610807610802846107b4565b610799565b90508281526020810184848401111561082357610822610723565b5b61082e8482856107e5565b509392505050565b600082601f83011261084b5761084a61071e565b5b813561085b8482602086016107f4565b91505092915050565b600067ffffffffffffffff82111561087f5761087e610739565b5b602082029050602081019050919050565b600080fd5b60006108a86108a384610864565b610799565b905080838252602082019050602084028301858111156108cb576108ca610890565b5b835b818110156108f457806108e0888261062f565b8452602084019350506020810190506108cd565b5050509392505050565b600082601f8301126109135761091261071e565b5b8135610923848260208601610895565b91505092915050565b600067ffffffffffffffff82111561094757610946610739565b5b602082029050602081019050919050565b600061096382610684565b9050919050565b61097381610958565b811461097e57600080fd5b50565b6000813590506109908161096a565b92915050565b60006109a96109a48461092c565b610799565b905080838252602082019050602084028301858111156109cc576109cb610890565b5b835b818110156109f557806109e18882610981565b8452602084019350506020810190506109ce565b5050509392505050565b600082601f830112610a1457610a1361071e565b5b8135610a24848260208601610996565b91505092915050565b600080600080600080600080610100898b031215610a4e57610a4d610604565b5b600089013567ffffffffffffffff811115610a6c57610a6b610609565b5b610a788b828c01610836565b9850506020610a898b828c0161062f565b9750506040610a9a8b828c0161062f565b9650506060610aab8b828c0161062f565b955050608089013567ffffffffffffffff811115610acc57610acb610609565b5b610ad88b828c016108fe565b94505060a089013567ffffffffffffffff811115610af957610af8610609565b5b610b058b828c016109ff565b93505060c089013567ffffffffffffffff811115610b2657610b25610609565b5b610b328b828c016108fe565b92505060e089013567ffffffffffffffff811115610b5357610b52610609565b5b610b5f8b828c016108fe565b9150509295985092959890939650565b610b788161060e565b82525050565b6000602082019050610b936000830184610b6f565b92915050565b600060208284031215610baf57610bae610604565b5b6000610bbd8482850161062f565b91505092915050565b600081519050919050565b600082825260208201905092915050565b60005b83811015610c00578082015181840152602081019050610be5565b60008484015250505050565b6000610c1782610bc6565b610c218185610bd1565b9350610c31818560208601610be2565b610c3a81610728565b840191505092915050565b60006080820190508181036000830152610c5f8187610c0c565b9050610c6e6020830186610b6f565b610c7b6040830185610b6f565b610c886060830184610b6f565b95945050505050565b7f4e487b7100000000000000000000000000000000000000000000000000000000600052601160045260246000fd5b6000610ccb8261060e565b9150610cd68361060e565b9250828203905081811115610cee57610ced610c91565b5b92915050565b6000610cff8261060e565b91507fffffffffffffffffffffffffffffffffffffffffffffffffffffffffffffffff8203610d3157610d30610c91565b5b600182019050919050565b7f4e487b7100000000000000000000000000000000000000000000000000000000600052603260045260246000fd5b6000604082019050610d806000830185610b6f565b610d8d6020830184610b6f565b9392505050565b7f4e487b7100000000000000000000000000000000000000000000000000000000600052602260045260246000fd5b60006002820490506001821680610ddb57607f821691505b602082108103610dee57610ded610d94565b5b5091905056fea26469706673582212207fbd9aef70446d25b4ea0b9776f003482aa9eef1d8044f331dd4eb8cdc3a936a64736f6c63430008180033",
					"opcodes": "PUSH1 0x80 PUSH1 0x40 MSTORE CALLVALUE DUP1 ISZERO PUSH2 0x10 JUMPI PUSH1 0x0 DUP1 REVERT JUMPDEST POP PUSH1 0x40 MLOAD PUSH2 0xF42 CODESIZE SUB DUP1 PUSH2 0xF42 DUP4 CODECOPY DUP2 DUP2 ADD PUSH1 0x40 MSTORE DUP2 ADD SWAP1 PUSH2 0x32 SWAP2 SWAP1 PUSH2 0xDC JUMP JUMPDEST DUP1 PUSH1 0x2 PUSH1 0x0 PUSH2 0x100 EXP DUP2 SLOAD DUP2 PUSH20 0xFFFFFFFFFFFFFFFFFFFFFFFFFFFFFFFFFFFFFFFF MUL NOT AND SWAP1 DUP4 PUSH20 0xFFFFFFFFFFFFFFFFFFFFFFFFFFFFFFFFFFFFFFFF AND MUL OR SWAP1 SSTORE POP POP PUSH2 0x109 JUMP JUMPDEST PUSH1 0x0 DUP1 REVERT JUMPDEST PUSH1 0x0 PUSH20 0xFFFFFFFFFFFFFFFFFFFFFFFFFFFFFFFFFFFFFFFF DUP3 AND SWAP1 POP SWAP2 SWAP1 POP JUMP JUMPDEST PUSH1 0x0 PUSH2 0xA9 DUP3 PUSH2 0x7E JUMP JUMPDEST SWAP1 POP SWAP2 SWAP1 POP JUMP JUMPDEST PUSH2 0xB9 DUP2 PUSH2 0x9E JUMP JUMPDEST DUP2 EQ PUSH2 0xC4 JUMPI PUSH1 0x0 DUP1 REVERT JUMPDEST POP JUMP JUMPDEST PUSH1 0x0 DUP2 MLOAD SWAP1 POP PUSH2 0xD6 DUP2 PUSH2 0xB0 JUMP JUMPDEST SWAP3 SWAP2 POP POP JUMP JUMPDEST PUSH1 0x0 PUSH1 0x20 DUP3 DUP5 SUB SLT ISZERO PUSH2 0xF2 JUMPI PUSH2 0xF1 PUSH2 0x79 JUMP JUMPDEST JUMPDEST PUSH1 0x0 PUSH2 0x100 DUP5 DUP3 DUP6 ADD PUSH2 0xC7 JUMP JUMPDEST SWAP2 POP POP SWAP3 SWAP2 POP POP JUMP JUMPDEST PUSH2 0xE2A DUP1 PUSH2 0x118 PUSH1 0x0 CODECOPY PUSH1 0x0 RETURN INVALID PUSH1 0x80 PUSH1 0x40 MSTORE PUSH1 0x4 CALLDATASIZE LT PUSH2 0x70 JUMPI PUSH1 0x0 CALLDATALOAD PUSH1 0xE0 SHR DUP1 PUSH4 0x7ACC0B20 GT PUSH2 0x4E JUMPI DUP1 PUSH4 0x7ACC0B20 EQ PUSH2 0xF9 JUMPI DUP1 PUSH4 0xDB34D123 EQ PUSH2 0x139 JUMPI DUP1 PUSH4 0xE0F6EF87 EQ PUSH2 0x176 JUMPI DUP1 PUSH4 0xE5B9CA80 EQ PUSH2 0x1A1 JUMPI PUSH2 0x70 JUMP JUMPDEST DUP1 PUSH4 0xA423E3A EQ PUSH2 0x75 JUMPI DUP1 PUSH4 0x240F2EC0 EQ PUSH2 0x9E JUMPI DUP1 PUSH4 0x253D01F1 EQ PUSH2 0xC9 JUMPI JUMPDEST PUSH1 0x0 DUP1 REVERT JUMPDEST CALLVALUE DUP1 ISZERO PUSH2 0x81 JUMPI PUSH1 0x0 DUP1 REVERT JUMPDEST POP PUSH2 0x9C PUSH1 0x4 DUP1 CALLDATASIZE SUB DUP2 ADD SWAP1 PUSH2 0x97 SWAP2 SWAP1 PUSH2 0x644 JUMP JUMPDEST PUSH2 0x1CA JUMP JUMPDEST STOP JUMPDEST CALLVALUE DUP1 ISZERO PUSH2 0xAA JUMPI PUSH1 0x0 DUP1 REVERT JUMPDEST POP PUSH2 0xB3 PUSH2 0x1FA JUMP JUMPDEST PUSH1 0x40 MLOAD PUSH2 0xC0 SWAP2 SWAP1 PUSH2 0x703 JUMP JUMPDEST PUSH1 0x40 MLOAD DUP1 SWAP2 SUB SWAP1 RETURN JUMPDEST PUSH2 0xE3 PUSH1 0x4 DUP1 CALLDATASIZE SUB DUP2 ADD SWAP1 PUSH2 0xDE SWAP2 SWAP1 PUSH2 0xA2D JUMP JUMPDEST PUSH2 0x220 JUMP JUMPDEST PUSH1 0x40 MLOAD PUSH2 0xF0 SWAP2 SWAP1 PUSH2 0xB7E JUMP JUMPDEST PUSH1 0x40 MLOAD DUP1 SWAP2 SUB SWAP1 RETURN JUMPDEST CALLVALUE DUP1 ISZERO PUSH2 0x105 JUMPI PUSH1 0x0 DUP1 REVERT JUMPDEST POP PUSH2 0x120 PUSH1 0x4 DUP1 CALLDATASIZE SUB DUP2 ADD SWAP1 PUSH2 0x11B SWAP2 SWAP1 PUSH2 0xB99 JUMP JUMPDEST PUSH2 0x4FF JUMP JUMPDEST PUSH1 0x40 MLOAD PUSH2 0x130 SWAP5 SWAP4 SWAP3 SWAP2 SWAP1 PUSH2 0xC45 JUMP JUMPDEST PUSH1 0x40 MLOAD DUP1 SWAP2 SUB SWAP1 RETURN JUMPDEST CALLVALUE DUP1 ISZERO PUSH2 0x145 JUMPI PUSH1 0x0 DUP1 REVERT JUMPDEST POP PUSH2 0x160 PUSH1 0x4 DUP1 CALLDATASIZE SUB DUP2 ADD SWAP1 PUSH2 0x15B SWAP2 SWAP1 PUSH2 0xB99 JUMP JUMPDEST PUSH2 0x5B7 JUMP JUMPDEST PUSH1 0x40 MLOAD PUSH2 0x16D SWAP2 SWAP1 PUSH2 0xB7E JUMP JUMPDEST PUSH1 0x40 MLOAD DUP1 SWAP2 SUB SWAP1 RETURN JUMPDEST CALLVALUE DUP1 ISZERO PUSH2 0x182 JUMPI PUSH1 0x0 DUP1 REVERT JUMPDEST POP PUSH2 0x18B PUSH2 0x5D6 JUMP JUMPDEST PUSH1 0x40 MLOAD PUSH2 0x198 SWAP2 SWAP1 PUSH2 0xB7E JUMP JUMPDEST PUSH1 0x40 MLOAD DUP1 SWAP2 SUB SWAP1 RETURN JUMPDEST CALLVALUE DUP1 ISZERO PUSH2 0x1AD JUMPI PUSH1 0x0 DUP1 REVERT JUMPDEST POP PUSH2 0x1C8 PUSH1 0x4 DUP1 CALLDATASIZE SUB DUP2 ADD SWAP1 PUSH2 0x1C3 SWAP2 SWAP1 PUSH2 0x644 JUMP JUMPDEST PUSH2 0x5DC JUMP JUMPDEST STOP JUMPDEST DUP1 PUSH1 0x0 DUP1 DUP5 DUP2 MSTORE PUSH1 0x20 ADD SWAP1 DUP2 MSTORE PUSH1 0x20 ADD PUSH1 0x0 KECCAK256 PUSH1 0x2 ADD PUSH1 0x0 DUP3 DUP3 SLOAD PUSH2 0x1EF SWAP2 SWAP1 PUSH2 0xCC0 JUMP JUMPDEST SWAP3 POP POP DUP2 SWAP1 SSTORE POP POP POP JUMP JUMPDEST PUSH1 0x2 PUSH1 0x0 SWAP1 SLOAD SWAP1 PUSH2 0x100 EXP SWAP1 DIV PUSH20 0xFFFFFFFFFFFFFFFFFFFFFFFFFFFFFFFFFFFFFFFF AND DUP2 JUMP JUMPDEST PUSH1 0x0 PUSH1 0x1 PUSH1 0x0 DUP2 SLOAD DUP1 SWAP3 SWAP2 SWAP1 PUSH2 0x235 SWAP1 PUSH2 0xCF4 JUMP JUMPDEST SWAP2 SWAP1 POP SSTORE POP PUSH1 0x0 JUMPDEST DUP6 MLOAD DUP2 LT ISZERO PUSH2 0x4AD JUMPI PUSH1 0x0 DUP1 PUSH1 0x1 SLOAD DUP2 MSTORE PUSH1 0x20 ADD SWAP1 DUP2 MSTORE PUSH1 0x20 ADD PUSH1 0x0 KECCAK256 PUSH1 0x4 ADD PUSH1 0x40 MLOAD DUP1 PUSH1 0x60 ADD PUSH1 0x40 MSTORE DUP1 DUP9 DUP5 DUP2 MLOAD DUP2 LT PUSH2 0x27B JUMPI PUSH2 0x27A PUSH2 0xD3C JUMP JUMPDEST JUMPDEST PUSH1 0x20 MUL PUSH1 0x20 ADD ADD MLOAD DUP2 MSTORE PUSH1 0x20 ADD DUP8 DUP5 DUP2 MLOAD DUP2 LT PUSH2 0x29B JUMPI PUSH2 0x29A PUSH2 0xD3C JUMP JUMPDEST JUMPDEST PUSH1 0x20 MUL PUSH1 0x20 ADD ADD MLOAD PUSH20 0xFFFFFFFFFFFFFFFFFFFFFFFFFFFFFFFFFFFFFFFF AND DUP2 MSTORE PUSH1 0x20 ADD DUP7 DUP5 DUP2 MLOAD DUP2 LT PUSH2 0x2D1 JUMPI PUSH2 0x2D0 PUSH2 0xD3C JUMP JUMPDEST JUMPDEST PUSH1 0x20 MUL PUSH1 0x20 ADD ADD MLOAD DUP2 MSTORE POP SWAP1 DUP1 PUSH1 0x1 DUP2 SLOAD ADD DUP1 DUP3 SSTORE DUP1 SWAP2 POP POP PUSH1 0x1 SWAP1 SUB SWAP1 PUSH1 0x0 MSTORE PUSH1 0x20 PUSH1 0x0 KECCAK256 SWAP1 PUSH1 0x3 MUL ADD PUSH1 0x0 SWAP1 SWAP2 SWAP1 SWAP2 SWAP1 SWAP2 POP PUSH1 0x0 DUP3 ADD MLOAD DUP2 PUSH1 0x0 ADD SSTORE PUSH1 0x20 DUP3 ADD MLOAD DUP2 PUSH1 0x1 ADD PUSH1 0x0 PUSH2 0x100 EXP DUP2 SLOAD DUP2 PUSH20 0xFFFFFFFFFFFFFFFFFFFFFFFFFFFFFFFFFFFFFFFF MUL NOT AND SWAP1 DUP4 PUSH20 0xFFFFFFFFFFFFFFFFFFFFFFFFFFFFFFFFFFFFFFFF AND MUL OR SWAP1 SSTORE POP PUSH1 0x40 DUP3 ADD MLOAD DUP2 PUSH1 0x2 ADD SSTORE POP POP PUSH1 0x2 PUSH1 0x0 SWAP1 SLOAD SWAP1 PUSH2 0x100 EXP SWAP1 DIV PUSH20 0xFFFFFFFFFFFFFFFFFFFFFFFFFFFFFFFFFFFFFFFF AND PUSH20 0xFFFFFFFFFFFFFFFFFFFFFFFFFFFFFFFFFFFFFFFF AND PUSH4 0x9405C78F DUP8 DUP4 DUP2 MLOAD DUP2 LT PUSH2 0x3B3 JUMPI PUSH2 0x3B2 PUSH2 0xD3C JUMP JUMPDEST JUMPDEST PUSH1 0x20 MUL PUSH1 0x20 ADD ADD MLOAD DUP6 DUP5 DUP2 MLOAD DUP2 LT PUSH2 0x3CE JUMPI PUSH2 0x3CD PUSH2 0xD3C JUMP JUMPDEST JUMPDEST PUSH1 0x20 MUL PUSH1 0x20 ADD ADD MLOAD PUSH1 0x40 MLOAD DUP4 PUSH4 0xFFFFFFFF AND PUSH1 0xE0 SHL DUP2 MSTORE PUSH1 0x4 ADD PUSH2 0x3F3 SWAP3 SWAP2 SWAP1 PUSH2 0xD6B JUMP JUMPDEST PUSH1 0x0 PUSH1 0x40 MLOAD DUP1 DUP4 SUB DUP2 PUSH1 0x0 DUP8 DUP1 EXTCODESIZE ISZERO DUP1 ISZERO PUSH2 0x40D JUMPI PUSH1 0x0 DUP1 REVERT JUMPDEST POP GAS CALL ISZERO DUP1 ISZERO PUSH2 0x421 JUMPI RETURNDATASIZE PUSH1 0x0 DUP1 RETURNDATACOPY RETURNDATASIZE PUSH1 0x0 REVERT JUMPDEST POP POP POP POP DUP5 DUP2 DUP2 MLOAD DUP2 LT PUSH2 0x438 JUMPI PUSH2 0x437 PUSH2 0xD3C JUMP JUMPDEST JUMPDEST PUSH1 0x20 MUL PUSH1 0x20 ADD ADD MLOAD PUSH20 0xFFFFFFFFFFFFFFFFFFFFFFFFFFFFFFFFFFFFFFFF AND PUSH2 0x8FC DUP6 DUP4 DUP2 MLOAD DUP2 LT PUSH2 0x46C JUMPI PUSH2 0x46B PUSH2 0xD3C JUMP JUMPDEST JUMPDEST PUSH1 0x20 MUL PUSH1 0x20 ADD ADD MLOAD SWAP1 DUP2 ISZERO MUL SWAP1 PUSH1 0x40 MLOAD PUSH1 0x0 PUSH1 0x40 MLOAD DUP1 DUP4 SUB DUP2 DUP6 DUP9 DUP9 CALL SWAP4 POP POP POP POP ISZERO DUP1 ISZERO PUSH2 0x49F JUMPI RETURNDATASIZE PUSH1 0x0 DUP1 RETURNDATACOPY RETURNDATASIZE PUSH1 0x0 REVERT JUMPDEST POP DUP1 DUP1 PUSH1 0x1 ADD SWAP2 POP POP PUSH2 0x23D JUMP JUMPDEST POP PUSH1 0x1 SLOAD PUSH32 0x1E9EA568BC9C12F61E1906E20D1FDD96D2D8487FE9C3D58FFF2AF8D15C7316CB DUP11 DUP10 DUP12 DUP11 PUSH1 0x40 MLOAD PUSH2 0x4E6 SWAP5 SWAP4 SWAP3 SWAP2 SWAP1 PUSH2 0xC45 JUMP JUMPDEST PUSH1 0x40 MLOAD DUP1 SWAP2 SUB SWAP1 LOG2 PUSH1 0x1 SLOAD SWAP1 POP SWAP9 SWAP8 POP POP POP POP POP POP POP POP JUMP JUMPDEST PUSH1 0x0 PUSH1 0x20 MSTORE DUP1 PUSH1 0x0 MSTORE PUSH1 0x40 PUSH1 0x0 KECCAK256 PUSH1 0x0 SWAP2 POP SWAP1 POP DUP1 PUSH1 0x0 ADD DUP1 SLOAD PUSH2 0x522 SWAP1 PUSH2 0xDC3 JUMP JUMPDEST DUP1 PUSH1 0x1F ADD PUSH1 0x20 DUP1 SWAP2 DIV MUL PUSH1 0x20 ADD PUSH1 0x40 MLOAD SWAP1 DUP2 ADD PUSH1 0x40 MSTORE DUP1 SWAP3 SWAP2 SWAP1 DUP2 DUP2 MSTORE PUSH1 0x20 ADD DUP3 DUP1 SLOAD PUSH2 0x54E SWAP1 PUSH2 0xDC3 JUMP JUMPDEST DUP1 ISZERO PUSH2 0x59B JUMPI DUP1 PUSH1 0x1F LT PUSH2 0x570 JUMPI PUSH2 0x100 DUP1 DUP4 SLOAD DIV MUL DUP4 MSTORE SWAP2 PUSH1 0x20 ADD SWAP2 PUSH2 0x59B JUMP JUMPDEST DUP3 ADD SWAP2 SWAP1 PUSH1 0x0 MSTORE PUSH1 0x20 PUSH1 0x0 KECCAK256 SWAP1 JUMPDEST DUP2 SLOAD DUP2 MSTORE SWAP1 PUSH1 0x1 ADD SWAP1 PUSH1 0x20 ADD DUP1 DUP4 GT PUSH2 0x57E JUMPI DUP3 SWAP1 SUB PUSH1 0x1F AND DUP3 ADD SWAP2 JUMPDEST POP POP POP POP POP SWAP1 DUP1 PUSH1 0x1 ADD SLOAD SWAP1 DUP1 PUSH1 0x2 ADD SLOAD SWAP1 DUP1 PUSH1 0x3 ADD SLOAD SWAP1 POP DUP5 JUMP JUMPDEST PUSH1 0x0 DUP1 PUSH1 0x0 DUP4 DUP2 MSTORE PUSH1 0x20 ADD SWAP1 DUP2 MSTORE PUSH1 0x20 ADD PUSH1 0x0 KECCAK256 PUSH1 0x2 ADD SLOAD SWAP1 POP SWAP2 SWAP1 POP JUMP JUMPDEST PUSH1 0x1 SLOAD DUP2 JUMP JUMPDEST DUP1 PUSH1 0x0 DUP1 DUP5 DUP2 MSTORE PUSH1 0x20 ADD SWAP1 DUP2 MSTORE PUSH1 0x20 ADD PUSH1 0x0 KECCAK256 PUSH1 0x3 ADD DUP2 SWAP1 SSTORE POP POP POP JUMP JUMPDEST PUSH1 0x0 PUSH1 0x40 MLOAD SWAP1 POP SWAP1 JUMP JUMPDEST PUSH1 0x0 DUP1 REVERT JUMPDEST PUSH1 0x0 DUP1 REVERT JUMPDEST PUSH1 0x0 DUP2 SWAP1 POP SWAP2 SWAP1 POP JUMP JUMPDEST PUSH2 0x621 DUP2 PUSH2 0x60E JUMP JUMPDEST DUP2 EQ PUSH2 0x62C JUMPI PUSH1 0x0 DUP1 REVERT JUMPDEST POP JUMP JUMPDEST PUSH1 0x0 DUP2 CALLDATALOAD SWAP1 POP PUSH2 0x63E DUP2 PUSH2 0x618 JUMP JUMPDEST SWAP3 SWAP2 POP POP JUMP JUMPDEST PUSH1 0x0 DUP1 PUSH1 0x40 DUP4 DUP6 SUB SLT ISZERO PUSH2 0x65B JUMPI PUSH2 0x65A PUSH2 0x604 JUMP JUMPDEST JUMPDEST PUSH1 0x0 PUSH2 0x669 DUP6 DUP3 DUP7 ADD PUSH2 0x62F JUMP JUMPDEST SWAP3 POP POP PUSH1 0x20 PUSH2 0x67A DUP6 DUP3 DUP7 ADD PUSH2 0x62F JUMP JUMPDEST SWAP2 POP POP SWAP3 POP SWAP3 SWAP1 POP JUMP JUMPDEST PUSH1 0x0 PUSH20 0xFFFFFFFFFFFFFFFFFFFFFFFFFFFFFFFFFFFFFFFF DUP3 AND SWAP1 POP SWAP2 SWAP1 POP JUMP JUMPDEST PUSH1 0x0 DUP2 SWAP1 POP SWAP2 SWAP1 POP JUMP JUMPDEST PUSH1 0x0 PUSH2 0x6C9 PUSH2 0x6C4 PUSH2 0x6BF DUP5 PUSH2 0x684 JUMP JUMPDEST PUSH2 0x6A4 JUMP JUMPDEST PUSH2 0x684 JUMP JUMPDEST SWAP1 POP SWAP2 SWAP1 POP JUMP JUMPDEST PUSH1 0x0 PUSH2 0x6DB DUP3 PUSH2 0x6AE JUMP JUMPDEST SWAP1 POP SWAP2 SWAP1 POP JUMP JUMPDEST PUSH1 0x0 PUSH2 0x6ED DUP3 PUSH2 0x6D0 JUMP JUMPDEST SWAP1 POP SWAP2 SWAP1 POP JUMP JUMPDEST PUSH2 0x6FD DUP2 PUSH2 0x6E2 JUMP JUMPDEST DUP3 MSTORE POP POP JUMP JUMPDEST PUSH1 0x0 PUSH1 0x20 DUP3 ADD SWAP1 POP PUSH2 0x718 PUSH1 0x0 DUP4 ADD DUP5 PUSH2 0x6F4 JUMP JUMPDEST SWAP3 SWAP2 POP POP JUMP JUMPDEST PUSH1 0x0 DUP1 REVERT JUMPDEST PUSH1 0x0 DUP1 REVERT JUMPDEST PUSH1 0x0 PUSH1 0x1F NOT PUSH1 0x1F DUP4 ADD AND SWAP1 POP SWAP2 SWAP1 POP JUMP JUMPDEST PUSH32 0x4E487B7100000000000000000000000000000000000000000000000000000000 PUSH1 0x0 MSTORE PUSH1 0x41 PUSH1 0x4 MSTORE PUSH1 0x24 PUSH1 0x0 REVERT JUMPDEST PUSH2 0x771 DUP3 PUSH2 0x728 JUMP JUMPDEST DUP2 ADD DUP2 DUP2 LT PUSH8 0xFFFFFFFFFFFFFFFF DUP3 GT OR ISZERO PUSH2 0x790 JUMPI PUSH2 0x78F PUSH2 0x739 JUMP JUMPDEST JUMPDEST DUP1 PUSH1 0x40 MSTORE POP POP POP JUMP JUMPDEST PUSH1 0x0 PUSH2 0x7A3 PUSH2 0x5FA JUMP JUMPDEST SWAP1 POP PUSH2 0x7AF DUP3 DUP3 PUSH2 0x768 JUMP JUMPDEST SWAP2 SWAP1 POP JUMP JUMPDEST PUSH1 0x0 PUSH8 0xFFFFFFFFFFFFFFFF DUP3 GT ISZERO PUSH2 0x7CF JUMPI PUSH2 0x7CE PUSH2 0x739 JUMP JUMPDEST JUMPDEST PUSH2 0x7D8 DUP3 PUSH2 0x728 JUMP JUMPDEST SWAP1 POP PUSH1 0x20 DUP2 ADD SWAP1 POP SWAP2 SWAP1 POP JUMP JUMPDEST DUP3 DUP2 DUP4 CALLDATACOPY PUSH1 0x0 DUP4 DUP4 ADD MSTORE POP POP POP JUMP JUMPDEST PUSH1 0x0 PUSH2 0x807 PUSH2 0x802 DUP5 PUSH2 0x7B4 JUMP JUMPDEST PUSH2 0x799 JUMP JUMPDEST SWAP1 POP DUP3 DUP2 MSTORE PUSH1 0x20 DUP2 ADD DUP5 DUP5 DUP5 ADD GT ISZERO PUSH2 0x823 JUMPI PUSH2 0x822 PUSH2 0x723 JUMP JUMPDEST JUMPDEST PUSH2 0x82E DUP5 DUP3 DUP6 PUSH2 0x7E5 JUMP JUMPDEST POP SWAP4 SWAP3 POP POP POP JUMP JUMPDEST PUSH1 0x0 DUP3 PUSH1 0x1F DUP4 ADD SLT PUSH2 0x84B JUMPI PUSH2 0x84A PUSH2 0x71E JUMP JUMPDEST JUMPDEST DUP2 CALLDATALOAD PUSH2 0x85B DUP5 DUP3 PUSH1 0x20 DUP7 ADD PUSH2 0x7F4 JUMP JUMPDEST SWAP2 POP POP SWAP3 SWAP2 POP POP JUMP JUMPDEST PUSH1 0x0 PUSH8 0xFFFFFFFFFFFFFFFF DUP3 GT ISZERO PUSH2 0x87F JUMPI PUSH2 0x87E PUSH2 0x739 JUMP JUMPDEST JUMPDEST PUSH1 0x20 DUP3 MUL SWAP1 POP PUSH1 0x20 DUP2 ADD SWAP1 POP SWAP2 SWAP1 POP JUMP JUMPDEST PUSH1 0x0 DUP1 REVERT JUMPDEST PUSH1 0x0 PUSH2 0x8A8 PUSH2 0x8A3 DUP5 PUSH2 0x864 JUMP JUMPDEST PUSH2 0x799 JUMP JUMPDEST SWAP1 POP DUP1 DUP4 DUP3 MSTORE PUSH1 0x20 DUP3 ADD SWAP1 POP PUSH1 0x20 DUP5 MUL DUP4 ADD DUP6 DUP2 GT ISZERO PUSH2 0x8CB JUMPI PUSH2 0x8CA PUSH2 0x890 JUMP JUMPDEST JUMPDEST DUP4 JUMPDEST DUP2 DUP2 LT ISZERO PUSH2 0x8F4 JUMPI DUP1 PUSH2 0x8E0 DUP9 DUP3 PUSH2 0x62F JUMP JUMPDEST DUP5 MSTORE PUSH1 0x20 DUP5 ADD SWAP4 POP POP PUSH1 0x20 DUP2 ADD SWAP1 POP PUSH2 0x8CD JUMP JUMPDEST POP POP POP SWAP4 SWAP3 POP POP POP JUMP JUMPDEST PUSH1 0x0 DUP3 PUSH1 0x1F DUP4 ADD SLT PUSH2 0x913 JUMPI PUSH2 0x912 PUSH2 0x71E JUMP JUMPDEST JUMPDEST DUP2 CALLDATALOAD PUSH2 0x923 DUP5 DUP3 PUSH1 0x20 DUP7 ADD PUSH2 0x895 JUMP JUMPDEST SWAP2 POP POP SWAP3 SWAP2 POP POP JUMP JUMPDEST PUSH1 0x0 PUSH8 0xFFFFFFFFFFFFFFFF DUP3 GT ISZERO PUSH2 0x947 JUMPI PUSH2 0x946 PUSH2 0x739 JUMP JUMPDEST JUMPDEST PUSH1 0x20 DUP3 MUL SWAP1 POP PUSH1 0x20 DUP2 ADD SWAP1 POP SWAP2 SWAP1 POP JUMP JUMPDEST PUSH1 0x0 PUSH2 0x963 DUP3 PUSH2 0x684 JUMP JUMPDEST SWAP1 POP SWAP2 SWAP1 POP JUMP JUMPDEST PUSH2 0x973 DUP2 PUSH2 0x958 JUMP JUMPDEST DUP2 EQ PUSH2 0x97E JUMPI PUSH1 0x0 DUP1 REVERT JUMPDEST POP JUMP JUMPDEST PUSH1 0x0 DUP2 CALLDATALOAD SWAP1 POP PUSH2 0x990 DUP2 PUSH2 0x96A JUMP JUMPDEST SWAP3 SWAP2 POP POP JUMP JUMPDEST PUSH1 0x0 PUSH2 0x9A9 PUSH2 0x9A4 DUP5 PUSH2 0x92C JUMP JUMPDEST PUSH2 0x799 JUMP JUMPDEST SWAP1 POP DUP1 DUP4 DUP3 MSTORE PUSH1 0x20 DUP3 ADD SWAP1 POP PUSH1 0x20 DUP5 MUL DUP4 ADD DUP6 DUP2 GT ISZERO PUSH2 0x9CC JUMPI PUSH2 0x9CB PUSH2 0x890 JUMP JUMPDEST JUMPDEST DUP4 JUMPDEST DUP2 DUP2 LT ISZERO PUSH2 0x9F5 JUMPI DUP1 PUSH2 0x9E1 DUP9 DUP3 PUSH2 0x981 JUMP JUMPDEST DUP5 MSTORE PUSH1 0x20 DUP5 ADD SWAP4 POP POP PUSH1 0x20 DUP2 ADD SWAP1 POP PUSH2 0x9CE JUMP JUMPDEST POP POP POP SWAP4 SWAP3 POP POP POP JUMP JUMPDEST PUSH1 0x0 DUP3 PUSH1 0x1F DUP4 ADD SLT PUSH2 0xA14 JUMPI PUSH2 0xA13 PUSH2 0x71E JUMP JUMPDEST JUMPDEST DUP2 CALLDATALOAD PUSH2 0xA24 DUP5 DUP3 PUSH1 0x20 DUP7 ADD PUSH2 0x996 JUMP JUMPDEST SWAP2 POP POP SWAP3 SWAP2 POP POP JUMP JUMPDEST PUSH1 0x0 DUP1 PUSH1 0x0 DUP1 PUSH1 0x0 DUP1 PUSH1 0x0 DUP1 PUSH2 0x100 DUP10 DUP12 SUB SLT ISZERO PUSH2 0xA4E JUMPI PUSH2 0xA4D PUSH2 0x604 JUMP JUMPDEST JUMPDEST PUSH1 0x0 DUP10 ADD CALLDATALOAD PUSH8 0xFFFFFFFFFFFFFFFF DUP2 GT ISZERO PUSH2 0xA6C JUMPI PUSH2 0xA6B PUSH2 0x609 JUMP JUMPDEST JUMPDEST PUSH2 0xA78 DUP12 DUP3 DUP13 ADD PUSH2 0x836 JUMP JUMPDEST SWAP9 POP POP PUSH1 0x20 PUSH2 0xA89 DUP12 DUP3 DUP13 ADD PUSH2 0x62F JUMP JUMPDEST SWAP8 POP POP PUSH1 0x40 PUSH2 0xA9A DUP12 DUP3 DUP13 ADD PUSH2 0x62F JUMP JUMPDEST SWAP7 POP POP PUSH1 0x60 PUSH2 0xAAB DUP12 DUP3 DUP13 ADD PUSH2 0x62F JUMP JUMPDEST SWAP6 POP POP PUSH1 0x80 DUP10 ADD CALLDATALOAD PUSH8 0xFFFFFFFFFFFFFFFF DUP2 GT ISZERO PUSH2 0xACC JUMPI PUSH2 0xACB PUSH2 0x609 JUMP JUMPDEST JUMPDEST PUSH2 0xAD8 DUP12 DUP3 DUP13 ADD PUSH2 0x8FE JUMP JUMPDEST SWAP5 POP POP PUSH1 0xA0 DUP10 ADD CALLDATALOAD PUSH8 0xFFFFFFFFFFFFFFFF DUP2 GT ISZERO PUSH2 0xAF9 JUMPI PUSH2 0xAF8 PUSH2 0x609 JUMP JUMPDEST JUMPDEST PUSH2 0xB05 DUP12 DUP3 DUP13 ADD PUSH2 0x9FF JUMP JUMPDEST SWAP4 POP POP PUSH1 0xC0 DUP10 ADD CALLDATALOAD PUSH8 0xFFFFFFFFFFFFFFFF DUP2 GT ISZERO PUSH2 0xB26 JUMPI PUSH2 0xB25 PUSH2 0x609 JUMP JUMPDEST JUMPDEST PUSH2 0xB32 DUP12 DUP3 DUP13 ADD PUSH2 0x8FE JUMP JUMPDEST SWAP3 POP POP PUSH1 0xE0 DUP10 ADD CALLDATALOAD PUSH8 0xFFFFFFFFFFFFFFFF DUP2 GT ISZERO PUSH2 0xB53 JUMPI PUSH2 0xB52 PUSH2 0x609 JUMP JUMPDEST JUMPDEST PUSH2 0xB5F DUP12 DUP3 DUP13 ADD PUSH2 0x8FE JUMP JUMPDEST SWAP2 POP POP SWAP3 SWAP6 SWAP9 POP SWAP3 SWAP6 SWAP9 SWAP1 SWAP4 SWAP7 POP JUMP JUMPDEST PUSH2 0xB78 DUP2 PUSH2 0x60E JUMP JUMPDEST DUP3 MSTORE POP POP JUMP JUMPDEST PUSH1 0x0 PUSH1 0x20 DUP3 ADD SWAP1 POP PUSH2 0xB93 PUSH1 0x0 DUP4 ADD DUP5 PUSH2 0xB6F JUMP JUMPDEST SWAP3 SWAP2 POP POP JUMP JUMPDEST PUSH1 0x0 PUSH1 0x20 DUP3 DUP5 SUB SLT ISZERO PUSH2 0xBAF JUMPI PUSH2 0xBAE PUSH2 0x604 JUMP JUMPDEST JUMPDEST PUSH1 0x0 PUSH2 0xBBD DUP5 DUP3 DUP6 ADD PUSH2 0x62F JUMP JUMPDEST SWAP2 POP POP SWAP3 SWAP2 POP POP JUMP JUMPDEST PUSH1 0x0 DUP2 MLOAD SWAP1 POP SWAP2 SWAP1 POP JUMP JUMPDEST PUSH1 0x0 DUP3 DUP3 MSTORE PUSH1 0x20 DUP3 ADD SWAP1 POP SWAP3 SWAP2 POP POP JUMP JUMPDEST PUSH1 0x0 JUMPDEST DUP4 DUP2 LT ISZERO PUSH2 0xC00 JUMPI DUP1 DUP3 ADD MLOAD DUP2 DUP5 ADD MSTORE PUSH1 0x20 DUP2 ADD SWAP1 POP PUSH2 0xBE5 JUMP JUMPDEST PUSH1 0x0 DUP5 DUP5 ADD MSTORE POP POP POP POP JUMP JUMPDEST PUSH1 0x0 PUSH2 0xC17 DUP3 PUSH2 0xBC6 JUMP JUMPDEST PUSH2 0xC21 DUP2 DUP6 PUSH2 0xBD1 JUMP JUMPDEST SWAP4 POP PUSH2 0xC31 DUP2 DUP6 PUSH1 0x20 DUP7 ADD PUSH2 0xBE2 JUMP JUMPDEST PUSH2 0xC3A DUP2 PUSH2 0x728 JUMP JUMPDEST DUP5 ADD SWAP2 POP POP SWAP3 SWAP2 POP POP JUMP JUMPDEST PUSH1 0x0 PUSH1 0x80 DUP3 ADD SWAP1 POP DUP2 DUP2 SUB PUSH1 0x0 DUP4 ADD MSTORE PUSH2 0xC5F DUP2 DUP8 PUSH2 0xC0C JUMP JUMPDEST SWAP1 POP PUSH2 0xC6E PUSH1 0x20 DUP4 ADD DUP7 PUSH2 0xB6F JUMP JUMPDEST PUSH2 0xC7B PUSH1 0x40 DUP4 ADD DUP6 PUSH2 0xB6F JUMP JUMPDEST PUSH2 0xC88 PUSH1 0x60 DUP4 ADD DUP5 PUSH2 0xB6F JUMP JUMPDEST SWAP6 SWAP5 POP POP POP POP POP JUMP JUMPDEST PUSH32 0x4E487B7100000000000000000000000000000000000000000000000000000000 PUSH1 0x0 MSTORE PUSH1 0x11 PUSH1 0x4 MSTORE PUSH1 0x24 PUSH1 0x0 REVERT JUMPDEST PUSH1 0x0 PUSH2 0xCCB DUP3 PUSH2 0x60E JUMP JUMPDEST SWAP2 POP PUSH2 0xCD6 DUP4 PUSH2 0x60E JUMP JUMPDEST SWAP3 POP DUP3 DUP3 SUB SWAP1 POP DUP2 DUP2 GT ISZERO PUSH2 0xCEE JUMPI PUSH2 0xCED PUSH2 0xC91 JUMP JUMPDEST JUMPDEST SWAP3 SWAP2 POP POP JUMP JUMPDEST PUSH1 0x0 PUSH2 0xCFF DUP3 PUSH2 0x60E JUMP JUMPDEST SWAP2 POP PUSH32 0xFFFFFFFFFFFFFFFFFFFFFFFFFFFFFFFFFFFFFFFFFFFFFFFFFFFFFFFFFFFFFFFF DUP3 SUB PUSH2 0xD31 JUMPI PUSH2 0xD30 PUSH2 0xC91 JUMP JUMPDEST JUMPDEST PUSH1 0x1 DUP3 ADD SWAP1 POP SWAP2 SWAP1 POP JUMP JUMPDEST PUSH32 0x4E487B7100000000000000000000000000000000000000000000000000000000 PUSH1 0x0 MSTORE PUSH1 0x32 PUSH1 0x4 MSTORE PUSH1 0x24 PUSH1 0x0 REVERT JUMPDEST PUSH1 0x0 PUSH1 0x40 DUP3 ADD SWAP1 POP PUSH2 0xD80 PUSH1 0x0 DUP4 ADD DUP6 PUSH2 0xB6F JUMP JUMPDEST PUSH2 0xD8D PUSH1 0x20 DUP4 ADD DUP5 PUSH2 0xB6F JUMP JUMPDEST SWAP4 SWAP3 POP POP POP JUMP JUMPDEST PUSH32 0x4E487B7100000000000000000000000000000000000000000000000000000000 PUSH1 0x0 MSTORE PUSH1 0x22 PUSH1 0x4 MSTORE PUSH1 0x24 PUSH1 0x0 REVERT JUMPDEST PUSH1 0x0 PUSH1 0x2 DUP3 DIV SWAP1 POP PUSH1 0x1 DUP3 AND DUP1 PUSH2 0xDDB JUMPI PUSH1 0x7F DUP3 AND SWAP2 POP JUMPDEST PUSH1 0x20 DUP3 LT DUP2 SUB PUSH2 0xDEE JUMPI PUSH2 0xDED PUSH2 0xD94 JUMP JUMPDEST JUMPDEST POP SWAP2 SWAP1 POP JUMP INVALID LOG2 PUSH5 0x6970667358 0x22 SLT KECCAK256 PUSH32 0xBD9AEF70446D25B4EA0B9776F003482AA9EEF1D8044F331DD4EB8CDC3A936A64 PUSH20 0x6F6C634300081800330000000000000000000000 "
				},
				"gasEstimates": {
					"creation": {
						"codeDepositCost": "725200",
						"executionCost": "infinite",
						"totalCost": "infinite"
					},
					"external": {
						"addProduct(string,uint256,uint256,uint256,uint256[],address[],uint256[],uint256[])": "infinite",
						"changeProductQuantity(uint256,uint256)": "infinite",
						"changeProductStatus(uint256,uint256)": "infinite",
						"getProductQuantity(uint256)": "infinite",
						"materialContract()": "infinite",
						"productCount()": "2473",
						"products(uint256)": "infinite"
					}
				},
				"methodIdentifiers": {
					"addProduct(string,uint256,uint256,uint256,uint256[],address[],uint256[],uint256[])": "253d01f1",
					"changeProductQuantity(uint256,uint256)": "0a423e3a",
					"changeProductStatus(uint256,uint256)": "e5b9ca80",
					"getProductQuantity(uint256)": "db34d123",
					"materialContract()": "240f2ec0",
					"productCount()": "e0f6ef87",
					"products(uint256)": "7acc0b20"
				}
			},
			"storageLayout": {
				"storage": [
					{
						"astId": 131,
						"contract": "contracts/ProductManagement.sol:ProductManagement",
						"label": "products",
						"offset": 0,
						"slot": "0",
						"type": "t_mapping(t_uint256,t_struct(Product)126_storage)"
					},
					{
						"astId": 133,
						"contract": "contracts/ProductManagement.sol:ProductManagement",
						"label": "productCount",
						"offset": 0,
						"slot": "1",
						"type": "t_uint256"
					},
					{
						"astId": 136,
						"contract": "contracts/ProductManagement.sol:ProductManagement",
						"label": "materialContract",
						"offset": 0,
						"slot": "2",
						"type": "t_contract(MaterialManagement)103"
					}
				],
				"types": {
					"t_address": {
						"encoding": "inplace",
						"label": "address",
						"numberOfBytes": "20"
					},
					"t_array(t_struct(Material)113_storage)dyn_storage": {
						"base": "t_struct(Material)113_storage",
						"encoding": "dynamic_array",
						"label": "struct ProductManagement.Material[]",
						"numberOfBytes": "32"
					},
					"t_contract(MaterialManagement)103": {
						"encoding": "inplace",
						"label": "contract MaterialManagement",
						"numberOfBytes": "20"
					},
					"t_mapping(t_uint256,t_struct(Product)126_storage)": {
						"encoding": "mapping",
						"key": "t_uint256",
						"label": "mapping(uint256 => struct ProductManagement.Product)",
						"numberOfBytes": "32",
						"value": "t_struct(Product)126_storage"
					},
					"t_string_storage": {
						"encoding": "bytes",
						"label": "string",
						"numberOfBytes": "32"
					},
					"t_struct(Material)113_storage": {
						"encoding": "inplace",
						"label": "struct ProductManagement.Material",
						"members": [
							{
								"astId": 108,
								"contract": "contracts/ProductManagement.sol:ProductManagement",
								"label": "matId",
								"offset": 0,
								"slot": "0",
								"type": "t_uint256"
							},
							{
								"astId": 110,
								"contract": "contracts/ProductManagement.sol:ProductManagement",
								"label": "ownerId",
								"offset": 0,
								"slot": "1",
								"type": "t_address"
							},
							{
								"astId": 112,
								"contract": "contracts/ProductManagement.sol:ProductManagement",
								"label": "cost",
								"offset": 0,
								"slot": "2",
								"type": "t_uint256"
							}
						],
						"numberOfBytes": "96"
					},
					"t_struct(Product)126_storage": {
						"encoding": "inplace",
						"label": "struct ProductManagement.Product",
						"members": [
							{
								"astId": 115,
								"contract": "contracts/ProductManagement.sol:ProductManagement",
								"label": "name",
								"offset": 0,
								"slot": "0",
								"type": "t_string_storage"
							},
							{
								"astId": 117,
								"contract": "contracts/ProductManagement.sol:ProductManagement",
								"label": "price",
								"offset": 0,
								"slot": "1",
								"type": "t_uint256"
							},
							{
								"astId": 119,
								"contract": "contracts/ProductManagement.sol:ProductManagement",
								"label": "quantity",
								"offset": 0,
								"slot": "2",
								"type": "t_uint256"
							},
							{
								"astId": 121,
								"contract": "contracts/ProductManagement.sol:ProductManagement",
								"label": "status",
								"offset": 0,
								"slot": "3",
								"type": "t_uint256"
							},
							{
								"astId": 125,
								"contract": "contracts/ProductManagement.sol:ProductManagement",
								"label": "materials",
								"offset": 0,
								"slot": "4",
								"type": "t_array(t_struct(Material)113_storage)dyn_storage"
							}
						],
						"numberOfBytes": "160"
					},
					"t_uint256": {
						"encoding": "inplace",
						"label": "uint256",
						"numberOfBytes": "32"
					}
				}
			},
			"userdoc": {
				"kind": "user",
				"methods": {},
				"version": 1
			}
		}
	}
}