{
	"contracts/Material_Managment.sol": {
		"MaterialManagement": {
			"abi": [
				{
					"anonymous": false,
					"inputs": [
						{
							"indexed": true,
							"internalType": "uint256",
							"name": "materialId",
							"type": "uint256"
						},
						{
							"indexed": false,
							"internalType": "string",
							"name": "name",
							"type": "string"
						},
						{
							"indexed": false,
							"internalType": "uint256",
							"name": "quantity",
							"type": "uint256"
						},
						{
							"indexed": false,
							"internalType": "uint256",
							"name": "price",
							"type": "uint256"
						}
					],
					"name": "MaterialAdded",
					"type": "event"
				},
				{
					"anonymous": false,
					"inputs": [
						{
							"indexed": true,
							"internalType": "uint256",
							"name": "materialId",
							"type": "uint256"
						},
						{
							"indexed": false,
							"internalType": "uint256",
							"name": "quantity",
							"type": "uint256"
						}
					],
					"name": "QuantityUpdated",
					"type": "event"
				},
				{
					"inputs": [
						{
							"internalType": "string",
							"name": "_name",
							"type": "string"
						},
						{
							"internalType": "uint256",
							"name": "_quantity",
							"type": "uint256"
						},
						{
							"internalType": "uint256",
							"name": "_price",
							"type": "uint256"
						}
					],
					"name": "addMaterial",
					"outputs": [
						{
							"internalType": "uint256",
							"name": "",
							"type": "uint256"
						}
					],
					"stateMutability": "nonpayable",
					"type": "function"
				},
				{
					"inputs": [],
					"name": "materialCount",
					"outputs": [
						{
							"internalType": "uint256",
							"name": "",
							"type": "uint256"
						}
					],
					"stateMutability": "view",
					"type": "function"
				},
				{
					"inputs": [
						{
							"internalType": "uint256",
							"name": "",
							"type": "uint256"
						}
					],
					"name": "materials",
					"outputs": [
						{
							"internalType": "string",
							"name": "name",
							"type": "string"
						},
						{
							"internalType": "uint256",
							"name": "quantity",
							"type": "uint256"
						},
						{
							"internalType": "uint256",
							"name": "price",
							"type": "uint256"
						}
					],
					"stateMutability": "view",
					"type": "function"
				},
				{
					"inputs": [
						{
							"internalType": "uint256",
							"name": "_materialId",
							"type": "uint256"
						},
						{
							"internalType": "uint256",
							"name": "_qts",
							"type": "uint256"
						}
					],
					"name": "setQuantity",
					"outputs": [],
					"stateMutability": "nonpayable",
					"type": "function"
				}
			],
			"devdoc": {
				"kind": "dev",
				"methods": {},
				"version": 1
			},
			"evm": {
				"assembly": "    /* \"contracts/Material_Managment.sol\":60:1083  contract MaterialManagement {... */\n  mstore(0x40, 0x80)\n  callvalue\n  dup1\n  iszero\n  tag_1\n  jumpi\n  0x00\n  dup1\n  revert\ntag_1:\n  pop\n  dataSize(sub_0)\n  dup1\n  dataOffset(sub_0)\n  0x00\n  codecopy\n  0x00\n  return\nstop\n\nsub_0: assembly {\n        /* \"contracts/Material_Managment.sol\":60:1083  contract MaterialManagement {... */\n      mstore(0x40, 0x80)\n      callvalue\n      dup1\n      iszero\n      tag_1\n      jumpi\n      0x00\n      dup1\n      revert\n    tag_1:\n      pop\n      jumpi(tag_2, lt(calldatasize, 0x04))\n      shr(0xe0, calldataload(0x00))\n      dup1\n      0x7a8e8526\n      eq\n      tag_3\n      jumpi\n      dup1\n      0x9405c78f\n      eq\n      tag_4\n      jumpi\n      dup1\n      0xd472f038\n      eq\n      tag_5\n      jumpi\n      dup1\n      0xd4980949\n      eq\n      tag_6\n      jumpi\n    tag_2:\n      0x00\n      dup1\n      revert\n        /* \"contracts/Material_Managment.sol\":201:246  mapping(uint256 => Material) public materials */\n    tag_3:\n      tag_7\n      0x04\n      dup1\n      calldatasize\n      sub\n      dup2\n      add\n      swap1\n      tag_8\n      swap2\n      swap1\n      tag_9\n      jump\t// in\n    tag_8:\n      tag_10\n      jump\t// in\n    tag_7:\n      mload(0x40)\n      tag_11\n      swap4\n      swap3\n      swap2\n      swap1\n      tag_12\n      jump\t// in\n    tag_11:\n      mload(0x40)\n      dup1\n      swap2\n      sub\n      swap1\n      return\n        /* \"contracts/Material_Managment.sol\":787:1080  function setQuantity(uint256  _materialId,  uint256 _qts)  public  {... */\n    tag_4:\n      tag_13\n      0x04\n      dup1\n      calldatasize\n      sub\n      dup2\n      add\n      swap1\n      tag_14\n      swap2\n      swap1\n      tag_15\n      jump\t// in\n    tag_14:\n      tag_16\n      jump\t// in\n    tag_13:\n      stop\n        /* \"contracts/Material_Managment.sol\":253:281  uint256 public materialCount */\n    tag_5:\n      tag_17\n      tag_18\n      jump\t// in\n    tag_17:\n      mload(0x40)\n      tag_19\n      swap2\n      swap1\n      tag_20\n      jump\t// in\n    tag_19:\n      mload(0x40)\n      dup1\n      swap2\n      sub\n      swap1\n      return\n        /* \"contracts/Material_Managment.sol\":466:779  function addMaterial(string memory _name, uint256 _quantity, uint256 _price) external returns (uint256) {... */\n    tag_6:\n      tag_21\n      0x04\n      dup1\n      calldatasize\n      sub\n      dup2\n      add\n      swap1\n      tag_22\n      swap2\n      swap1\n      tag_23\n      jump\t// in\n    tag_22:\n      tag_24\n      jump\t// in\n    tag_21:\n      mload(0x40)\n      tag_25\n      swap2\n      swap1\n      tag_20\n      jump\t// in\n    tag_25:\n      mload(0x40)\n      dup1\n      swap2\n      sub\n      swap1\n      return\n        /* \"contracts/Material_Managment.sol\":201:246  mapping(uint256 => Material) public materials */\n    tag_10:\n      mstore(0x20, 0x00)\n      dup1\n      0x00\n      mstore\n      keccak256(0x00, 0x40)\n      0x00\n      swap2\n      pop\n      swap1\n      pop\n      dup1\n      0x00\n      add\n      dup1\n      sload\n      tag_26\n      swap1\n      tag_27\n      jump\t// in\n    tag_26:\n      dup1\n      0x1f\n      add\n      0x20\n      dup1\n      swap2\n      div\n      mul\n      0x20\n      add\n      mload(0x40)\n      swap1\n      dup2\n      add\n      0x40\n      mstore\n      dup1\n      swap3\n      swap2\n      swap1\n      dup2\n      dup2\n      mstore\n      0x20\n      add\n      dup3\n      dup1\n      sload\n      tag_28\n      swap1\n      tag_27\n      jump\t// in\n    tag_28:\n      dup1\n      iszero\n      tag_29\n      jumpi\n      dup1\n      0x1f\n      lt\n      tag_30\n      jumpi\n      0x0100\n      dup1\n      dup4\n      sload\n      div\n      mul\n      dup4\n      mstore\n      swap2\n      0x20\n      add\n      swap2\n      jump(tag_29)\n    tag_30:\n      dup3\n      add\n      swap2\n      swap1\n      0x00\n      mstore\n      keccak256(0x00, 0x20)\n      swap1\n    tag_31:\n      dup2\n      sload\n      dup2\n      mstore\n      swap1\n      0x01\n      add\n      swap1\n      0x20\n      add\n      dup1\n      dup4\n      gt\n      tag_31\n      jumpi\n      dup3\n      swap1\n      sub\n      0x1f\n      and\n      dup3\n      add\n      swap2\n    tag_29:\n      pop\n      pop\n      pop\n      pop\n      pop\n      swap1\n      dup1\n      0x01\n      add\n      sload\n      swap1\n      dup1\n      0x02\n      add\n      sload\n      swap1\n      pop\n      dup4\n      jump\t// out\n        /* \"contracts/Material_Managment.sol\":787:1080  function setQuantity(uint256  _materialId,  uint256 _qts)  public  {... */\n    tag_16:\n        /* \"contracts/Material_Managment.sol\":890:995  Material(materials[_materialId].name, materials[_materialId].quantity-_qts, materials[_materialId].price) */\n      mload(0x40)\n      dup1\n      0x60\n      add\n      0x40\n      mstore\n      dup1\n        /* \"contracts/Material_Managment.sol\":899:908  materials */\n      0x00\n        /* \"contracts/Material_Managment.sol\":899:921  materials[_materialId] */\n      dup1\n        /* \"contracts/Material_Managment.sol\":909:920  _materialId */\n      dup6\n        /* \"contracts/Material_Managment.sol\":899:921  materials[_materialId] */\n      dup2\n      mstore\n      0x20\n      add\n      swap1\n      dup2\n      mstore\n      0x20\n      add\n      0x00\n      keccak256\n        /* \"contracts/Material_Managment.sol\":899:926  materials[_materialId].name */\n      0x00\n      add\n        /* \"contracts/Material_Managment.sol\":890:995  Material(materials[_materialId].name, materials[_materialId].quantity-_qts, materials[_materialId].price) */\n      dup1\n      sload\n      tag_33\n      swap1\n      tag_27\n      jump\t// in\n    tag_33:\n      dup1\n      0x1f\n      add\n      0x20\n      dup1\n      swap2\n      div\n      mul\n      0x20\n      add\n      mload(0x40)\n      swap1\n      dup2\n      add\n      0x40\n      mstore\n      dup1\n      swap3\n      swap2\n      swap1\n      dup2\n      dup2\n      mstore\n      0x20\n      add\n      dup3\n      dup1\n      sload\n      tag_34\n      swap1\n      tag_27\n      jump\t// in\n    tag_34:\n      dup1\n      iszero\n      tag_35\n      jumpi\n      dup1\n      0x1f\n      lt\n      tag_36\n      jumpi\n      0x0100\n      dup1\n      dup4\n      sload\n      div\n      mul\n      dup4\n      mstore\n      swap2\n      0x20\n      add\n      swap2\n      jump(tag_35)\n    tag_36:\n      dup3\n      add\n      swap2\n      swap1\n      0x00\n      mstore\n      keccak256(0x00, 0x20)\n      swap1\n    tag_37:\n      dup2\n      sload\n      dup2\n      mstore\n      swap1\n      0x01\n      add\n      swap1\n      0x20\n      add\n      dup1\n      dup4\n      gt\n      tag_37\n      jumpi\n      dup3\n      swap1\n      sub\n      0x1f\n      and\n      dup3\n      add\n      swap2\n    tag_35:\n      pop\n      pop\n      pop\n      pop\n      pop\n      dup2\n      mstore\n      0x20\n      add\n        /* \"contracts/Material_Managment.sol\":960:964  _qts */\n      dup3\n        /* \"contracts/Material_Managment.sol\":928:937  materials */\n      0x00\n        /* \"contracts/Material_Managment.sol\":928:950  materials[_materialId] */\n      dup1\n        /* \"contracts/Material_Managment.sol\":938:949  _materialId */\n      dup7\n        /* \"contracts/Material_Managment.sol\":928:950  materials[_materialId] */\n      dup2\n      mstore\n      0x20\n      add\n      swap1\n      dup2\n      mstore\n      0x20\n      add\n      0x00\n      keccak256\n        /* \"contracts/Material_Managment.sol\":928:959  materials[_materialId].quantity */\n      0x01\n      add\n      sload\n        /* \"contracts/Material_Managment.sol\":928:964  materials[_materialId].quantity-_qts */\n      tag_38\n      swap2\n      swap1\n      tag_39\n      jump\t// in\n    tag_38:\n        /* \"contracts/Material_Managment.sol\":890:995  Material(materials[_materialId].name, materials[_materialId].quantity-_qts, materials[_materialId].price) */\n      dup2\n      mstore\n      0x20\n      add\n        /* \"contracts/Material_Managment.sol\":966:975  materials */\n      0x00\n        /* \"contracts/Material_Managment.sol\":966:988  materials[_materialId] */\n      dup1\n        /* \"contracts/Material_Managment.sol\":976:987  _materialId */\n      dup6\n        /* \"contracts/Material_Managment.sol\":966:988  materials[_materialId] */\n      dup2\n      mstore\n      0x20\n      add\n      swap1\n      dup2\n      mstore\n      0x20\n      add\n      0x00\n      keccak256\n        /* \"contracts/Material_Managment.sol\":966:994  materials[_materialId].price */\n      0x02\n      add\n      sload\n        /* \"contracts/Material_Managment.sol\":890:995  Material(materials[_materialId].name, materials[_materialId].quantity-_qts, materials[_materialId].price) */\n      dup2\n      mstore\n      pop\n        /* \"contracts/Material_Managment.sol\":865:874  materials */\n      0x00\n        /* \"contracts/Material_Managment.sol\":865:887  materials[_materialId] */\n      dup1\n        /* \"contracts/Material_Managment.sol\":875:886  _materialId */\n      dup5\n        /* \"contracts/Material_Managment.sol\":865:887  materials[_materialId] */\n      dup2\n      mstore\n      0x20\n      add\n      swap1\n      dup2\n      mstore\n      0x20\n      add\n      0x00\n      keccak256\n        /* \"contracts/Material_Managment.sol\":865:995  materials[_materialId] = Material(materials[_materialId].name, materials[_materialId].quantity-_qts, materials[_materialId].price) */\n      0x00\n      dup3\n      add\n      mload\n      dup2\n      0x00\n      add\n      swap1\n      dup2\n      tag_40\n      swap2\n      swap1\n      tag_41\n      jump\t// in\n    tag_40:\n      pop\n      0x20\n      dup3\n      add\n      mload\n      dup2\n      0x01\n      add\n      sstore\n      0x40\n      dup3\n      add\n      mload\n      dup2\n      0x02\n      add\n      sstore\n      swap1\n      pop\n      pop\n        /* \"contracts/Material_Managment.sol\":1027:1038  _materialId */\n      dup2\n        /* \"contracts/Material_Managment.sol\":1011:1072  QuantityUpdated(_materialId, materials[_materialId].quantity) */\n      0x8b8dc02fa611075efc1241daba0e953699ed8b00d177cc4cd5ffe82696af2c09\n        /* \"contracts/Material_Managment.sol\":1040:1049  materials */\n      0x00\n        /* \"contracts/Material_Managment.sol\":1040:1062  materials[_materialId] */\n      dup1\n        /* \"contracts/Material_Managment.sol\":1050:1061  _materialId */\n      dup6\n        /* \"contracts/Material_Managment.sol\":1040:1062  materials[_materialId] */\n      dup2\n      mstore\n      0x20\n      add\n      swap1\n      dup2\n      mstore\n      0x20\n      add\n      0x00\n      keccak256\n        /* \"contracts/Material_Managment.sol\":1040:1071  materials[_materialId].quantity */\n      0x01\n      add\n      sload\n        /* \"contracts/Material_Managment.sol\":1011:1072  QuantityUpdated(_materialId, materials[_materialId].quantity) */\n      mload(0x40)\n      tag_42\n      swap2\n      swap1\n      tag_20\n      jump\t// in\n    tag_42:\n      mload(0x40)\n      dup1\n      swap2\n      sub\n      swap1\n      log2\n        /* \"contracts/Material_Managment.sol\":787:1080  function setQuantity(uint256  _materialId,  uint256 _qts)  public  {... */\n      pop\n      pop\n      jump\t// out\n        /* \"contracts/Material_Managment.sol\":253:281  uint256 public materialCount */\n    tag_18:\n      sload(0x01)\n      dup2\n      jump\t// out\n        /* \"contracts/Material_Managment.sol\":466:779  function addMaterial(string memory _name, uint256 _quantity, uint256 _price) external returns (uint256) {... */\n    tag_24:\n        /* \"contracts/Material_Managment.sol\":561:568  uint256 */\n      0x00\n        /* \"contracts/Material_Managment.sol\":581:594  materialCount */\n      0x01\n      0x00\n        /* \"contracts/Material_Managment.sol\":581:596  materialCount++ */\n      dup2\n      sload\n      dup1\n      swap3\n      swap2\n      swap1\n      tag_44\n      swap1\n      tag_45\n      jump\t// in\n    tag_44:\n      swap2\n      swap1\n      pop\n      sstore\n      pop\n        /* \"contracts/Material_Managment.sol\":634:668  Material(_name, _quantity, _price) */\n      mload(0x40)\n      dup1\n      0x60\n      add\n      0x40\n      mstore\n      dup1\n        /* \"contracts/Material_Managment.sol\":643:648  _name */\n      dup6\n        /* \"contracts/Material_Managment.sol\":634:668  Material(_name, _quantity, _price) */\n      dup2\n      mstore\n      0x20\n      add\n        /* \"contracts/Material_Managment.sol\":650:659  _quantity */\n      dup5\n        /* \"contracts/Material_Managment.sol\":634:668  Material(_name, _quantity, _price) */\n      dup2\n      mstore\n      0x20\n      add\n        /* \"contracts/Material_Managment.sol\":661:667  _price */\n      dup4\n        /* \"contracts/Material_Managment.sol\":634:668  Material(_name, _quantity, _price) */\n      dup2\n      mstore\n      pop\n        /* \"contracts/Material_Managment.sol\":607:616  materials */\n      0x00\n        /* \"contracts/Material_Managment.sol\":607:631  materials[materialCount] */\n      dup1\n        /* \"contracts/Material_Managment.sol\":617:630  materialCount */\n      sload(0x01)\n        /* \"contracts/Material_Managment.sol\":607:631  materials[materialCount] */\n      dup2\n      mstore\n      0x20\n      add\n      swap1\n      dup2\n      mstore\n      0x20\n      add\n      0x00\n      keccak256\n        /* \"contracts/Material_Managment.sol\":607:668  materials[materialCount] = Material(_name, _quantity, _price) */\n      0x00\n      dup3\n      add\n      mload\n      dup2\n      0x00\n      add\n      swap1\n      dup2\n      tag_46\n      swap2\n      swap1\n      tag_41\n      jump\t// in\n    tag_46:\n      pop\n      0x20\n      dup3\n      add\n      mload\n      dup2\n      0x01\n      add\n      sstore\n      0x40\n      dup3\n      add\n      mload\n      dup2\n      0x02\n      add\n      sstore\n      swap1\n      pop\n      pop\n        /* \"contracts/Material_Managment.sol\":698:711  materialCount */\n      sload(0x01)\n        /* \"contracts/Material_Managment.sol\":684:738  MaterialAdded(materialCount, _name, _quantity, _price) */\n      0xc8db13941026367bf1e63c64329e42ab6ae1229de97f0bf59b82e8507ad713b8\n        /* \"contracts/Material_Managment.sol\":713:718  _name */\n      dup6\n        /* \"contracts/Material_Managment.sol\":720:729  _quantity */\n      dup6\n        /* \"contracts/Material_Managment.sol\":731:737  _price */\n      dup6\n        /* \"contracts/Material_Managment.sol\":684:738  MaterialAdded(materialCount, _name, _quantity, _price) */\n      mload(0x40)\n      tag_47\n      swap4\n      swap3\n      swap2\n      swap1\n      tag_12\n      jump\t// in\n    tag_47:\n      mload(0x40)\n      dup1\n      swap2\n      sub\n      swap1\n      log2\n        /* \"contracts/Material_Managment.sol\":758:771  materialCount */\n      sload(0x01)\n        /* \"contracts/Material_Managment.sol\":751:771  return materialCount */\n      swap1\n      pop\n        /* \"contracts/Material_Managment.sol\":466:779  function addMaterial(string memory _name, uint256 _quantity, uint256 _price) external returns (uint256) {... */\n      swap4\n      swap3\n      pop\n      pop\n      pop\n      jump\t// out\n        /* \"#utility.yul\":7:82   */\n    tag_48:\n        /* \"#utility.yul\":40:46   */\n      0x00\n        /* \"#utility.yul\":73:75   */\n      0x40\n        /* \"#utility.yul\":67:76   */\n      mload\n        /* \"#utility.yul\":57:76   */\n      swap1\n      pop\n        /* \"#utility.yul\":7:82   */\n      swap1\n      jump\t// out\n        /* \"#utility.yul\":88:205   */\n    tag_49:\n        /* \"#utility.yul\":197:198   */\n      0x00\n        /* \"#utility.yul\":194:195   */\n      dup1\n        /* \"#utility.yul\":187:199   */\n      revert\n        /* \"#utility.yul\":211:328   */\n    tag_50:\n        /* \"#utility.yul\":320:321   */\n      0x00\n        /* \"#utility.yul\":317:318   */\n      dup1\n        /* \"#utility.yul\":310:322   */\n      revert\n        /* \"#utility.yul\":334:411   */\n    tag_51:\n        /* \"#utility.yul\":371:378   */\n      0x00\n        /* \"#utility.yul\":400:405   */\n      dup2\n        /* \"#utility.yul\":389:405   */\n      swap1\n      pop\n        /* \"#utility.yul\":334:411   */\n      swap2\n      swap1\n      pop\n      jump\t// out\n        /* \"#utility.yul\":417:539   */\n    tag_52:\n        /* \"#utility.yul\":490:514   */\n      tag_92\n        /* \"#utility.yul\":508:513   */\n      dup2\n        /* \"#utility.yul\":490:514   */\n      tag_51\n      jump\t// in\n    tag_92:\n        /* \"#utility.yul\":483:488   */\n      dup2\n        /* \"#utility.yul\":480:515   */\n      eq\n        /* \"#utility.yul\":470:533   */\n      tag_93\n      jumpi\n        /* \"#utility.yul\":529:530   */\n      0x00\n        /* \"#utility.yul\":526:527   */\n      dup1\n        /* \"#utility.yul\":519:531   */\n      revert\n        /* \"#utility.yul\":470:533   */\n    tag_93:\n        /* \"#utility.yul\":417:539   */\n      pop\n      jump\t// out\n        /* \"#utility.yul\":545:684   */\n    tag_53:\n        /* \"#utility.yul\":591:596   */\n      0x00\n        /* \"#utility.yul\":629:635   */\n      dup2\n        /* \"#utility.yul\":616:636   */\n      calldataload\n        /* \"#utility.yul\":607:636   */\n      swap1\n      pop\n        /* \"#utility.yul\":645:678   */\n      tag_95\n        /* \"#utility.yul\":672:677   */\n      dup2\n        /* \"#utility.yul\":645:678   */\n      tag_52\n      jump\t// in\n    tag_95:\n        /* \"#utility.yul\":545:684   */\n      swap3\n      swap2\n      pop\n      pop\n      jump\t// out\n        /* \"#utility.yul\":690:1019   */\n    tag_9:\n        /* \"#utility.yul\":749:755   */\n      0x00\n        /* \"#utility.yul\":798:800   */\n      0x20\n        /* \"#utility.yul\":786:795   */\n      dup3\n        /* \"#utility.yul\":777:784   */\n      dup5\n        /* \"#utility.yul\":773:796   */\n      sub\n        /* \"#utility.yul\":769:801   */\n      slt\n        /* \"#utility.yul\":766:885   */\n      iszero\n      tag_97\n      jumpi\n        /* \"#utility.yul\":804:883   */\n      tag_98\n      tag_49\n      jump\t// in\n    tag_98:\n        /* \"#utility.yul\":766:885   */\n    tag_97:\n        /* \"#utility.yul\":924:925   */\n      0x00\n        /* \"#utility.yul\":949:1002   */\n      tag_99\n        /* \"#utility.yul\":994:1001   */\n      dup5\n        /* \"#utility.yul\":985:991   */\n      dup3\n        /* \"#utility.yul\":974:983   */\n      dup6\n        /* \"#utility.yul\":970:992   */\n      add\n        /* \"#utility.yul\":949:1002   */\n      tag_53\n      jump\t// in\n    tag_99:\n        /* \"#utility.yul\":939:1002   */\n      swap2\n      pop\n        /* \"#utility.yul\":895:1012   */\n      pop\n        /* \"#utility.yul\":690:1019   */\n      swap3\n      swap2\n      pop\n      pop\n      jump\t// out\n        /* \"#utility.yul\":1025:1124   */\n    tag_54:\n        /* \"#utility.yul\":1077:1083   */\n      0x00\n        /* \"#utility.yul\":1111:1116   */\n      dup2\n        /* \"#utility.yul\":1105:1117   */\n      mload\n        /* \"#utility.yul\":1095:1117   */\n      swap1\n      pop\n        /* \"#utility.yul\":1025:1124   */\n      swap2\n      swap1\n      pop\n      jump\t// out\n        /* \"#utility.yul\":1130:1299   */\n    tag_55:\n        /* \"#utility.yul\":1214:1225   */\n      0x00\n        /* \"#utility.yul\":1248:1254   */\n      dup3\n        /* \"#utility.yul\":1243:1246   */\n      dup3\n        /* \"#utility.yul\":1236:1255   */\n      mstore\n        /* \"#utility.yul\":1288:1292   */\n      0x20\n        /* \"#utility.yul\":1283:1286   */\n      dup3\n        /* \"#utility.yul\":1279:1293   */\n      add\n        /* \"#utility.yul\":1264:1293   */\n      swap1\n      pop\n        /* \"#utility.yul\":1130:1299   */\n      swap3\n      swap2\n      pop\n      pop\n      jump\t// out\n        /* \"#utility.yul\":1305:1551   */\n    tag_56:\n        /* \"#utility.yul\":1386:1387   */\n      0x00\n        /* \"#utility.yul\":1396:1509   */\n    tag_103:\n        /* \"#utility.yul\":1410:1416   */\n      dup4\n        /* \"#utility.yul\":1407:1408   */\n      dup2\n        /* \"#utility.yul\":1404:1417   */\n      lt\n        /* \"#utility.yul\":1396:1509   */\n      iszero\n      tag_105\n      jumpi\n        /* \"#utility.yul\":1495:1496   */\n      dup1\n        /* \"#utility.yul\":1490:1493   */\n      dup3\n        /* \"#utility.yul\":1486:1497   */\n      add\n        /* \"#utility.yul\":1480:1498   */\n      mload\n        /* \"#utility.yul\":1476:1477   */\n      dup2\n        /* \"#utility.yul\":1471:1474   */\n      dup5\n        /* \"#utility.yul\":1467:1478   */\n      add\n        /* \"#utility.yul\":1460:1499   */\n      mstore\n        /* \"#utility.yul\":1432:1434   */\n      0x20\n        /* \"#utility.yul\":1429:1430   */\n      dup2\n        /* \"#utility.yul\":1425:1435   */\n      add\n        /* \"#utility.yul\":1420:1435   */\n      swap1\n      pop\n        /* \"#utility.yul\":1396:1509   */\n      jump(tag_103)\n    tag_105:\n        /* \"#utility.yul\":1543:1544   */\n      0x00\n        /* \"#utility.yul\":1534:1540   */\n      dup5\n        /* \"#utility.yul\":1529:1532   */\n      dup5\n        /* \"#utility.yul\":1525:1541   */\n      add\n        /* \"#utility.yul\":1518:1545   */\n      mstore\n        /* \"#utility.yul\":1367:1551   */\n      pop\n        /* \"#utility.yul\":1305:1551   */\n      pop\n      pop\n      pop\n      jump\t// out\n        /* \"#utility.yul\":1557:1659   */\n    tag_57:\n        /* \"#utility.yul\":1598:1604   */\n      0x00\n        /* \"#utility.yul\":1649:1651   */\n      0x1f\n        /* \"#utility.yul\":1645:1652   */\n      not\n        /* \"#utility.yul\":1640:1642   */\n      0x1f\n        /* \"#utility.yul\":1633:1638   */\n      dup4\n        /* \"#utility.yul\":1629:1643   */\n      add\n        /* \"#utility.yul\":1625:1653   */\n      and\n        /* \"#utility.yul\":1615:1653   */\n      swap1\n      pop\n        /* \"#utility.yul\":1557:1659   */\n      swap2\n      swap1\n      pop\n      jump\t// out\n        /* \"#utility.yul\":1665:2042   */\n    tag_58:\n        /* \"#utility.yul\":1753:1756   */\n      0x00\n        /* \"#utility.yul\":1781:1820   */\n      tag_108\n        /* \"#utility.yul\":1814:1819   */\n      dup3\n        /* \"#utility.yul\":1781:1820   */\n      tag_54\n      jump\t// in\n    tag_108:\n        /* \"#utility.yul\":1836:1907   */\n      tag_109\n        /* \"#utility.yul\":1900:1906   */\n      dup2\n        /* \"#utility.yul\":1895:1898   */\n      dup6\n        /* \"#utility.yul\":1836:1907   */\n      tag_55\n      jump\t// in\n    tag_109:\n        /* \"#utility.yul\":1829:1907   */\n      swap4\n      pop\n        /* \"#utility.yul\":1916:1981   */\n      tag_110\n        /* \"#utility.yul\":1974:1980   */\n      dup2\n        /* \"#utility.yul\":1969:1972   */\n      dup6\n        /* \"#utility.yul\":1962:1966   */\n      0x20\n        /* \"#utility.yul\":1955:1960   */\n      dup7\n        /* \"#utility.yul\":1951:1967   */\n      add\n        /* \"#utility.yul\":1916:1981   */\n      tag_56\n      jump\t// in\n    tag_110:\n        /* \"#utility.yul\":2006:2035   */\n      tag_111\n        /* \"#utility.yul\":2028:2034   */\n      dup2\n        /* \"#utility.yul\":2006:2035   */\n      tag_57\n      jump\t// in\n    tag_111:\n        /* \"#utility.yul\":2001:2004   */\n      dup5\n        /* \"#utility.yul\":1997:2036   */\n      add\n        /* \"#utility.yul\":1990:2036   */\n      swap2\n      pop\n        /* \"#utility.yul\":1757:2042   */\n      pop\n        /* \"#utility.yul\":1665:2042   */\n      swap3\n      swap2\n      pop\n      pop\n      jump\t// out\n        /* \"#utility.yul\":2048:2166   */\n    tag_59:\n        /* \"#utility.yul\":2135:2159   */\n      tag_113\n        /* \"#utility.yul\":2153:2158   */\n      dup2\n        /* \"#utility.yul\":2135:2159   */\n      tag_51\n      jump\t// in\n    tag_113:\n        /* \"#utility.yul\":2130:2133   */\n      dup3\n        /* \"#utility.yul\":2123:2160   */\n      mstore\n        /* \"#utility.yul\":2048:2166   */\n      pop\n      pop\n      jump\t// out\n        /* \"#utility.yul\":2172:2705   */\n    tag_12:\n        /* \"#utility.yul\":2341:2345   */\n      0x00\n        /* \"#utility.yul\":2379:2381   */\n      0x60\n        /* \"#utility.yul\":2368:2377   */\n      dup3\n        /* \"#utility.yul\":2364:2382   */\n      add\n        /* \"#utility.yul\":2356:2382   */\n      swap1\n      pop\n        /* \"#utility.yul\":2428:2437   */\n      dup2\n        /* \"#utility.yul\":2422:2426   */\n      dup2\n        /* \"#utility.yul\":2418:2438   */\n      sub\n        /* \"#utility.yul\":2414:2415   */\n      0x00\n        /* \"#utility.yul\":2403:2412   */\n      dup4\n        /* \"#utility.yul\":2399:2416   */\n      add\n        /* \"#utility.yul\":2392:2439   */\n      mstore\n        /* \"#utility.yul\":2456:2534   */\n      tag_115\n        /* \"#utility.yul\":2529:2533   */\n      dup2\n        /* \"#utility.yul\":2520:2526   */\n      dup7\n        /* \"#utility.yul\":2456:2534   */\n      tag_58\n      jump\t// in\n    tag_115:\n        /* \"#utility.yul\":2448:2534   */\n      swap1\n      pop\n        /* \"#utility.yul\":2544:2616   */\n      tag_116\n        /* \"#utility.yul\":2612:2614   */\n      0x20\n        /* \"#utility.yul\":2601:2610   */\n      dup4\n        /* \"#utility.yul\":2597:2615   */\n      add\n        /* \"#utility.yul\":2588:2594   */\n      dup6\n        /* \"#utility.yul\":2544:2616   */\n      tag_59\n      jump\t// in\n    tag_116:\n        /* \"#utility.yul\":2626:2698   */\n      tag_117\n        /* \"#utility.yul\":2694:2696   */\n      0x40\n        /* \"#utility.yul\":2683:2692   */\n      dup4\n        /* \"#utility.yul\":2679:2697   */\n      add\n        /* \"#utility.yul\":2670:2676   */\n      dup5\n        /* \"#utility.yul\":2626:2698   */\n      tag_59\n      jump\t// in\n    tag_117:\n        /* \"#utility.yul\":2172:2705   */\n      swap5\n      swap4\n      pop\n      pop\n      pop\n      pop\n      jump\t// out\n        /* \"#utility.yul\":2711:3185   */\n    tag_15:\n        /* \"#utility.yul\":2779:2785   */\n      0x00\n        /* \"#utility.yul\":2787:2793   */\n      dup1\n        /* \"#utility.yul\":2836:2838   */\n      0x40\n        /* \"#utility.yul\":2824:2833   */\n      dup4\n        /* \"#utility.yul\":2815:2822   */\n      dup6\n        /* \"#utility.yul\":2811:2834   */\n      sub\n        /* \"#utility.yul\":2807:2839   */\n      slt\n        /* \"#utility.yul\":2804:2923   */\n      iszero\n      tag_119\n      jumpi\n        /* \"#utility.yul\":2842:2921   */\n      tag_120\n      tag_49\n      jump\t// in\n    tag_120:\n        /* \"#utility.yul\":2804:2923   */\n    tag_119:\n        /* \"#utility.yul\":2962:2963   */\n      0x00\n        /* \"#utility.yul\":2987:3040   */\n      tag_121\n        /* \"#utility.yul\":3032:3039   */\n      dup6\n        /* \"#utility.yul\":3023:3029   */\n      dup3\n        /* \"#utility.yul\":3012:3021   */\n      dup7\n        /* \"#utility.yul\":3008:3030   */\n      add\n        /* \"#utility.yul\":2987:3040   */\n      tag_53\n      jump\t// in\n    tag_121:\n        /* \"#utility.yul\":2977:3040   */\n      swap3\n      pop\n        /* \"#utility.yul\":2933:3050   */\n      pop\n        /* \"#utility.yul\":3089:3091   */\n      0x20\n        /* \"#utility.yul\":3115:3168   */\n      tag_122\n        /* \"#utility.yul\":3160:3167   */\n      dup6\n        /* \"#utility.yul\":3151:3157   */\n      dup3\n        /* \"#utility.yul\":3140:3149   */\n      dup7\n        /* \"#utility.yul\":3136:3158   */\n      add\n        /* \"#utility.yul\":3115:3168   */\n      tag_53\n      jump\t// in\n    tag_122:\n        /* \"#utility.yul\":3105:3168   */\n      swap2\n      pop\n        /* \"#utility.yul\":3060:3178   */\n      pop\n        /* \"#utility.yul\":2711:3185   */\n      swap3\n      pop\n      swap3\n      swap1\n      pop\n      jump\t// out\n        /* \"#utility.yul\":3191:3413   */\n    tag_20:\n        /* \"#utility.yul\":3284:3288   */\n      0x00\n        /* \"#utility.yul\":3322:3324   */\n      0x20\n        /* \"#utility.yul\":3311:3320   */\n      dup3\n        /* \"#utility.yul\":3307:3325   */\n      add\n        /* \"#utility.yul\":3299:3325   */\n      swap1\n      pop\n        /* \"#utility.yul\":3335:3406   */\n      tag_124\n        /* \"#utility.yul\":3403:3404   */\n      0x00\n        /* \"#utility.yul\":3392:3401   */\n      dup4\n        /* \"#utility.yul\":3388:3405   */\n      add\n        /* \"#utility.yul\":3379:3385   */\n      dup5\n        /* \"#utility.yul\":3335:3406   */\n      tag_59\n      jump\t// in\n    tag_124:\n        /* \"#utility.yul\":3191:3413   */\n      swap3\n      swap2\n      pop\n      pop\n      jump\t// out\n        /* \"#utility.yul\":3419:3536   */\n    tag_60:\n        /* \"#utility.yul\":3528:3529   */\n      0x00\n        /* \"#utility.yul\":3525:3526   */\n      dup1\n        /* \"#utility.yul\":3518:3530   */\n      revert\n        /* \"#utility.yul\":3542:3659   */\n    tag_61:\n        /* \"#utility.yul\":3651:3652   */\n      0x00\n        /* \"#utility.yul\":3648:3649   */\n      dup1\n        /* \"#utility.yul\":3641:3653   */\n      revert\n        /* \"#utility.yul\":3665:3845   */\n    tag_62:\n        /* \"#utility.yul\":3713:3790   */\n      0x4e487b7100000000000000000000000000000000000000000000000000000000\n        /* \"#utility.yul\":3710:3711   */\n      0x00\n        /* \"#utility.yul\":3703:3791   */\n      mstore\n        /* \"#utility.yul\":3810:3814   */\n      0x41\n        /* \"#utility.yul\":3807:3808   */\n      0x04\n        /* \"#utility.yul\":3800:3815   */\n      mstore\n        /* \"#utility.yul\":3834:3838   */\n      0x24\n        /* \"#utility.yul\":3831:3832   */\n      0x00\n        /* \"#utility.yul\":3824:3839   */\n      revert\n        /* \"#utility.yul\":3851:4132   */\n    tag_63:\n        /* \"#utility.yul\":3934:3961   */\n      tag_129\n        /* \"#utility.yul\":3956:3960   */\n      dup3\n        /* \"#utility.yul\":3934:3961   */\n      tag_57\n      jump\t// in\n    tag_129:\n        /* \"#utility.yul\":3926:3932   */\n      dup2\n        /* \"#utility.yul\":3922:3962   */\n      add\n        /* \"#utility.yul\":4064:4070   */\n      dup2\n        /* \"#utility.yul\":4052:4062   */\n      dup2\n        /* \"#utility.yul\":4049:4071   */\n      lt\n        /* \"#utility.yul\":4028:4046   */\n      0xffffffffffffffff\n        /* \"#utility.yul\":4016:4026   */\n      dup3\n        /* \"#utility.yul\":4013:4047   */\n      gt\n        /* \"#utility.yul\":4010:4072   */\n      or\n        /* \"#utility.yul\":4007:4095   */\n      iszero\n      tag_130\n      jumpi\n        /* \"#utility.yul\":4075:4093   */\n      tag_131\n      tag_62\n      jump\t// in\n    tag_131:\n        /* \"#utility.yul\":4007:4095   */\n    tag_130:\n        /* \"#utility.yul\":4115:4125   */\n      dup1\n        /* \"#utility.yul\":4111:4113   */\n      0x40\n        /* \"#utility.yul\":4104:4126   */\n      mstore\n        /* \"#utility.yul\":3894:4132   */\n      pop\n        /* \"#utility.yul\":3851:4132   */\n      pop\n      pop\n      jump\t// out\n        /* \"#utility.yul\":4138:4267   */\n    tag_64:\n        /* \"#utility.yul\":4172:4178   */\n      0x00\n        /* \"#utility.yul\":4199:4219   */\n      tag_133\n      tag_48\n      jump\t// in\n    tag_133:\n        /* \"#utility.yul\":4189:4219   */\n      swap1\n      pop\n        /* \"#utility.yul\":4228:4261   */\n      tag_134\n        /* \"#utility.yul\":4256:4260   */\n      dup3\n        /* \"#utility.yul\":4248:4254   */\n      dup3\n        /* \"#utility.yul\":4228:4261   */\n      tag_63\n      jump\t// in\n    tag_134:\n        /* \"#utility.yul\":4138:4267   */\n      swap2\n      swap1\n      pop\n      jump\t// out\n        /* \"#utility.yul\":4273:4581   */\n    tag_65:\n        /* \"#utility.yul\":4335:4339   */\n      0x00\n        /* \"#utility.yul\":4425:4443   */\n      0xffffffffffffffff\n        /* \"#utility.yul\":4417:4423   */\n      dup3\n        /* \"#utility.yul\":4414:4444   */\n      gt\n        /* \"#utility.yul\":4411:4467   */\n      iszero\n      tag_136\n      jumpi\n        /* \"#utility.yul\":4447:4465   */\n      tag_137\n      tag_62\n      jump\t// in\n    tag_137:\n        /* \"#utility.yul\":4411:4467   */\n    tag_136:\n        /* \"#utility.yul\":4485:4514   */\n      tag_138\n        /* \"#utility.yul\":4507:4513   */\n      dup3\n        /* \"#utility.yul\":4485:4514   */\n      tag_57\n      jump\t// in\n    tag_138:\n        /* \"#utility.yul\":4477:4514   */\n      swap1\n      pop\n        /* \"#utility.yul\":4569:4573   */\n      0x20\n        /* \"#utility.yul\":4563:4567   */\n      dup2\n        /* \"#utility.yul\":4559:4574   */\n      add\n        /* \"#utility.yul\":4551:4574   */\n      swap1\n      pop\n        /* \"#utility.yul\":4273:4581   */\n      swap2\n      swap1\n      pop\n      jump\t// out\n        /* \"#utility.yul\":4587:4733   */\n    tag_66:\n        /* \"#utility.yul\":4684:4690   */\n      dup3\n        /* \"#utility.yul\":4679:4682   */\n      dup2\n        /* \"#utility.yul\":4674:4677   */\n      dup4\n        /* \"#utility.yul\":4661:4691   */\n      calldatacopy\n        /* \"#utility.yul\":4725:4726   */\n      0x00\n        /* \"#utility.yul\":4716:4722   */\n      dup4\n        /* \"#utility.yul\":4711:4714   */\n      dup4\n        /* \"#utility.yul\":4707:4723   */\n      add\n        /* \"#utility.yul\":4700:4727   */\n      mstore\n        /* \"#utility.yul\":4587:4733   */\n      pop\n      pop\n      pop\n      jump\t// out\n        /* \"#utility.yul\":4739:5164   */\n    tag_67:\n        /* \"#utility.yul\":4817:4822   */\n      0x00\n        /* \"#utility.yul\":4842:4908   */\n      tag_141\n        /* \"#utility.yul\":4858:4907   */\n      tag_142\n        /* \"#utility.yul\":4900:4906   */\n      dup5\n        /* \"#utility.yul\":4858:4907   */\n      tag_65\n      jump\t// in\n    tag_142:\n        /* \"#utility.yul\":4842:4908   */\n      tag_64\n      jump\t// in\n    tag_141:\n        /* \"#utility.yul\":4833:4908   */\n      swap1\n      pop\n        /* \"#utility.yul\":4931:4937   */\n      dup3\n        /* \"#utility.yul\":4924:4929   */\n      dup2\n        /* \"#utility.yul\":4917:4938   */\n      mstore\n        /* \"#utility.yul\":4969:4973   */\n      0x20\n        /* \"#utility.yul\":4962:4967   */\n      dup2\n        /* \"#utility.yul\":4958:4974   */\n      add\n        /* \"#utility.yul\":5007:5010   */\n      dup5\n        /* \"#utility.yul\":4998:5004   */\n      dup5\n        /* \"#utility.yul\":4993:4996   */\n      dup5\n        /* \"#utility.yul\":4989:5005   */\n      add\n        /* \"#utility.yul\":4986:5011   */\n      gt\n        /* \"#utility.yul\":4983:5095   */\n      iszero\n      tag_143\n      jumpi\n        /* \"#utility.yul\":5014:5093   */\n      tag_144\n      tag_61\n      jump\t// in\n    tag_144:\n        /* \"#utility.yul\":4983:5095   */\n    tag_143:\n        /* \"#utility.yul\":5104:5158   */\n      tag_145\n        /* \"#utility.yul\":5151:5157   */\n      dup5\n        /* \"#utility.yul\":5146:5149   */\n      dup3\n        /* \"#utility.yul\":5141:5144   */\n      dup6\n        /* \"#utility.yul\":5104:5158   */\n      tag_66\n      jump\t// in\n    tag_145:\n        /* \"#utility.yul\":4823:5164   */\n      pop\n        /* \"#utility.yul\":4739:5164   */\n      swap4\n      swap3\n      pop\n      pop\n      pop\n      jump\t// out\n        /* \"#utility.yul\":5184:5524   */\n    tag_68:\n        /* \"#utility.yul\":5240:5245   */\n      0x00\n        /* \"#utility.yul\":5289:5292   */\n      dup3\n        /* \"#utility.yul\":5282:5286   */\n      0x1f\n        /* \"#utility.yul\":5274:5280   */\n      dup4\n        /* \"#utility.yul\":5270:5287   */\n      add\n        /* \"#utility.yul\":5266:5293   */\n      slt\n        /* \"#utility.yul\":5256:5378   */\n      tag_147\n      jumpi\n        /* \"#utility.yul\":5297:5376   */\n      tag_148\n      tag_60\n      jump\t// in\n    tag_148:\n        /* \"#utility.yul\":5256:5378   */\n    tag_147:\n        /* \"#utility.yul\":5414:5420   */\n      dup2\n        /* \"#utility.yul\":5401:5421   */\n      calldataload\n        /* \"#utility.yul\":5439:5518   */\n      tag_149\n        /* \"#utility.yul\":5514:5517   */\n      dup5\n        /* \"#utility.yul\":5506:5512   */\n      dup3\n        /* \"#utility.yul\":5499:5503   */\n      0x20\n        /* \"#utility.yul\":5491:5497   */\n      dup7\n        /* \"#utility.yul\":5487:5504   */\n      add\n        /* \"#utility.yul\":5439:5518   */\n      tag_67\n      jump\t// in\n    tag_149:\n        /* \"#utility.yul\":5430:5518   */\n      swap2\n      pop\n        /* \"#utility.yul\":5246:5524   */\n      pop\n        /* \"#utility.yul\":5184:5524   */\n      swap3\n      swap2\n      pop\n      pop\n      jump\t// out\n        /* \"#utility.yul\":5530:6329   */\n    tag_23:\n        /* \"#utility.yul\":5617:5623   */\n      0x00\n        /* \"#utility.yul\":5625:5631   */\n      dup1\n        /* \"#utility.yul\":5633:5639   */\n      0x00\n        /* \"#utility.yul\":5682:5684   */\n      0x60\n        /* \"#utility.yul\":5670:5679   */\n      dup5\n        /* \"#utility.yul\":5661:5668   */\n      dup7\n        /* \"#utility.yul\":5657:5680   */\n      sub\n        /* \"#utility.yul\":5653:5685   */\n      slt\n        /* \"#utility.yul\":5650:5769   */\n      iszero\n      tag_151\n      jumpi\n        /* \"#utility.yul\":5688:5767   */\n      tag_152\n      tag_49\n      jump\t// in\n    tag_152:\n        /* \"#utility.yul\":5650:5769   */\n    tag_151:\n        /* \"#utility.yul\":5836:5837   */\n      0x00\n        /* \"#utility.yul\":5825:5834   */\n      dup5\n        /* \"#utility.yul\":5821:5838   */\n      add\n        /* \"#utility.yul\":5808:5839   */\n      calldataload\n        /* \"#utility.yul\":5866:5884   */\n      0xffffffffffffffff\n        /* \"#utility.yul\":5858:5864   */\n      dup2\n        /* \"#utility.yul\":5855:5885   */\n      gt\n        /* \"#utility.yul\":5852:5969   */\n      iszero\n      tag_153\n      jumpi\n        /* \"#utility.yul\":5888:5967   */\n      tag_154\n      tag_50\n      jump\t// in\n    tag_154:\n        /* \"#utility.yul\":5852:5969   */\n    tag_153:\n        /* \"#utility.yul\":5993:6056   */\n      tag_155\n        /* \"#utility.yul\":6048:6055   */\n      dup7\n        /* \"#utility.yul\":6039:6045   */\n      dup3\n        /* \"#utility.yul\":6028:6037   */\n      dup8\n        /* \"#utility.yul\":6024:6046   */\n      add\n        /* \"#utility.yul\":5993:6056   */\n      tag_68\n      jump\t// in\n    tag_155:\n        /* \"#utility.yul\":5983:6056   */\n      swap4\n      pop\n        /* \"#utility.yul\":5779:6066   */\n      pop\n        /* \"#utility.yul\":6105:6107   */\n      0x20\n        /* \"#utility.yul\":6131:6184   */\n      tag_156\n        /* \"#utility.yul\":6176:6183   */\n      dup7\n        /* \"#utility.yul\":6167:6173   */\n      dup3\n        /* \"#utility.yul\":6156:6165   */\n      dup8\n        /* \"#utility.yul\":6152:6174   */\n      add\n        /* \"#utility.yul\":6131:6184   */\n      tag_53\n      jump\t// in\n    tag_156:\n        /* \"#utility.yul\":6121:6184   */\n      swap3\n      pop\n        /* \"#utility.yul\":6076:6194   */\n      pop\n        /* \"#utility.yul\":6233:6235   */\n      0x40\n        /* \"#utility.yul\":6259:6312   */\n      tag_157\n        /* \"#utility.yul\":6304:6311   */\n      dup7\n        /* \"#utility.yul\":6295:6301   */\n      dup3\n        /* \"#utility.yul\":6284:6293   */\n      dup8\n        /* \"#utility.yul\":6280:6302   */\n      add\n        /* \"#utility.yul\":6259:6312   */\n      tag_53\n      jump\t// in\n    tag_157:\n        /* \"#utility.yul\":6249:6312   */\n      swap2\n      pop\n        /* \"#utility.yul\":6204:6322   */\n      pop\n        /* \"#utility.yul\":5530:6329   */\n      swap3\n      pop\n      swap3\n      pop\n      swap3\n      jump\t// out\n        /* \"#utility.yul\":6335:6515   */\n    tag_69:\n        /* \"#utility.yul\":6383:6460   */\n      0x4e487b7100000000000000000000000000000000000000000000000000000000\n        /* \"#utility.yul\":6380:6381   */\n      0x00\n        /* \"#utility.yul\":6373:6461   */\n      mstore\n        /* \"#utility.yul\":6480:6484   */\n      0x22\n        /* \"#utility.yul\":6477:6478   */\n      0x04\n        /* \"#utility.yul\":6470:6485   */\n      mstore\n        /* \"#utility.yul\":6504:6508   */\n      0x24\n        /* \"#utility.yul\":6501:6502   */\n      0x00\n        /* \"#utility.yul\":6494:6509   */\n      revert\n        /* \"#utility.yul\":6521:6841   */\n    tag_27:\n        /* \"#utility.yul\":6565:6571   */\n      0x00\n        /* \"#utility.yul\":6602:6603   */\n      0x02\n        /* \"#utility.yul\":6596:6600   */\n      dup3\n        /* \"#utility.yul\":6592:6604   */\n      div\n        /* \"#utility.yul\":6582:6604   */\n      swap1\n      pop\n        /* \"#utility.yul\":6649:6650   */\n      0x01\n        /* \"#utility.yul\":6643:6647   */\n      dup3\n        /* \"#utility.yul\":6639:6651   */\n      and\n        /* \"#utility.yul\":6670:6688   */\n      dup1\n        /* \"#utility.yul\":6660:6741   */\n      tag_160\n      jumpi\n        /* \"#utility.yul\":6726:6730   */\n      0x7f\n        /* \"#utility.yul\":6718:6724   */\n      dup3\n        /* \"#utility.yul\":6714:6731   */\n      and\n        /* \"#utility.yul\":6704:6731   */\n      swap2\n      pop\n        /* \"#utility.yul\":6660:6741   */\n    tag_160:\n        /* \"#utility.yul\":6788:6790   */\n      0x20\n        /* \"#utility.yul\":6780:6786   */\n      dup3\n        /* \"#utility.yul\":6777:6791   */\n      lt\n        /* \"#utility.yul\":6757:6775   */\n      dup2\n        /* \"#utility.yul\":6754:6792   */\n      sub\n        /* \"#utility.yul\":6751:6835   */\n      tag_161\n      jumpi\n        /* \"#utility.yul\":6807:6825   */\n      tag_162\n      tag_69\n      jump\t// in\n    tag_162:\n        /* \"#utility.yul\":6751:6835   */\n    tag_161:\n        /* \"#utility.yul\":6572:6841   */\n      pop\n        /* \"#utility.yul\":6521:6841   */\n      swap2\n      swap1\n      pop\n      jump\t// out\n        /* \"#utility.yul\":6847:7027   */\n    tag_70:\n        /* \"#utility.yul\":6895:6972   */\n      0x4e487b7100000000000000000000000000000000000000000000000000000000\n        /* \"#utility.yul\":6892:6893   */\n      0x00\n        /* \"#utility.yul\":6885:6973   */\n      mstore\n        /* \"#utility.yul\":6992:6996   */\n      0x11\n        /* \"#utility.yul\":6989:6990   */\n      0x04\n        /* \"#utility.yul\":6982:6997   */\n      mstore\n        /* \"#utility.yul\":7016:7020   */\n      0x24\n        /* \"#utility.yul\":7013:7014   */\n      0x00\n        /* \"#utility.yul\":7006:7021   */\n      revert\n        /* \"#utility.yul\":7033:7227   */\n    tag_39:\n        /* \"#utility.yul\":7073:7077   */\n      0x00\n        /* \"#utility.yul\":7093:7113   */\n      tag_165\n        /* \"#utility.yul\":7111:7112   */\n      dup3\n        /* \"#utility.yul\":7093:7113   */\n      tag_51\n      jump\t// in\n    tag_165:\n        /* \"#utility.yul\":7088:7113   */\n      swap2\n      pop\n        /* \"#utility.yul\":7127:7147   */\n      tag_166\n        /* \"#utility.yul\":7145:7146   */\n      dup4\n        /* \"#utility.yul\":7127:7147   */\n      tag_51\n      jump\t// in\n    tag_166:\n        /* \"#utility.yul\":7122:7147   */\n      swap3\n      pop\n        /* \"#utility.yul\":7171:7172   */\n      dup3\n        /* \"#utility.yul\":7168:7169   */\n      dup3\n        /* \"#utility.yul\":7164:7173   */\n      sub\n        /* \"#utility.yul\":7156:7173   */\n      swap1\n      pop\n        /* \"#utility.yul\":7195:7196   */\n      dup2\n        /* \"#utility.yul\":7189:7193   */\n      dup2\n        /* \"#utility.yul\":7186:7197   */\n      gt\n        /* \"#utility.yul\":7183:7220   */\n      iszero\n      tag_167\n      jumpi\n        /* \"#utility.yul\":7200:7218   */\n      tag_168\n      tag_70\n      jump\t// in\n    tag_168:\n        /* \"#utility.yul\":7183:7220   */\n    tag_167:\n        /* \"#utility.yul\":7033:7227   */\n      swap3\n      swap2\n      pop\n      pop\n      jump\t// out\n        /* \"#utility.yul\":7233:7374   */\n    tag_71:\n        /* \"#utility.yul\":7282:7286   */\n      0x00\n        /* \"#utility.yul\":7305:7308   */\n      dup2\n        /* \"#utility.yul\":7297:7308   */\n      swap1\n      pop\n        /* \"#utility.yul\":7328:7331   */\n      dup2\n        /* \"#utility.yul\":7325:7326   */\n      0x00\n        /* \"#utility.yul\":7318:7332   */\n      mstore\n        /* \"#utility.yul\":7362:7366   */\n      0x20\n        /* \"#utility.yul\":7359:7360   */\n      0x00\n        /* \"#utility.yul\":7349:7367   */\n      keccak256\n        /* \"#utility.yul\":7341:7367   */\n      swap1\n      pop\n        /* \"#utility.yul\":7233:7374   */\n      swap2\n      swap1\n      pop\n      jump\t// out\n        /* \"#utility.yul\":7380:7473   */\n    tag_72:\n        /* \"#utility.yul\":7417:7423   */\n      0x00\n        /* \"#utility.yul\":7464:7466   */\n      0x20\n        /* \"#utility.yul\":7459:7461   */\n      0x1f\n        /* \"#utility.yul\":7452:7457   */\n      dup4\n        /* \"#utility.yul\":7448:7462   */\n      add\n        /* \"#utility.yul\":7444:7467   */\n      div\n        /* \"#utility.yul\":7434:7467   */\n      swap1\n      pop\n        /* \"#utility.yul\":7380:7473   */\n      swap2\n      swap1\n      pop\n      jump\t// out\n        /* \"#utility.yul\":7479:7586   */\n    tag_73:\n        /* \"#utility.yul\":7523:7531   */\n      0x00\n        /* \"#utility.yul\":7573:7578   */\n      dup3\n        /* \"#utility.yul\":7567:7571   */\n      dup3\n        /* \"#utility.yul\":7563:7579   */\n      shl\n        /* \"#utility.yul\":7542:7579   */\n      swap1\n      pop\n        /* \"#utility.yul\":7479:7586   */\n      swap3\n      swap2\n      pop\n      pop\n      jump\t// out\n        /* \"#utility.yul\":7592:7985   */\n    tag_74:\n        /* \"#utility.yul\":7661:7667   */\n      0x00\n        /* \"#utility.yul\":7711:7712   */\n      0x08\n        /* \"#utility.yul\":7699:7709   */\n      dup4\n        /* \"#utility.yul\":7695:7713   */\n      mul\n        /* \"#utility.yul\":7734:7831   */\n      tag_173\n        /* \"#utility.yul\":7764:7830   */\n      0xffffffffffffffffffffffffffffffffffffffffffffffffffffffffffffffff\n        /* \"#utility.yul\":7753:7762   */\n      dup3\n        /* \"#utility.yul\":7734:7831   */\n      tag_73\n      jump\t// in\n    tag_173:\n        /* \"#utility.yul\":7852:7891   */\n      tag_174\n        /* \"#utility.yul\":7882:7890   */\n      dup7\n        /* \"#utility.yul\":7871:7880   */\n      dup4\n        /* \"#utility.yul\":7852:7891   */\n      tag_73\n      jump\t// in\n    tag_174:\n        /* \"#utility.yul\":7840:7891   */\n      swap6\n      pop\n        /* \"#utility.yul\":7924:7928   */\n      dup1\n        /* \"#utility.yul\":7920:7929   */\n      not\n        /* \"#utility.yul\":7913:7918   */\n      dup5\n        /* \"#utility.yul\":7909:7930   */\n      and\n        /* \"#utility.yul\":7900:7930   */\n      swap4\n      pop\n        /* \"#utility.yul\":7973:7977   */\n      dup1\n        /* \"#utility.yul\":7963:7971   */\n      dup7\n        /* \"#utility.yul\":7959:7978   */\n      and\n        /* \"#utility.yul\":7952:7957   */\n      dup5\n        /* \"#utility.yul\":7949:7979   */\n      or\n        /* \"#utility.yul\":7939:7979   */\n      swap3\n      pop\n        /* \"#utility.yul\":7668:7985   */\n      pop\n      pop\n        /* \"#utility.yul\":7592:7985   */\n      swap4\n      swap3\n      pop\n      pop\n      pop\n      jump\t// out\n        /* \"#utility.yul\":7991:8051   */\n    tag_75:\n        /* \"#utility.yul\":8019:8022   */\n      0x00\n        /* \"#utility.yul\":8040:8045   */\n      dup2\n        /* \"#utility.yul\":8033:8045   */\n      swap1\n      pop\n        /* \"#utility.yul\":7991:8051   */\n      swap2\n      swap1\n      pop\n      jump\t// out\n        /* \"#utility.yul\":8057:8199   */\n    tag_76:\n        /* \"#utility.yul\":8107:8116   */\n      0x00\n        /* \"#utility.yul\":8140:8193   */\n      tag_177\n        /* \"#utility.yul\":8158:8192   */\n      tag_178\n        /* \"#utility.yul\":8167:8191   */\n      tag_179\n        /* \"#utility.yul\":8185:8190   */\n      dup5\n        /* \"#utility.yul\":8167:8191   */\n      tag_51\n      jump\t// in\n    tag_179:\n        /* \"#utility.yul\":8158:8192   */\n      tag_75\n      jump\t// in\n    tag_178:\n        /* \"#utility.yul\":8140:8193   */\n      tag_51\n      jump\t// in\n    tag_177:\n        /* \"#utility.yul\":8127:8193   */\n      swap1\n      pop\n        /* \"#utility.yul\":8057:8199   */\n      swap2\n      swap1\n      pop\n      jump\t// out\n        /* \"#utility.yul\":8205:8280   */\n    tag_77:\n        /* \"#utility.yul\":8248:8251   */\n      0x00\n        /* \"#utility.yul\":8269:8274   */\n      dup2\n        /* \"#utility.yul\":8262:8274   */\n      swap1\n      pop\n        /* \"#utility.yul\":8205:8280   */\n      swap2\n      swap1\n      pop\n      jump\t// out\n        /* \"#utility.yul\":8286:8555   */\n    tag_78:\n        /* \"#utility.yul\":8396:8435   */\n      tag_182\n        /* \"#utility.yul\":8427:8434   */\n      dup4\n        /* \"#utility.yul\":8396:8435   */\n      tag_76\n      jump\t// in\n    tag_182:\n        /* \"#utility.yul\":8457:8548   */\n      tag_183\n        /* \"#utility.yul\":8506:8547   */\n      tag_184\n        /* \"#utility.yul\":8530:8546   */\n      dup3\n        /* \"#utility.yul\":8506:8547   */\n      tag_77\n      jump\t// in\n    tag_184:\n        /* \"#utility.yul\":8498:8504   */\n      dup5\n        /* \"#utility.yul\":8491:8495   */\n      dup5\n        /* \"#utility.yul\":8485:8496   */\n      sload\n        /* \"#utility.yul\":8457:8548   */\n      tag_74\n      jump\t// in\n    tag_183:\n        /* \"#utility.yul\":8451:8455   */\n      dup3\n        /* \"#utility.yul\":8444:8549   */\n      sstore\n        /* \"#utility.yul\":8362:8555   */\n      pop\n        /* \"#utility.yul\":8286:8555   */\n      pop\n      pop\n      pop\n      jump\t// out\n        /* \"#utility.yul\":8561:8634   */\n    tag_79:\n        /* \"#utility.yul\":8606:8609   */\n      0x00\n        /* \"#utility.yul\":8561:8634   */\n      swap1\n      jump\t// out\n        /* \"#utility.yul\":8640:8829   */\n    tag_80:\n        /* \"#utility.yul\":8717:8749   */\n      tag_187\n      tag_79\n      jump\t// in\n    tag_187:\n        /* \"#utility.yul\":8758:8823   */\n      tag_188\n        /* \"#utility.yul\":8816:8822   */\n      dup2\n        /* \"#utility.yul\":8808:8814   */\n      dup5\n        /* \"#utility.yul\":8802:8806   */\n      dup5\n        /* \"#utility.yul\":8758:8823   */\n      tag_78\n      jump\t// in\n    tag_188:\n        /* \"#utility.yul\":8693:8829   */\n      pop\n        /* \"#utility.yul\":8640:8829   */\n      pop\n      pop\n      jump\t// out\n        /* \"#utility.yul\":8835:9021   */\n    tag_81:\n        /* \"#utility.yul\":8895:9015   */\n    tag_190:\n        /* \"#utility.yul\":8912:8915   */\n      dup2\n        /* \"#utility.yul\":8905:8910   */\n      dup2\n        /* \"#utility.yul\":8902:8916   */\n      lt\n        /* \"#utility.yul\":8895:9015   */\n      iszero\n      tag_192\n      jumpi\n        /* \"#utility.yul\":8966:9005   */\n      tag_193\n        /* \"#utility.yul\":9003:9004   */\n      0x00\n        /* \"#utility.yul\":8996:9001   */\n      dup3\n        /* \"#utility.yul\":8966:9005   */\n      tag_80\n      jump\t// in\n    tag_193:\n        /* \"#utility.yul\":8939:8940   */\n      0x01\n        /* \"#utility.yul\":8932:8937   */\n      dup2\n        /* \"#utility.yul\":8928:8941   */\n      add\n        /* \"#utility.yul\":8919:8941   */\n      swap1\n      pop\n        /* \"#utility.yul\":8895:9015   */\n      jump(tag_190)\n    tag_192:\n        /* \"#utility.yul\":8835:9021   */\n      pop\n      pop\n      jump\t// out\n        /* \"#utility.yul\":9027:9570   */\n    tag_82:\n        /* \"#utility.yul\":9128:9130   */\n      0x1f\n        /* \"#utility.yul\":9123:9126   */\n      dup3\n        /* \"#utility.yul\":9120:9131   */\n      gt\n        /* \"#utility.yul\":9117:9563   */\n      iszero\n      tag_195\n      jumpi\n        /* \"#utility.yul\":9162:9200   */\n      tag_196\n        /* \"#utility.yul\":9194:9199   */\n      dup2\n        /* \"#utility.yul\":9162:9200   */\n      tag_71\n      jump\t// in\n    tag_196:\n        /* \"#utility.yul\":9246:9275   */\n      tag_197\n        /* \"#utility.yul\":9264:9274   */\n      dup5\n        /* \"#utility.yul\":9246:9275   */\n      tag_72\n      jump\t// in\n    tag_197:\n        /* \"#utility.yul\":9236:9244   */\n      dup2\n        /* \"#utility.yul\":9232:9276   */\n      add\n        /* \"#utility.yul\":9429:9431   */\n      0x20\n        /* \"#utility.yul\":9417:9427   */\n      dup6\n        /* \"#utility.yul\":9414:9432   */\n      lt\n        /* \"#utility.yul\":9411:9460   */\n      iszero\n      tag_198\n      jumpi\n        /* \"#utility.yul\":9450:9458   */\n      dup2\n        /* \"#utility.yul\":9435:9458   */\n      swap1\n      pop\n        /* \"#utility.yul\":9411:9460   */\n    tag_198:\n        /* \"#utility.yul\":9473:9553   */\n      tag_199\n        /* \"#utility.yul\":9529:9551   */\n      tag_200\n        /* \"#utility.yul\":9547:9550   */\n      dup6\n        /* \"#utility.yul\":9529:9551   */\n      tag_72\n      jump\t// in\n    tag_200:\n        /* \"#utility.yul\":9519:9527   */\n      dup4\n        /* \"#utility.yul\":9515:9552   */\n      add\n        /* \"#utility.yul\":9502:9513   */\n      dup3\n        /* \"#utility.yul\":9473:9553   */\n      tag_81\n      jump\t// in\n    tag_199:\n        /* \"#utility.yul\":9132:9563   */\n      pop\n      pop\n        /* \"#utility.yul\":9117:9563   */\n    tag_195:\n        /* \"#utility.yul\":9027:9570   */\n      pop\n      pop\n      pop\n      jump\t// out\n        /* \"#utility.yul\":9576:9693   */\n    tag_83:\n        /* \"#utility.yul\":9630:9638   */\n      0x00\n        /* \"#utility.yul\":9680:9685   */\n      dup3\n        /* \"#utility.yul\":9674:9678   */\n      dup3\n        /* \"#utility.yul\":9670:9686   */\n      shr\n        /* \"#utility.yul\":9649:9686   */\n      swap1\n      pop\n        /* \"#utility.yul\":9576:9693   */\n      swap3\n      swap2\n      pop\n      pop\n      jump\t// out\n        /* \"#utility.yul\":9699:9868   */\n    tag_84:\n        /* \"#utility.yul\":9743:9749   */\n      0x00\n        /* \"#utility.yul\":9776:9827   */\n      tag_203\n        /* \"#utility.yul\":9824:9825   */\n      0x00\n        /* \"#utility.yul\":9820:9826   */\n      not\n        /* \"#utility.yul\":9812:9817   */\n      dup5\n        /* \"#utility.yul\":9809:9810   */\n      0x08\n        /* \"#utility.yul\":9805:9818   */\n      mul\n        /* \"#utility.yul\":9776:9827   */\n      tag_83\n      jump\t// in\n    tag_203:\n        /* \"#utility.yul\":9772:9828   */\n      not\n        /* \"#utility.yul\":9857:9861   */\n      dup1\n        /* \"#utility.yul\":9851:9855   */\n      dup4\n        /* \"#utility.yul\":9847:9862   */\n      and\n        /* \"#utility.yul\":9837:9862   */\n      swap2\n      pop\n        /* \"#utility.yul\":9750:9868   */\n      pop\n        /* \"#utility.yul\":9699:9868   */\n      swap3\n      swap2\n      pop\n      pop\n      jump\t// out\n        /* \"#utility.yul\":9873:10168   */\n    tag_85:\n        /* \"#utility.yul\":9949:9953   */\n      0x00\n        /* \"#utility.yul\":10095:10124   */\n      tag_205\n        /* \"#utility.yul\":10120:10123   */\n      dup4\n        /* \"#utility.yul\":10114:10118   */\n      dup4\n        /* \"#utility.yul\":10095:10124   */\n      tag_84\n      jump\t// in\n    tag_205:\n        /* \"#utility.yul\":10087:10124   */\n      swap2\n      pop\n        /* \"#utility.yul\":10157:10160   */\n      dup3\n        /* \"#utility.yul\":10154:10155   */\n      0x02\n        /* \"#utility.yul\":10150:10161   */\n      mul\n        /* \"#utility.yul\":10144:10148   */\n      dup3\n        /* \"#utility.yul\":10141:10162   */\n      or\n        /* \"#utility.yul\":10133:10162   */\n      swap1\n      pop\n        /* \"#utility.yul\":9873:10168   */\n      swap3\n      swap2\n      pop\n      pop\n      jump\t// out\n        /* \"#utility.yul\":10173:11568   */\n    tag_41:\n        /* \"#utility.yul\":10290:10327   */\n      tag_207\n        /* \"#utility.yul\":10323:10326   */\n      dup3\n        /* \"#utility.yul\":10290:10327   */\n      tag_54\n      jump\t// in\n    tag_207:\n        /* \"#utility.yul\":10392:10410   */\n      0xffffffffffffffff\n        /* \"#utility.yul\":10384:10390   */\n      dup2\n        /* \"#utility.yul\":10381:10411   */\n      gt\n        /* \"#utility.yul\":10378:10434   */\n      iszero\n      tag_208\n      jumpi\n        /* \"#utility.yul\":10414:10432   */\n      tag_209\n      tag_62\n      jump\t// in\n    tag_209:\n        /* \"#utility.yul\":10378:10434   */\n    tag_208:\n        /* \"#utility.yul\":10458:10496   */\n      tag_210\n        /* \"#utility.yul\":10490:10494   */\n      dup3\n        /* \"#utility.yul\":10484:10495   */\n      sload\n        /* \"#utility.yul\":10458:10496   */\n      tag_27\n      jump\t// in\n    tag_210:\n        /* \"#utility.yul\":10543:10610   */\n      tag_211\n        /* \"#utility.yul\":10603:10609   */\n      dup3\n        /* \"#utility.yul\":10595:10601   */\n      dup3\n        /* \"#utility.yul\":10589:10593   */\n      dup6\n        /* \"#utility.yul\":10543:10610   */\n      tag_82\n      jump\t// in\n    tag_211:\n        /* \"#utility.yul\":10637:10638   */\n      0x00\n        /* \"#utility.yul\":10661:10665   */\n      0x20\n        /* \"#utility.yul\":10648:10665   */\n      swap1\n      pop\n        /* \"#utility.yul\":10693:10695   */\n      0x1f\n        /* \"#utility.yul\":10685:10691   */\n      dup4\n        /* \"#utility.yul\":10682:10696   */\n      gt\n        /* \"#utility.yul\":10710:10711   */\n      0x01\n        /* \"#utility.yul\":10705:11323   */\n      dup2\n      eq\n      tag_213\n      jumpi\n        /* \"#utility.yul\":11367:11368   */\n      0x00\n        /* \"#utility.yul\":11384:11390   */\n      dup5\n        /* \"#utility.yul\":11381:11458   */\n      iszero\n      tag_214\n      jumpi\n        /* \"#utility.yul\":11433:11442   */\n      dup3\n        /* \"#utility.yul\":11428:11431   */\n      dup8\n        /* \"#utility.yul\":11424:11443   */\n      add\n        /* \"#utility.yul\":11418:11444   */\n      mload\n        /* \"#utility.yul\":11409:11444   */\n      swap1\n      pop\n        /* \"#utility.yul\":11381:11458   */\n    tag_214:\n        /* \"#utility.yul\":11484:11551   */\n      tag_215\n        /* \"#utility.yul\":11544:11550   */\n      dup6\n        /* \"#utility.yul\":11537:11542   */\n      dup3\n        /* \"#utility.yul\":11484:11551   */\n      tag_85\n      jump\t// in\n    tag_215:\n        /* \"#utility.yul\":11478:11482   */\n      dup7\n        /* \"#utility.yul\":11471:11552   */\n      sstore\n        /* \"#utility.yul\":11340:11562   */\n      pop\n        /* \"#utility.yul\":10675:11562   */\n      jump(tag_212)\n        /* \"#utility.yul\":10705:11323   */\n    tag_213:\n        /* \"#utility.yul\":10757:10761   */\n      0x1f\n        /* \"#utility.yul\":10753:10762   */\n      not\n        /* \"#utility.yul\":10745:10751   */\n      dup5\n        /* \"#utility.yul\":10741:10763   */\n      and\n        /* \"#utility.yul\":10791:10828   */\n      tag_216\n        /* \"#utility.yul\":10823:10827   */\n      dup7\n        /* \"#utility.yul\":10791:10828   */\n      tag_71\n      jump\t// in\n    tag_216:\n        /* \"#utility.yul\":10850:10851   */\n      0x00\n        /* \"#utility.yul\":10864:11072   */\n    tag_217:\n        /* \"#utility.yul\":10878:10885   */\n      dup3\n        /* \"#utility.yul\":10875:10876   */\n      dup2\n        /* \"#utility.yul\":10872:10886   */\n      lt\n        /* \"#utility.yul\":10864:11072   */\n      iszero\n      tag_219\n      jumpi\n        /* \"#utility.yul\":10957:10966   */\n      dup5\n        /* \"#utility.yul\":10952:10955   */\n      dup10\n        /* \"#utility.yul\":10948:10967   */\n      add\n        /* \"#utility.yul\":10942:10968   */\n      mload\n        /* \"#utility.yul\":10934:10940   */\n      dup3\n        /* \"#utility.yul\":10927:10969   */\n      sstore\n        /* \"#utility.yul\":11008:11009   */\n      0x01\n        /* \"#utility.yul\":11000:11006   */\n      dup3\n        /* \"#utility.yul\":10996:11010   */\n      add\n        /* \"#utility.yul\":10986:11010   */\n      swap2\n      pop\n        /* \"#utility.yul\":11055:11057   */\n      0x20\n        /* \"#utility.yul\":11044:11053   */\n      dup6\n        /* \"#utility.yul\":11040:11058   */\n      add\n        /* \"#utility.yul\":11027:11058   */\n      swap5\n      pop\n        /* \"#utility.yul\":10901:10905   */\n      0x20\n        /* \"#utility.yul\":10898:10899   */\n      dup2\n        /* \"#utility.yul\":10894:10906   */\n      add\n        /* \"#utility.yul\":10889:10906   */\n      swap1\n      pop\n        /* \"#utility.yul\":10864:11072   */\n      jump(tag_217)\n    tag_219:\n        /* \"#utility.yul\":11100:11106   */\n      dup7\n        /* \"#utility.yul\":11091:11098   */\n      dup4\n        /* \"#utility.yul\":11088:11107   */\n      lt\n        /* \"#utility.yul\":11085:11264   */\n      iszero\n      tag_220\n      jumpi\n        /* \"#utility.yul\":11158:11167   */\n      dup5\n        /* \"#utility.yul\":11153:11156   */\n      dup10\n        /* \"#utility.yul\":11149:11168   */\n      add\n        /* \"#utility.yul\":11143:11169   */\n      mload\n        /* \"#utility.yul\":11201:11249   */\n      tag_221\n        /* \"#utility.yul\":11243:11247   */\n      0x1f\n        /* \"#utility.yul\":11235:11241   */\n      dup10\n        /* \"#utility.yul\":11231:11248   */\n      and\n        /* \"#utility.yul\":11220:11229   */\n      dup3\n        /* \"#utility.yul\":11201:11249   */\n      tag_84\n      jump\t// in\n    tag_221:\n        /* \"#utility.yul\":11193:11199   */\n      dup4\n        /* \"#utility.yul\":11186:11250   */\n      sstore\n        /* \"#utility.yul\":11108:11264   */\n      pop\n        /* \"#utility.yul\":11085:11264   */\n    tag_220:\n        /* \"#utility.yul\":11310:11311   */\n      0x01\n        /* \"#utility.yul\":11306:11307   */\n      0x02\n        /* \"#utility.yul\":11298:11304   */\n      dup9\n        /* \"#utility.yul\":11294:11308   */\n      mul\n        /* \"#utility.yul\":11290:11312   */\n      add\n        /* \"#utility.yul\":11284:11288   */\n      dup9\n        /* \"#utility.yul\":11277:11313   */\n      sstore\n        /* \"#utility.yul\":10712:11323   */\n      pop\n      pop\n      pop\n        /* \"#utility.yul\":10675:11562   */\n    tag_212:\n      pop\n        /* \"#utility.yul\":10265:11568   */\n      pop\n      pop\n      pop\n        /* \"#utility.yul\":10173:11568   */\n      pop\n      pop\n      jump\t// out\n        /* \"#utility.yul\":11574:11807   */\n    tag_45:\n        /* \"#utility.yul\":11613:11616   */\n      0x00\n        /* \"#utility.yul\":11636:11660   */\n      tag_223\n        /* \"#utility.yul\":11654:11659   */\n      dup3\n        /* \"#utility.yul\":11636:11660   */\n      tag_51\n      jump\t// in\n    tag_223:\n        /* \"#utility.yul\":11627:11660   */\n      swap2\n      pop\n        /* \"#utility.yul\":11682:11748   */\n      0xffffffffffffffffffffffffffffffffffffffffffffffffffffffffffffffff\n        /* \"#utility.yul\":11675:11680   */\n      dup3\n        /* \"#utility.yul\":11672:11749   */\n      sub\n        /* \"#utility.yul\":11669:11772   */\n      tag_224\n      jumpi\n        /* \"#utility.yul\":11752:11770   */\n      tag_225\n      tag_70\n      jump\t// in\n    tag_225:\n        /* \"#utility.yul\":11669:11772   */\n    tag_224:\n        /* \"#utility.yul\":11799:11800   */\n      0x01\n        /* \"#utility.yul\":11792:11797   */\n      dup3\n        /* \"#utility.yul\":11788:11801   */\n      add\n        /* \"#utility.yul\":11781:11801   */\n      swap1\n      pop\n        /* \"#utility.yul\":11574:11807   */\n      swap2\n      swap1\n      pop\n      jump\t// out\n\n    auxdata: 0xa26469706673582212209ec81c53627f6ba3404f6f0799ca93ad9d4c313517dc72cb741bbe2c3c6017ae64736f6c63430008180033\n}\n",
				"bytecode": {
					"linkReferences": {},
					"object": "608060405234801561001057600080fd5b50610af4806100206000396000f3fe608060405234801561001057600080fd5b506004361061004c5760003560e01c80637a8e8526146100515780639405c78f14610083578063d472f0381461009f578063d4980949146100bd575b600080fd5b61006b6004803603810190610066919061042c565b6100ed565b60405161007a939291906104f8565b60405180910390f35b61009d60048036038101906100989190610536565b61019f565b005b6100a761031c565b6040516100b49190610576565b60405180910390f35b6100d760048036038101906100d291906106c6565b610322565b6040516100e49190610576565b60405180910390f35b600060205280600052604060002060009150905080600001805461011090610764565b80601f016020809104026020016040519081016040528092919081815260200182805461013c90610764565b80156101895780601f1061015e57610100808354040283529160200191610189565b820191906000526020600020905b81548152906001019060200180831161016c57829003601f168201915b5050505050908060010154908060020154905083565b604051806060016040528060008085815260200190815260200160002060000180546101ca90610764565b80601f01602080910402602001604051908101604052809291908181526020018280546101f690610764565b80156102435780601f1061021857610100808354040283529160200191610243565b820191906000526020600020905b81548152906001019060200180831161022657829003601f168201915b50505050508152602001826000808681526020019081526020016000206001015461026e91906107c4565b81526020016000808581526020019081526020016000206002015481525060008084815260200190815260200160002060008201518160000190816102b391906109a4565b506020820151816001015560408201518160020155905050817f8b8dc02fa611075efc1241daba0e953699ed8b00d177cc4cd5ffe82696af2c09600080858152602001908152602001600020600101546040516103109190610576565b60405180910390a25050565b60015481565b60006001600081548092919061033790610a76565b91905055506040518060600160405280858152602001848152602001838152506000806001548152602001908152602001600020600082015181600001908161038091906109a4565b5060208201518160010155604082015181600201559050506001547fc8db13941026367bf1e63c64329e42ab6ae1229de97f0bf59b82e8507ad713b88585856040516103ce939291906104f8565b60405180910390a260015490509392505050565b6000604051905090565b600080fd5b600080fd5b6000819050919050565b610409816103f6565b811461041457600080fd5b50565b60008135905061042681610400565b92915050565b600060208284031215610442576104416103ec565b5b600061045084828501610417565b91505092915050565b600081519050919050565b600082825260208201905092915050565b60005b83811015610493578082015181840152602081019050610478565b60008484015250505050565b6000601f19601f8301169050919050565b60006104bb82610459565b6104c58185610464565b93506104d5818560208601610475565b6104de8161049f565b840191505092915050565b6104f2816103f6565b82525050565b6000606082019050818103600083015261051281866104b0565b905061052160208301856104e9565b61052e60408301846104e9565b949350505050565b6000806040838503121561054d5761054c6103ec565b5b600061055b85828601610417565b925050602061056c85828601610417565b9150509250929050565b600060208201905061058b60008301846104e9565b92915050565b600080fd5b600080fd5b7f4e487b7100000000000000000000000000000000000000000000000000000000600052604160045260246000fd5b6105d38261049f565b810181811067ffffffffffffffff821117156105f2576105f161059b565b5b80604052505050565b60006106056103e2565b905061061182826105ca565b919050565b600067ffffffffffffffff8211156106315761063061059b565b5b61063a8261049f565b9050602081019050919050565b82818337600083830152505050565b600061066961066484610616565b6105fb565b90508281526020810184848401111561068557610684610596565b5b610690848285610647565b509392505050565b600082601f8301126106ad576106ac610591565b5b81356106bd848260208601610656565b91505092915050565b6000806000606084860312156106df576106de6103ec565b5b600084013567ffffffffffffffff8111156106fd576106fc6103f1565b5b61070986828701610698565b935050602061071a86828701610417565b925050604061072b86828701610417565b9150509250925092565b7f4e487b7100000000000000000000000000000000000000000000000000000000600052602260045260246000fd5b6000600282049050600182168061077c57607f821691505b60208210810361078f5761078e610735565b5b50919050565b7f4e487b7100000000000000000000000000000000000000000000000000000000600052601160045260246000fd5b60006107cf826103f6565b91506107da836103f6565b92508282039050818111156107f2576107f1610795565b5b92915050565b60008190508160005260206000209050919050565b60006020601f8301049050919050565b600082821b905092915050565b60006008830261085a7fffffffffffffffffffffffffffffffffffffffffffffffffffffffffffffffff8261081d565b610864868361081d565b95508019841693508086168417925050509392505050565b6000819050919050565b60006108a161089c610897846103f6565b61087c565b6103f6565b9050919050565b6000819050919050565b6108bb83610886565b6108cf6108c7826108a8565b84845461082a565b825550505050565b600090565b6108e46108d7565b6108ef8184846108b2565b505050565b5b81811015610913576109086000826108dc565b6001810190506108f5565b5050565b601f82111561095857610929816107f8565b6109328461080d565b81016020851015610941578190505b61095561094d8561080d565b8301826108f4565b50505b505050565b600082821c905092915050565b600061097b6000198460080261095d565b1980831691505092915050565b6000610994838361096a565b9150826002028217905092915050565b6109ad82610459565b67ffffffffffffffff8111156109c6576109c561059b565b5b6109d08254610764565b6109db828285610917565b600060209050601f831160018114610a0e57600084156109fc578287015190505b610a068582610988565b865550610a6e565b601f198416610a1c866107f8565b60005b82811015610a4457848901518255600182019150602085019450602081019050610a1f565b86831015610a615784890151610a5d601f89168261096a565b8355505b6001600288020188555050505b505050505050565b6000610a81826103f6565b91507fffffffffffffffffffffffffffffffffffffffffffffffffffffffffffffffff8203610ab357610ab2610795565b5b60018201905091905056fea26469706673582212209ec81c53627f6ba3404f6f0799ca93ad9d4c313517dc72cb741bbe2c3c6017ae64736f6c63430008180033",
					"opcodes": "PUSH1 0x80 PUSH1 0x40 MSTORE CALLVALUE DUP1 ISZERO PUSH2 0x10 JUMPI PUSH1 0x0 DUP1 REVERT JUMPDEST POP PUSH2 0xAF4 DUP1 PUSH2 0x20 PUSH1 0x0 CODECOPY PUSH1 0x0 RETURN INVALID PUSH1 0x80 PUSH1 0x40 MSTORE CALLVALUE DUP1 ISZERO PUSH2 0x10 JUMPI PUSH1 0x0 DUP1 REVERT JUMPDEST POP PUSH1 0x4 CALLDATASIZE LT PUSH2 0x4C JUMPI PUSH1 0x0 CALLDATALOAD PUSH1 0xE0 SHR DUP1 PUSH4 0x7A8E8526 EQ PUSH2 0x51 JUMPI DUP1 PUSH4 0x9405C78F EQ PUSH2 0x83 JUMPI DUP1 PUSH4 0xD472F038 EQ PUSH2 0x9F JUMPI DUP1 PUSH4 0xD4980949 EQ PUSH2 0xBD JUMPI JUMPDEST PUSH1 0x0 DUP1 REVERT JUMPDEST PUSH2 0x6B PUSH1 0x4 DUP1 CALLDATASIZE SUB DUP2 ADD SWAP1 PUSH2 0x66 SWAP2 SWAP1 PUSH2 0x42C JUMP JUMPDEST PUSH2 0xED JUMP JUMPDEST PUSH1 0x40 MLOAD PUSH2 0x7A SWAP4 SWAP3 SWAP2 SWAP1 PUSH2 0x4F8 JUMP JUMPDEST PUSH1 0x40 MLOAD DUP1 SWAP2 SUB SWAP1 RETURN JUMPDEST PUSH2 0x9D PUSH1 0x4 DUP1 CALLDATASIZE SUB DUP2 ADD SWAP1 PUSH2 0x98 SWAP2 SWAP1 PUSH2 0x536 JUMP JUMPDEST PUSH2 0x19F JUMP JUMPDEST STOP JUMPDEST PUSH2 0xA7 PUSH2 0x31C JUMP JUMPDEST PUSH1 0x40 MLOAD PUSH2 0xB4 SWAP2 SWAP1 PUSH2 0x576 JUMP JUMPDEST PUSH1 0x40 MLOAD DUP1 SWAP2 SUB SWAP1 RETURN JUMPDEST PUSH2 0xD7 PUSH1 0x4 DUP1 CALLDATASIZE SUB DUP2 ADD SWAP1 PUSH2 0xD2 SWAP2 SWAP1 PUSH2 0x6C6 JUMP JUMPDEST PUSH2 0x322 JUMP JUMPDEST PUSH1 0x40 MLOAD PUSH2 0xE4 SWAP2 SWAP1 PUSH2 0x576 JUMP JUMPDEST PUSH1 0x40 MLOAD DUP1 SWAP2 SUB SWAP1 RETURN JUMPDEST PUSH1 0x0 PUSH1 0x20 MSTORE DUP1 PUSH1 0x0 MSTORE PUSH1 0x40 PUSH1 0x0 KECCAK256 PUSH1 0x0 SWAP2 POP SWAP1 POP DUP1 PUSH1 0x0 ADD DUP1 SLOAD PUSH2 0x110 SWAP1 PUSH2 0x764 JUMP JUMPDEST DUP1 PUSH1 0x1F ADD PUSH1 0x20 DUP1 SWAP2 DIV MUL PUSH1 0x20 ADD PUSH1 0x40 MLOAD SWAP1 DUP2 ADD PUSH1 0x40 MSTORE DUP1 SWAP3 SWAP2 SWAP1 DUP2 DUP2 MSTORE PUSH1 0x20 ADD DUP3 DUP1 SLOAD PUSH2 0x13C SWAP1 PUSH2 0x764 JUMP JUMPDEST DUP1 ISZERO PUSH2 0x189 JUMPI DUP1 PUSH1 0x1F LT PUSH2 0x15E JUMPI PUSH2 0x100 DUP1 DUP4 SLOAD DIV MUL DUP4 MSTORE SWAP2 PUSH1 0x20 ADD SWAP2 PUSH2 0x189 JUMP JUMPDEST DUP3 ADD SWAP2 SWAP1 PUSH1 0x0 MSTORE PUSH1 0x20 PUSH1 0x0 KECCAK256 SWAP1 JUMPDEST DUP2 SLOAD DUP2 MSTORE SWAP1 PUSH1 0x1 ADD SWAP1 PUSH1 0x20 ADD DUP1 DUP4 GT PUSH2 0x16C JUMPI DUP3 SWAP1 SUB PUSH1 0x1F AND DUP3 ADD SWAP2 JUMPDEST POP POP POP POP POP SWAP1 DUP1 PUSH1 0x1 ADD SLOAD SWAP1 DUP1 PUSH1 0x2 ADD SLOAD SWAP1 POP DUP4 JUMP JUMPDEST PUSH1 0x40 MLOAD DUP1 PUSH1 0x60 ADD PUSH1 0x40 MSTORE DUP1 PUSH1 0x0 DUP1 DUP6 DUP2 MSTORE PUSH1 0x20 ADD SWAP1 DUP2 MSTORE PUSH1 0x20 ADD PUSH1 0x0 KECCAK256 PUSH1 0x0 ADD DUP1 SLOAD PUSH2 0x1CA SWAP1 PUSH2 0x764 JUMP JUMPDEST DUP1 PUSH1 0x1F ADD PUSH1 0x20 DUP1 SWAP2 DIV MUL PUSH1 0x20 ADD PUSH1 0x40 MLOAD SWAP1 DUP2 ADD PUSH1 0x40 MSTORE DUP1 SWAP3 SWAP2 SWAP1 DUP2 DUP2 MSTORE PUSH1 0x20 ADD DUP3 DUP1 SLOAD PUSH2 0x1F6 SWAP1 PUSH2 0x764 JUMP JUMPDEST DUP1 ISZERO PUSH2 0x243 JUMPI DUP1 PUSH1 0x1F LT PUSH2 0x218 JUMPI PUSH2 0x100 DUP1 DUP4 SLOAD DIV MUL DUP4 MSTORE SWAP2 PUSH1 0x20 ADD SWAP2 PUSH2 0x243 JUMP JUMPDEST DUP3 ADD SWAP2 SWAP1 PUSH1 0x0 MSTORE PUSH1 0x20 PUSH1 0x0 KECCAK256 SWAP1 JUMPDEST DUP2 SLOAD DUP2 MSTORE SWAP1 PUSH1 0x1 ADD SWAP1 PUSH1 0x20 ADD DUP1 DUP4 GT PUSH2 0x226 JUMPI DUP3 SWAP1 SUB PUSH1 0x1F AND DUP3 ADD SWAP2 JUMPDEST POP POP POP POP POP DUP2 MSTORE PUSH1 0x20 ADD DUP3 PUSH1 0x0 DUP1 DUP7 DUP2 MSTORE PUSH1 0x20 ADD SWAP1 DUP2 MSTORE PUSH1 0x20 ADD PUSH1 0x0 KECCAK256 PUSH1 0x1 ADD SLOAD PUSH2 0x26E SWAP2 SWAP1 PUSH2 0x7C4 JUMP JUMPDEST DUP2 MSTORE PUSH1 0x20 ADD PUSH1 0x0 DUP1 DUP6 DUP2 MSTORE PUSH1 0x20 ADD SWAP1 DUP2 MSTORE PUSH1 0x20 ADD PUSH1 0x0 KECCAK256 PUSH1 0x2 ADD SLOAD DUP2 MSTORE POP PUSH1 0x0 DUP1 DUP5 DUP2 MSTORE PUSH1 0x20 ADD SWAP1 DUP2 MSTORE PUSH1 0x20 ADD PUSH1 0x0 KECCAK256 PUSH1 0x0 DUP3 ADD MLOAD DUP2 PUSH1 0x0 ADD SWAP1 DUP2 PUSH2 0x2B3 SWAP2 SWAP1 PUSH2 0x9A4 JUMP JUMPDEST POP PUSH1 0x20 DUP3 ADD MLOAD DUP2 PUSH1 0x1 ADD SSTORE PUSH1 0x40 DUP3 ADD MLOAD DUP2 PUSH1 0x2 ADD SSTORE SWAP1 POP POP DUP2 PUSH32 0x8B8DC02FA611075EFC1241DABA0E953699ED8B00D177CC4CD5FFE82696AF2C09 PUSH1 0x0 DUP1 DUP6 DUP2 MSTORE PUSH1 0x20 ADD SWAP1 DUP2 MSTORE PUSH1 0x20 ADD PUSH1 0x0 KECCAK256 PUSH1 0x1 ADD SLOAD PUSH1 0x40 MLOAD PUSH2 0x310 SWAP2 SWAP1 PUSH2 0x576 JUMP JUMPDEST PUSH1 0x40 MLOAD DUP1 SWAP2 SUB SWAP1 LOG2 POP POP JUMP JUMPDEST PUSH1 0x1 SLOAD DUP2 JUMP JUMPDEST PUSH1 0x0 PUSH1 0x1 PUSH1 0x0 DUP2 SLOAD DUP1 SWAP3 SWAP2 SWAP1 PUSH2 0x337 SWAP1 PUSH2 0xA76 JUMP JUMPDEST SWAP2 SWAP1 POP SSTORE POP PUSH1 0x40 MLOAD DUP1 PUSH1 0x60 ADD PUSH1 0x40 MSTORE DUP1 DUP6 DUP2 MSTORE PUSH1 0x20 ADD DUP5 DUP2 MSTORE PUSH1 0x20 ADD DUP4 DUP2 MSTORE POP PUSH1 0x0 DUP1 PUSH1 0x1 SLOAD DUP2 MSTORE PUSH1 0x20 ADD SWAP1 DUP2 MSTORE PUSH1 0x20 ADD PUSH1 0x0 KECCAK256 PUSH1 0x0 DUP3 ADD MLOAD DUP2 PUSH1 0x0 ADD SWAP1 DUP2 PUSH2 0x380 SWAP2 SWAP1 PUSH2 0x9A4 JUMP JUMPDEST POP PUSH1 0x20 DUP3 ADD MLOAD DUP2 PUSH1 0x1 ADD SSTORE PUSH1 0x40 DUP3 ADD MLOAD DUP2 PUSH1 0x2 ADD SSTORE SWAP1 POP POP PUSH1 0x1 SLOAD PUSH32 0xC8DB13941026367BF1E63C64329E42AB6AE1229DE97F0BF59B82E8507AD713B8 DUP6 DUP6 DUP6 PUSH1 0x40 MLOAD PUSH2 0x3CE SWAP4 SWAP3 SWAP2 SWAP1 PUSH2 0x4F8 JUMP JUMPDEST PUSH1 0x40 MLOAD DUP1 SWAP2 SUB SWAP1 LOG2 PUSH1 0x1 SLOAD SWAP1 POP SWAP4 SWAP3 POP POP POP JUMP JUMPDEST PUSH1 0x0 PUSH1 0x40 MLOAD SWAP1 POP SWAP1 JUMP JUMPDEST PUSH1 0x0 DUP1 REVERT JUMPDEST PUSH1 0x0 DUP1 REVERT JUMPDEST PUSH1 0x0 DUP2 SWAP1 POP SWAP2 SWAP1 POP JUMP JUMPDEST PUSH2 0x409 DUP2 PUSH2 0x3F6 JUMP JUMPDEST DUP2 EQ PUSH2 0x414 JUMPI PUSH1 0x0 DUP1 REVERT JUMPDEST POP JUMP JUMPDEST PUSH1 0x0 DUP2 CALLDATALOAD SWAP1 POP PUSH2 0x426 DUP2 PUSH2 0x400 JUMP JUMPDEST SWAP3 SWAP2 POP POP JUMP JUMPDEST PUSH1 0x0 PUSH1 0x20 DUP3 DUP5 SUB SLT ISZERO PUSH2 0x442 JUMPI PUSH2 0x441 PUSH2 0x3EC JUMP JUMPDEST JUMPDEST PUSH1 0x0 PUSH2 0x450 DUP5 DUP3 DUP6 ADD PUSH2 0x417 JUMP JUMPDEST SWAP2 POP POP SWAP3 SWAP2 POP POP JUMP JUMPDEST PUSH1 0x0 DUP2 MLOAD SWAP1 POP SWAP2 SWAP1 POP JUMP JUMPDEST PUSH1 0x0 DUP3 DUP3 MSTORE PUSH1 0x20 DUP3 ADD SWAP1 POP SWAP3 SWAP2 POP POP JUMP JUMPDEST PUSH1 0x0 JUMPDEST DUP4 DUP2 LT ISZERO PUSH2 0x493 JUMPI DUP1 DUP3 ADD MLOAD DUP2 DUP5 ADD MSTORE PUSH1 0x20 DUP2 ADD SWAP1 POP PUSH2 0x478 JUMP JUMPDEST PUSH1 0x0 DUP5 DUP5 ADD MSTORE POP POP POP POP JUMP JUMPDEST PUSH1 0x0 PUSH1 0x1F NOT PUSH1 0x1F DUP4 ADD AND SWAP1 POP SWAP2 SWAP1 POP JUMP JUMPDEST PUSH1 0x0 PUSH2 0x4BB DUP3 PUSH2 0x459 JUMP JUMPDEST PUSH2 0x4C5 DUP2 DUP6 PUSH2 0x464 JUMP JUMPDEST SWAP4 POP PUSH2 0x4D5 DUP2 DUP6 PUSH1 0x20 DUP7 ADD PUSH2 0x475 JUMP JUMPDEST PUSH2 0x4DE DUP2 PUSH2 0x49F JUMP JUMPDEST DUP5 ADD SWAP2 POP POP SWAP3 SWAP2 POP POP JUMP JUMPDEST PUSH2 0x4F2 DUP2 PUSH2 0x3F6 JUMP JUMPDEST DUP3 MSTORE POP POP JUMP JUMPDEST PUSH1 0x0 PUSH1 0x60 DUP3 ADD SWAP1 POP DUP2 DUP2 SUB PUSH1 0x0 DUP4 ADD MSTORE PUSH2 0x512 DUP2 DUP7 PUSH2 0x4B0 JUMP JUMPDEST SWAP1 POP PUSH2 0x521 PUSH1 0x20 DUP4 ADD DUP6 PUSH2 0x4E9 JUMP JUMPDEST PUSH2 0x52E PUSH1 0x40 DUP4 ADD DUP5 PUSH2 0x4E9 JUMP JUMPDEST SWAP5 SWAP4 POP POP POP POP JUMP JUMPDEST PUSH1 0x0 DUP1 PUSH1 0x40 DUP4 DUP6 SUB SLT ISZERO PUSH2 0x54D JUMPI PUSH2 0x54C PUSH2 0x3EC JUMP JUMPDEST JUMPDEST PUSH1 0x0 PUSH2 0x55B DUP6 DUP3 DUP7 ADD PUSH2 0x417 JUMP JUMPDEST SWAP3 POP POP PUSH1 0x20 PUSH2 0x56C DUP6 DUP3 DUP7 ADD PUSH2 0x417 JUMP JUMPDEST SWAP2 POP POP SWAP3 POP SWAP3 SWAP1 POP JUMP JUMPDEST PUSH1 0x0 PUSH1 0x20 DUP3 ADD SWAP1 POP PUSH2 0x58B PUSH1 0x0 DUP4 ADD DUP5 PUSH2 0x4E9 JUMP JUMPDEST SWAP3 SWAP2 POP POP JUMP JUMPDEST PUSH1 0x0 DUP1 REVERT JUMPDEST PUSH1 0x0 DUP1 REVERT JUMPDEST PUSH32 0x4E487B7100000000000000000000000000000000000000000000000000000000 PUSH1 0x0 MSTORE PUSH1 0x41 PUSH1 0x4 MSTORE PUSH1 0x24 PUSH1 0x0 REVERT JUMPDEST PUSH2 0x5D3 DUP3 PUSH2 0x49F JUMP JUMPDEST DUP2 ADD DUP2 DUP2 LT PUSH8 0xFFFFFFFFFFFFFFFF DUP3 GT OR ISZERO PUSH2 0x5F2 JUMPI PUSH2 0x5F1 PUSH2 0x59B JUMP JUMPDEST JUMPDEST DUP1 PUSH1 0x40 MSTORE POP POP POP JUMP JUMPDEST PUSH1 0x0 PUSH2 0x605 PUSH2 0x3E2 JUMP JUMPDEST SWAP1 POP PUSH2 0x611 DUP3 DUP3 PUSH2 0x5CA JUMP JUMPDEST SWAP2 SWAP1 POP JUMP JUMPDEST PUSH1 0x0 PUSH8 0xFFFFFFFFFFFFFFFF DUP3 GT ISZERO PUSH2 0x631 JUMPI PUSH2 0x630 PUSH2 0x59B JUMP JUMPDEST JUMPDEST PUSH2 0x63A DUP3 PUSH2 0x49F JUMP JUMPDEST SWAP1 POP PUSH1 0x20 DUP2 ADD SWAP1 POP SWAP2 SWAP1 POP JUMP JUMPDEST DUP3 DUP2 DUP4 CALLDATACOPY PUSH1 0x0 DUP4 DUP4 ADD MSTORE POP POP POP JUMP JUMPDEST PUSH1 0x0 PUSH2 0x669 PUSH2 0x664 DUP5 PUSH2 0x616 JUMP JUMPDEST PUSH2 0x5FB JUMP JUMPDEST SWAP1 POP DUP3 DUP2 MSTORE PUSH1 0x20 DUP2 ADD DUP5 DUP5 DUP5 ADD GT ISZERO PUSH2 0x685 JUMPI PUSH2 0x684 PUSH2 0x596 JUMP JUMPDEST JUMPDEST PUSH2 0x690 DUP5 DUP3 DUP6 PUSH2 0x647 JUMP JUMPDEST POP SWAP4 SWAP3 POP POP POP JUMP JUMPDEST PUSH1 0x0 DUP3 PUSH1 0x1F DUP4 ADD SLT PUSH2 0x6AD JUMPI PUSH2 0x6AC PUSH2 0x591 JUMP JUMPDEST JUMPDEST DUP2 CALLDATALOAD PUSH2 0x6BD DUP5 DUP3 PUSH1 0x20 DUP7 ADD PUSH2 0x656 JUMP JUMPDEST SWAP2 POP POP SWAP3 SWAP2 POP POP JUMP JUMPDEST PUSH1 0x0 DUP1 PUSH1 0x0 PUSH1 0x60 DUP5 DUP7 SUB SLT ISZERO PUSH2 0x6DF JUMPI PUSH2 0x6DE PUSH2 0x3EC JUMP JUMPDEST JUMPDEST PUSH1 0x0 DUP5 ADD CALLDATALOAD PUSH8 0xFFFFFFFFFFFFFFFF DUP2 GT ISZERO PUSH2 0x6FD JUMPI PUSH2 0x6FC PUSH2 0x3F1 JUMP JUMPDEST JUMPDEST PUSH2 0x709 DUP7 DUP3 DUP8 ADD PUSH2 0x698 JUMP JUMPDEST SWAP4 POP POP PUSH1 0x20 PUSH2 0x71A DUP7 DUP3 DUP8 ADD PUSH2 0x417 JUMP JUMPDEST SWAP3 POP POP PUSH1 0x40 PUSH2 0x72B DUP7 DUP3 DUP8 ADD PUSH2 0x417 JUMP JUMPDEST SWAP2 POP POP SWAP3 POP SWAP3 POP SWAP3 JUMP JUMPDEST PUSH32 0x4E487B7100000000000000000000000000000000000000000000000000000000 PUSH1 0x0 MSTORE PUSH1 0x22 PUSH1 0x4 MSTORE PUSH1 0x24 PUSH1 0x0 REVERT JUMPDEST PUSH1 0x0 PUSH1 0x2 DUP3 DIV SWAP1 POP PUSH1 0x1 DUP3 AND DUP1 PUSH2 0x77C JUMPI PUSH1 0x7F DUP3 AND SWAP2 POP JUMPDEST PUSH1 0x20 DUP3 LT DUP2 SUB PUSH2 0x78F JUMPI PUSH2 0x78E PUSH2 0x735 JUMP JUMPDEST JUMPDEST POP SWAP2 SWAP1 POP JUMP JUMPDEST PUSH32 0x4E487B7100000000000000000000000000000000000000000000000000000000 PUSH1 0x0 MSTORE PUSH1 0x11 PUSH1 0x4 MSTORE PUSH1 0x24 PUSH1 0x0 REVERT JUMPDEST PUSH1 0x0 PUSH2 0x7CF DUP3 PUSH2 0x3F6 JUMP JUMPDEST SWAP2 POP PUSH2 0x7DA DUP4 PUSH2 0x3F6 JUMP JUMPDEST SWAP3 POP DUP3 DUP3 SUB SWAP1 POP DUP2 DUP2 GT ISZERO PUSH2 0x7F2 JUMPI PUSH2 0x7F1 PUSH2 0x795 JUMP JUMPDEST JUMPDEST SWAP3 SWAP2 POP POP JUMP JUMPDEST PUSH1 0x0 DUP2 SWAP1 POP DUP2 PUSH1 0x0 MSTORE PUSH1 0x20 PUSH1 0x0 KECCAK256 SWAP1 POP SWAP2 SWAP1 POP JUMP JUMPDEST PUSH1 0x0 PUSH1 0x20 PUSH1 0x1F DUP4 ADD DIV SWAP1 POP SWAP2 SWAP1 POP JUMP JUMPDEST PUSH1 0x0 DUP3 DUP3 SHL SWAP1 POP SWAP3 SWAP2 POP POP JUMP JUMPDEST PUSH1 0x0 PUSH1 0x8 DUP4 MUL PUSH2 0x85A PUSH32 0xFFFFFFFFFFFFFFFFFFFFFFFFFFFFFFFFFFFFFFFFFFFFFFFFFFFFFFFFFFFFFFFF DUP3 PUSH2 0x81D JUMP JUMPDEST PUSH2 0x864 DUP7 DUP4 PUSH2 0x81D JUMP JUMPDEST SWAP6 POP DUP1 NOT DUP5 AND SWAP4 POP DUP1 DUP7 AND DUP5 OR SWAP3 POP POP POP SWAP4 SWAP3 POP POP POP JUMP JUMPDEST PUSH1 0x0 DUP2 SWAP1 POP SWAP2 SWAP1 POP JUMP JUMPDEST PUSH1 0x0 PUSH2 0x8A1 PUSH2 0x89C PUSH2 0x897 DUP5 PUSH2 0x3F6 JUMP JUMPDEST PUSH2 0x87C JUMP JUMPDEST PUSH2 0x3F6 JUMP JUMPDEST SWAP1 POP SWAP2 SWAP1 POP JUMP JUMPDEST PUSH1 0x0 DUP2 SWAP1 POP SWAP2 SWAP1 POP JUMP JUMPDEST PUSH2 0x8BB DUP4 PUSH2 0x886 JUMP JUMPDEST PUSH2 0x8CF PUSH2 0x8C7 DUP3 PUSH2 0x8A8 JUMP JUMPDEST DUP5 DUP5 SLOAD PUSH2 0x82A JUMP JUMPDEST DUP3 SSTORE POP POP POP POP JUMP JUMPDEST PUSH1 0x0 SWAP1 JUMP JUMPDEST PUSH2 0x8E4 PUSH2 0x8D7 JUMP JUMPDEST PUSH2 0x8EF DUP2 DUP5 DUP5 PUSH2 0x8B2 JUMP JUMPDEST POP POP POP JUMP JUMPDEST JUMPDEST DUP2 DUP2 LT ISZERO PUSH2 0x913 JUMPI PUSH2 0x908 PUSH1 0x0 DUP3 PUSH2 0x8DC JUMP JUMPDEST PUSH1 0x1 DUP2 ADD SWAP1 POP PUSH2 0x8F5 JUMP JUMPDEST POP POP JUMP JUMPDEST PUSH1 0x1F DUP3 GT ISZERO PUSH2 0x958 JUMPI PUSH2 0x929 DUP2 PUSH2 0x7F8 JUMP JUMPDEST PUSH2 0x932 DUP5 PUSH2 0x80D JUMP JUMPDEST DUP2 ADD PUSH1 0x20 DUP6 LT ISZERO PUSH2 0x941 JUMPI DUP2 SWAP1 POP JUMPDEST PUSH2 0x955 PUSH2 0x94D DUP6 PUSH2 0x80D JUMP JUMPDEST DUP4 ADD DUP3 PUSH2 0x8F4 JUMP JUMPDEST POP POP JUMPDEST POP POP POP JUMP JUMPDEST PUSH1 0x0 DUP3 DUP3 SHR SWAP1 POP SWAP3 SWAP2 POP POP JUMP JUMPDEST PUSH1 0x0 PUSH2 0x97B PUSH1 0x0 NOT DUP5 PUSH1 0x8 MUL PUSH2 0x95D JUMP JUMPDEST NOT DUP1 DUP4 AND SWAP2 POP POP SWAP3 SWAP2 POP POP JUMP JUMPDEST PUSH1 0x0 PUSH2 0x994 DUP4 DUP4 PUSH2 0x96A JUMP JUMPDEST SWAP2 POP DUP3 PUSH1 0x2 MUL DUP3 OR SWAP1 POP SWAP3 SWAP2 POP POP JUMP JUMPDEST PUSH2 0x9AD DUP3 PUSH2 0x459 JUMP JUMPDEST PUSH8 0xFFFFFFFFFFFFFFFF DUP2 GT ISZERO PUSH2 0x9C6 JUMPI PUSH2 0x9C5 PUSH2 0x59B JUMP JUMPDEST JUMPDEST PUSH2 0x9D0 DUP3 SLOAD PUSH2 0x764 JUMP JUMPDEST PUSH2 0x9DB DUP3 DUP3 DUP6 PUSH2 0x917 JUMP JUMPDEST PUSH1 0x0 PUSH1 0x20 SWAP1 POP PUSH1 0x1F DUP4 GT PUSH1 0x1 DUP2 EQ PUSH2 0xA0E JUMPI PUSH1 0x0 DUP5 ISZERO PUSH2 0x9FC JUMPI DUP3 DUP8 ADD MLOAD SWAP1 POP JUMPDEST PUSH2 0xA06 DUP6 DUP3 PUSH2 0x988 JUMP JUMPDEST DUP7 SSTORE POP PUSH2 0xA6E JUMP JUMPDEST PUSH1 0x1F NOT DUP5 AND PUSH2 0xA1C DUP7 PUSH2 0x7F8 JUMP JUMPDEST PUSH1 0x0 JUMPDEST DUP3 DUP2 LT ISZERO PUSH2 0xA44 JUMPI DUP5 DUP10 ADD MLOAD DUP3 SSTORE PUSH1 0x1 DUP3 ADD SWAP2 POP PUSH1 0x20 DUP6 ADD SWAP5 POP PUSH1 0x20 DUP2 ADD SWAP1 POP PUSH2 0xA1F JUMP JUMPDEST DUP7 DUP4 LT ISZERO PUSH2 0xA61 JUMPI DUP5 DUP10 ADD MLOAD PUSH2 0xA5D PUSH1 0x1F DUP10 AND DUP3 PUSH2 0x96A JUMP JUMPDEST DUP4 SSTORE POP JUMPDEST PUSH1 0x1 PUSH1 0x2 DUP9 MUL ADD DUP9 SSTORE POP POP POP JUMPDEST POP POP POP POP POP POP JUMP JUMPDEST PUSH1 0x0 PUSH2 0xA81 DUP3 PUSH2 0x3F6 JUMP JUMPDEST SWAP2 POP PUSH32 0xFFFFFFFFFFFFFFFFFFFFFFFFFFFFFFFFFFFFFFFFFFFFFFFFFFFFFFFFFFFFFFFF DUP3 SUB PUSH2 0xAB3 JUMPI PUSH2 0xAB2 PUSH2 0x795 JUMP JUMPDEST JUMPDEST PUSH1 0x1 DUP3 ADD SWAP1 POP SWAP2 SWAP1 POP JUMP INVALID LOG2 PUSH5 0x6970667358 0x22 SLT KECCAK256 SWAP15 0xC8 SHR MSTORE8 PUSH3 0x7F6BA3 BLOCKHASH 0x4F PUSH16 0x799CA93AD9D4C313517DC72CB741BBE 0x2C EXTCODECOPY PUSH1 0x17 0xAE PUSH5 0x736F6C6343 STOP ADDMOD XOR STOP CALLER "
				},
				"gasEstimates": {
					"creation": {
						"codeDepositCost": "560800",
						"executionCost": "594",
						"totalCost": "561394"
					},
					"external": {
						"addMaterial(string,uint256,uint256)": "infinite",
						"materialCount()": "2451",
						"materials(uint256)": "infinite",
						"setQuantity(uint256,uint256)": "infinite"
					}
				},
				"methodIdentifiers": {
					"addMaterial(string,uint256,uint256)": "d4980949",
					"materialCount()": "d472f038",
					"materials(uint256)": "7a8e8526",
					"setQuantity(uint256,uint256)": "9405c78f"
				}
			},
			"storageLayout": {
				"storage": [
					{
						"astId": 13,
						"contract": "contracts/Material_Managment.sol:MaterialManagement",
						"label": "materials",
						"offset": 0,
						"slot": "0",
						"type": "t_mapping(t_uint256,t_struct(Material)8_storage)"
					},
					{
						"astId": 15,
						"contract": "contracts/Material_Managment.sol:MaterialManagement",
						"label": "materialCount",
						"offset": 0,
						"slot": "1",
						"type": "t_uint256"
					}
				],
				"types": {
					"t_mapping(t_uint256,t_struct(Material)8_storage)": {
						"encoding": "mapping",
						"key": "t_uint256",
						"label": "mapping(uint256 => struct MaterialManagement.Material)",
						"numberOfBytes": "32",
						"value": "t_struct(Material)8_storage"
					},
					"t_string_storage": {
						"encoding": "bytes",
						"label": "string",
						"numberOfBytes": "32"
					},
					"t_struct(Material)8_storage": {
						"encoding": "inplace",
						"label": "struct MaterialManagement.Material",
						"members": [
							{
								"astId": 3,
								"contract": "contracts/Material_Managment.sol:MaterialManagement",
								"label": "name",
								"offset": 0,
								"slot": "0",
								"type": "t_string_storage"
							},
							{
								"astId": 5,
								"contract": "contracts/Material_Managment.sol:MaterialManagement",
								"label": "quantity",
								"offset": 0,
								"slot": "1",
								"type": "t_uint256"
							},
							{
								"astId": 7,
								"contract": "contracts/Material_Managment.sol:MaterialManagement",
								"label": "price",
								"offset": 0,
								"slot": "2",
								"type": "t_uint256"
							}
						],
						"numberOfBytes": "96"
					},
					"t_uint256": {
						"encoding": "inplace",
						"label": "uint256",
						"numberOfBytes": "32"
					}
				}
			},
			"userdoc": {
				"kind": "user",
				"methods": {},
				"version": 1
			}
		}
	}
}