{
	"data": {
		"bytecode": {
			"linkReferences": {},
			"object": "608060405234801562000010575f80fd5b506040516200113c3803806200113c8339818101604052810190620000369190620000e2565b8060025f6101000a81548173ffffffffffffffffffffffffffffffffffffffff021916908373ffffffffffffffffffffffffffffffffffffffff1602179055505062000112565b5f80fd5b5f73ffffffffffffffffffffffffffffffffffffffff82169050919050565b5f620000ac8262000081565b9050919050565b620000be81620000a0565b8114620000c9575f80fd5b50565b5f81519050620000dc81620000b3565b92915050565b5f60208284031215620000fa57620000f96200007d565b5b5f6200010984828501620000cc565b91505092915050565b61101c80620001205f395ff3fe60806040526004361061006f575f3560e01c80635badbe4c1161004d5780635badbe4c146101105780636d37e5ce1461013a578063b3a3513414610164578063b7cc0a5d146101805761006f565b80631743e5ab146100735780634bc5630f146100a35780634d394c55146100cb575b5f80fd5b61008d60048036038101906100889190610913565b61019c565b60405161009a91906109bf565b60405180910390f35b3480156100ae575f80fd5b506100c960048036038101906100c49190610a32565b610365565b005b3480156100d6575f80fd5b506100f160048036038101906100ec9190610a70565b61054e565b6040516101079a99989796959493929190610aaa565b60405180910390f35b34801561011b575f80fd5b506101246105bc565b60405161013191906109bf565b60405180910390f35b348015610145575f80fd5b5061014e6105c2565b60405161015b9190610b9f565b60405180910390f35b61017e60048036038101906101799190610a70565b6105e7565b005b61019a60048036038101906101959190610a70565b610789565b005b5f8634146101df576040517f08c379a00000000000000000000000000000000000000000000000000000000081526004016101d690610c12565b60405180910390fd5b60015f8154809291906101f190610c5d565b91905055506040518061014001604052806001548152602001898152602001600181526020015f73ffffffffffffffffffffffffffffffffffffffff168152602001888152602001878152602001868152602001858152602001848152602001838152505f8060015481526020019081526020015f205f820151815f015560208201518160010155604082015181600201556060820151816003015f6101000a81548173ffffffffffffffffffffffffffffffffffffffff021916908373ffffffffffffffffffffffffffffffffffffffff1602179055506080820151816004015560a0820151816005015560c0820151816006015560e08201518160070155610100820151816008015561012082015181600901559050506001547f855247db7d799abd3d5d4bad93acd1a53ed8484573c25ec19d443c81a33476ac8960015f8b8b8b8b8b8b60405161034d99989796959493929190610cdd565b60405180910390a26001549050979650505050505050565b5f73ffffffffffffffffffffffffffffffffffffffff165f808481526020019081526020015f206003015f9054906101000a900473ffffffffffffffffffffffffffffffffffffffff1673ffffffffffffffffffffffffffffffffffffffff1614610405576040517f08c379a00000000000000000000000000000000000000000000000000000000081526004016103fc90610db2565b60405180910390fd5b805f808481526020019081526020015f206003015f6101000a81548173ffffffffffffffffffffffffffffffffffffffff021916908373ffffffffffffffffffffffffffffffffffffffff16021790555060025f808481526020019081526020015f20600201819055505f805f8481526020019081526020015f2060010154905060025f9054906101000a900473ffffffffffffffffffffffffffffffffffffffff1673ffffffffffffffffffffffffffffffffffffffff1663deb7bfea8260066040518363ffffffff1660e01b81526004016104e3929190610e09565b5f604051808303815f87803b1580156104fa575f80fd5b505af115801561050c573d5f803e3d5ffd5b50505050827facd6daa7bdb343fd926b8fc930653e20a1f21c99fa6fa731b338100a08530de760026040516105419190610e69565b60405180910390a2505050565b5f602052805f5260405f205f91509050805f015490806001015490806002015490806003015f9054906101000a900473ffffffffffffffffffffffffffffffffffffffff1690806004015490806005015490806006015490806007015490806008015490806009015490508a565b60015481565b60025f9054906101000a900473ffffffffffffffffffffffffffffffffffffffff1681565b5f805f8381526020019081526020015f2060040154905060035f808481526020019081526020015f20600201819055505f805f8481526020019081526020015f2060010154905060025f9054906101000a900473ffffffffffffffffffffffffffffffffffffffff1673ffffffffffffffffffffffffffffffffffffffff1663deb7bfea8260076040518363ffffffff1660e01b815260040161068b929190610ebb565b5f604051808303815f87803b1580156106a2575f80fd5b505af11580156106b4573d5f803e3d5ffd5b505050503373ffffffffffffffffffffffffffffffffffffffff166108fc8390811502906040515f60405180830381858888f193505050501580156106fb573d5f803e3d5ffd5b503373ffffffffffffffffffffffffffffffffffffffff16837f99f2f3325e35634c09536d4983b1b2b0c9313e74f2b74508c7a1a521f6fce9ab8460405161074391906109bf565b60405180910390a3827facd6daa7bdb343fd926b8fc930653e20a1f21c99fa6fa731b338100a08530de7600360405161077c9190610f1b565b60405180910390a2505050565b5f805f8381526020019081526020015f2060040154905060045f808481526020019081526020015f20600201819055505f805f8481526020019081526020015f2060010154905060025f9054906101000a900473ffffffffffffffffffffffffffffffffffffffff1673ffffffffffffffffffffffffffffffffffffffff1663deb7bfea82600b6040518363ffffffff1660e01b815260040161082d929190610f6d565b5f604051808303815f87803b158015610844575f80fd5b505af1158015610856573d5f803e3d5ffd5b505050503373ffffffffffffffffffffffffffffffffffffffff166108fc8390811502906040515f60405180830381858888f1935050505015801561089d573d5f803e3d5ffd5b50827facd6daa7bdb343fd926b8fc930653e20a1f21c99fa6fa731b338100a08530de760046040516108cf9190610fcd565b60405180910390a2505050565b5f80fd5b5f819050919050565b6108f2816108e0565b81146108fc575f80fd5b50565b5f8135905061090d816108e9565b92915050565b5f805f805f805f60e0888a03121561092e5761092d6108dc565b5b5f61093b8a828b016108ff565b975050602061094c8a828b016108ff565b965050604061095d8a828b016108ff565b955050606061096e8a828b016108ff565b945050608061097f8a828b016108ff565b93505060a06109908a828b016108ff565b92505060c06109a18a828b016108ff565b91505092959891949750929550565b6109b9816108e0565b82525050565b5f6020820190506109d25f8301846109b0565b92915050565b5f73ffffffffffffffffffffffffffffffffffffffff82169050919050565b5f610a01826109d8565b9050919050565b610a11816109f7565b8114610a1b575f80fd5b50565b5f81359050610a2c81610a08565b92915050565b5f8060408385031215610a4857610a476108dc565b5b5f610a55858286016108ff565b9250506020610a6685828601610a1e565b9150509250929050565b5f60208284031215610a8557610a846108dc565b5b5f610a92848285016108ff565b91505092915050565b610aa4816109f7565b82525050565b5f61014082019050610abe5f83018d6109b0565b610acb602083018c6109b0565b610ad8604083018b6109b0565b610ae5606083018a610a9b565b610af260808301896109b0565b610aff60a08301886109b0565b610b0c60c08301876109b0565b610b1960e08301866109b0565b610b276101008301856109b0565b610b356101208301846109b0565b9b9a5050505050505050505050565b5f819050919050565b5f610b67610b62610b5d846109d8565b610b44565b6109d8565b9050919050565b5f610b7882610b4d565b9050919050565b5f610b8982610b6e565b9050919050565b610b9981610b7f565b82525050565b5f602082019050610bb25f830184610b90565b92915050565b5f82825260208201905092915050565b7f496e636f72726563742072657761726420616d6f756e742073656e74000000005f82015250565b5f610bfc601c83610bb8565b9150610c0782610bc8565b602082019050919050565b5f6020820190508181035f830152610c2981610bf0565b9050919050565b7f4e487b71000000000000000000000000000000000000000000000000000000005f52601160045260245ffd5b5f610c67826108e0565b91507fffffffffffffffffffffffffffffffffffffffffffffffffffffffffffffffff8203610c9957610c98610c30565b5b600182019050919050565b5f819050919050565b5f610cc7610cc2610cbd84610ca4565b610b44565b6108e0565b9050919050565b610cd781610cad565b82525050565b5f61012082019050610cf15f83018c6109b0565b610cfe602083018b610cce565b610d0b604083018a610a9b565b610d1860608301896109b0565b610d2560808301886109b0565b610d3260a08301876109b0565b610d3f60c08301866109b0565b610d4c60e08301856109b0565b610d5a6101008301846109b0565b9a9950505050505050505050565b7f5265717565737420616c726561647920616363657074656400000000000000005f82015250565b5f610d9c601883610bb8565b9150610da782610d68565b602082019050919050565b5f6020820190508181035f830152610dc981610d90565b9050919050565b5f819050919050565b5f610df3610dee610de984610dd0565b610b44565b6108e0565b9050919050565b610e0381610dd9565b82525050565b5f604082019050610e1c5f8301856109b0565b610e296020830184610dfa565b9392505050565b5f819050919050565b5f610e53610e4e610e4984610e30565b610b44565b6108e0565b9050919050565b610e6381610e39565b82525050565b5f602082019050610e7c5f830184610e5a565b92915050565b5f819050919050565b5f610ea5610ea0610e9b84610e82565b610b44565b6108e0565b9050919050565b610eb581610e8b565b82525050565b5f604082019050610ece5f8301856109b0565b610edb6020830184610eac565b9392505050565b5f819050919050565b5f610f05610f00610efb84610ee2565b610b44565b6108e0565b9050919050565b610f1581610eeb565b82525050565b5f602082019050610f2e5f830184610f0c565b92915050565b5f819050919050565b5f610f57610f52610f4d84610f34565b610b44565b6108e0565b9050919050565b610f6781610f3d565b82525050565b5f604082019050610f805f8301856109b0565b610f8d6020830184610f5e565b9392505050565b5f819050919050565b5f610fb7610fb2610fad84610f94565b610b44565b6108e0565b9050919050565b610fc781610f9d565b82525050565b5f602082019050610fe05f830184610fbe565b9291505056fea2646970667358221220e6457057c54470e4e088e65c0bf8db650a64c3998cf8779c8631fa49a5e3ec1064736f6c63430008180033",
			"opcodes": "PUSH1 0x80 PUSH1 0x40 MSTORE CALLVALUE DUP1 ISZERO PUSH3 0x10 JUMPI PUSH0 DUP1 REVERT JUMPDEST POP PUSH1 0x40 MLOAD PUSH3 0x113C CODESIZE SUB DUP1 PUSH3 0x113C DUP4 CODECOPY DUP2 DUP2 ADD PUSH1 0x40 MSTORE DUP2 ADD SWAP1 PUSH3 0x36 SWAP2 SWAP1 PUSH3 0xE2 JUMP JUMPDEST DUP1 PUSH1 0x2 PUSH0 PUSH2 0x100 EXP DUP2 SLOAD DUP2 PUSH20 0xFFFFFFFFFFFFFFFFFFFFFFFFFFFFFFFFFFFFFFFF MUL NOT AND SWAP1 DUP4 PUSH20 0xFFFFFFFFFFFFFFFFFFFFFFFFFFFFFFFFFFFFFFFF AND MUL OR SWAP1 SSTORE POP POP PUSH3 0x112 JUMP JUMPDEST PUSH0 DUP1 REVERT JUMPDEST PUSH0 PUSH20 0xFFFFFFFFFFFFFFFFFFFFFFFFFFFFFFFFFFFFFFFF DUP3 AND SWAP1 POP SWAP2 SWAP1 POP JUMP JUMPDEST PUSH0 PUSH3 0xAC DUP3 PUSH3 0x81 JUMP JUMPDEST SWAP1 POP SWAP2 SWAP1 POP JUMP JUMPDEST PUSH3 0xBE DUP2 PUSH3 0xA0 JUMP JUMPDEST DUP2 EQ PUSH3 0xC9 JUMPI PUSH0 DUP1 REVERT JUMPDEST POP JUMP JUMPDEST PUSH0 DUP2 MLOAD SWAP1 POP PUSH3 0xDC DUP2 PUSH3 0xB3 JUMP JUMPDEST SWAP3 SWAP2 POP POP JUMP JUMPDEST PUSH0 PUSH1 0x20 DUP3 DUP5 SUB SLT ISZERO PUSH3 0xFA JUMPI PUSH3 0xF9 PUSH3 0x7D JUMP JUMPDEST JUMPDEST PUSH0 PUSH3 0x109 DUP5 DUP3 DUP6 ADD PUSH3 0xCC JUMP JUMPDEST SWAP2 POP POP SWAP3 SWAP2 POP POP JUMP JUMPDEST PUSH2 0x101C DUP1 PUSH3 0x120 PUSH0 CODECOPY PUSH0 RETURN INVALID PUSH1 0x80 PUSH1 0x40 MSTORE PUSH1 0x4 CALLDATASIZE LT PUSH2 0x6F JUMPI PUSH0 CALLDATALOAD PUSH1 0xE0 SHR DUP1 PUSH4 0x5BADBE4C GT PUSH2 0x4D JUMPI DUP1 PUSH4 0x5BADBE4C EQ PUSH2 0x110 JUMPI DUP1 PUSH4 0x6D37E5CE EQ PUSH2 0x13A JUMPI DUP1 PUSH4 0xB3A35134 EQ PUSH2 0x164 JUMPI DUP1 PUSH4 0xB7CC0A5D EQ PUSH2 0x180 JUMPI PUSH2 0x6F JUMP JUMPDEST DUP1 PUSH4 0x1743E5AB EQ PUSH2 0x73 JUMPI DUP1 PUSH4 0x4BC5630F EQ PUSH2 0xA3 JUMPI DUP1 PUSH4 0x4D394C55 EQ PUSH2 0xCB JUMPI JUMPDEST PUSH0 DUP1 REVERT JUMPDEST PUSH2 0x8D PUSH1 0x4 DUP1 CALLDATASIZE SUB DUP2 ADD SWAP1 PUSH2 0x88 SWAP2 SWAP1 PUSH2 0x913 JUMP JUMPDEST PUSH2 0x19C JUMP JUMPDEST PUSH1 0x40 MLOAD PUSH2 0x9A SWAP2 SWAP1 PUSH2 0x9BF JUMP JUMPDEST PUSH1 0x40 MLOAD DUP1 SWAP2 SUB SWAP1 RETURN JUMPDEST CALLVALUE DUP1 ISZERO PUSH2 0xAE JUMPI PUSH0 DUP1 REVERT JUMPDEST POP PUSH2 0xC9 PUSH1 0x4 DUP1 CALLDATASIZE SUB DUP2 ADD SWAP1 PUSH2 0xC4 SWAP2 SWAP1 PUSH2 0xA32 JUMP JUMPDEST PUSH2 0x365 JUMP JUMPDEST STOP JUMPDEST CALLVALUE DUP1 ISZERO PUSH2 0xD6 JUMPI PUSH0 DUP1 REVERT JUMPDEST POP PUSH2 0xF1 PUSH1 0x4 DUP1 CALLDATASIZE SUB DUP2 ADD SWAP1 PUSH2 0xEC SWAP2 SWAP1 PUSH2 0xA70 JUMP JUMPDEST PUSH2 0x54E JUMP JUMPDEST PUSH1 0x40 MLOAD PUSH2 0x107 SWAP11 SWAP10 SWAP9 SWAP8 SWAP7 SWAP6 SWAP5 SWAP4 SWAP3 SWAP2 SWAP1 PUSH2 0xAAA JUMP JUMPDEST PUSH1 0x40 MLOAD DUP1 SWAP2 SUB SWAP1 RETURN JUMPDEST CALLVALUE DUP1 ISZERO PUSH2 0x11B JUMPI PUSH0 DUP1 REVERT JUMPDEST POP PUSH2 0x124 PUSH2 0x5BC JUMP JUMPDEST PUSH1 0x40 MLOAD PUSH2 0x131 SWAP2 SWAP1 PUSH2 0x9BF JUMP JUMPDEST PUSH1 0x40 MLOAD DUP1 SWAP2 SUB SWAP1 RETURN JUMPDEST CALLVALUE DUP1 ISZERO PUSH2 0x145 JUMPI PUSH0 DUP1 REVERT JUMPDEST POP PUSH2 0x14E PUSH2 0x5C2 JUMP JUMPDEST PUSH1 0x40 MLOAD PUSH2 0x15B SWAP2 SWAP1 PUSH2 0xB9F JUMP JUMPDEST PUSH1 0x40 MLOAD DUP1 SWAP2 SUB SWAP1 RETURN JUMPDEST PUSH2 0x17E PUSH1 0x4 DUP1 CALLDATASIZE SUB DUP2 ADD SWAP1 PUSH2 0x179 SWAP2 SWAP1 PUSH2 0xA70 JUMP JUMPDEST PUSH2 0x5E7 JUMP JUMPDEST STOP JUMPDEST PUSH2 0x19A PUSH1 0x4 DUP1 CALLDATASIZE SUB DUP2 ADD SWAP1 PUSH2 0x195 SWAP2 SWAP1 PUSH2 0xA70 JUMP JUMPDEST PUSH2 0x789 JUMP JUMPDEST STOP JUMPDEST PUSH0 DUP7 CALLVALUE EQ PUSH2 0x1DF JUMPI PUSH1 0x40 MLOAD PUSH32 0x8C379A000000000000000000000000000000000000000000000000000000000 DUP2 MSTORE PUSH1 0x4 ADD PUSH2 0x1D6 SWAP1 PUSH2 0xC12 JUMP JUMPDEST PUSH1 0x40 MLOAD DUP1 SWAP2 SUB SWAP1 REVERT JUMPDEST PUSH1 0x1 PUSH0 DUP2 SLOAD DUP1 SWAP3 SWAP2 SWAP1 PUSH2 0x1F1 SWAP1 PUSH2 0xC5D JUMP JUMPDEST SWAP2 SWAP1 POP SSTORE POP PUSH1 0x40 MLOAD DUP1 PUSH2 0x140 ADD PUSH1 0x40 MSTORE DUP1 PUSH1 0x1 SLOAD DUP2 MSTORE PUSH1 0x20 ADD DUP10 DUP2 MSTORE PUSH1 0x20 ADD PUSH1 0x1 DUP2 MSTORE PUSH1 0x20 ADD PUSH0 PUSH20 0xFFFFFFFFFFFFFFFFFFFFFFFFFFFFFFFFFFFFFFFF AND DUP2 MSTORE PUSH1 0x20 ADD DUP9 DUP2 MSTORE PUSH1 0x20 ADD DUP8 DUP2 MSTORE PUSH1 0x20 ADD DUP7 DUP2 MSTORE PUSH1 0x20 ADD DUP6 DUP2 MSTORE PUSH1 0x20 ADD DUP5 DUP2 MSTORE PUSH1 0x20 ADD DUP4 DUP2 MSTORE POP PUSH0 DUP1 PUSH1 0x1 SLOAD DUP2 MSTORE PUSH1 0x20 ADD SWAP1 DUP2 MSTORE PUSH1 0x20 ADD PUSH0 KECCAK256 PUSH0 DUP3 ADD MLOAD DUP2 PUSH0 ADD SSTORE PUSH1 0x20 DUP3 ADD MLOAD DUP2 PUSH1 0x1 ADD SSTORE PUSH1 0x40 DUP3 ADD MLOAD DUP2 PUSH1 0x2 ADD SSTORE PUSH1 0x60 DUP3 ADD MLOAD DUP2 PUSH1 0x3 ADD PUSH0 PUSH2 0x100 EXP DUP2 SLOAD DUP2 PUSH20 0xFFFFFFFFFFFFFFFFFFFFFFFFFFFFFFFFFFFFFFFF MUL NOT AND SWAP1 DUP4 PUSH20 0xFFFFFFFFFFFFFFFFFFFFFFFFFFFFFFFFFFFFFFFF AND MUL OR SWAP1 SSTORE POP PUSH1 0x80 DUP3 ADD MLOAD DUP2 PUSH1 0x4 ADD SSTORE PUSH1 0xA0 DUP3 ADD MLOAD DUP2 PUSH1 0x5 ADD SSTORE PUSH1 0xC0 DUP3 ADD MLOAD DUP2 PUSH1 0x6 ADD SSTORE PUSH1 0xE0 DUP3 ADD MLOAD DUP2 PUSH1 0x7 ADD SSTORE PUSH2 0x100 DUP3 ADD MLOAD DUP2 PUSH1 0x8 ADD SSTORE PUSH2 0x120 DUP3 ADD MLOAD DUP2 PUSH1 0x9 ADD SSTORE SWAP1 POP POP PUSH1 0x1 SLOAD PUSH32 0x855247DB7D799ABD3D5D4BAD93ACD1A53ED8484573C25EC19D443C81A33476AC DUP10 PUSH1 0x1 PUSH0 DUP12 DUP12 DUP12 DUP12 DUP12 DUP12 PUSH1 0x40 MLOAD PUSH2 0x34D SWAP10 SWAP9 SWAP8 SWAP7 SWAP6 SWAP5 SWAP4 SWAP3 SWAP2 SWAP1 PUSH2 0xCDD JUMP JUMPDEST PUSH1 0x40 MLOAD DUP1 SWAP2 SUB SWAP1 LOG2 PUSH1 0x1 SLOAD SWAP1 POP SWAP8 SWAP7 POP POP POP POP POP POP POP JUMP JUMPDEST PUSH0 PUSH20 0xFFFFFFFFFFFFFFFFFFFFFFFFFFFFFFFFFFFFFFFF AND PUSH0 DUP1 DUP5 DUP2 MSTORE PUSH1 0x20 ADD SWAP1 DUP2 MSTORE PUSH1 0x20 ADD PUSH0 KECCAK256 PUSH1 0x3 ADD PUSH0 SWAP1 SLOAD SWAP1 PUSH2 0x100 EXP SWAP1 DIV PUSH20 0xFFFFFFFFFFFFFFFFFFFFFFFFFFFFFFFFFFFFFFFF AND PUSH20 0xFFFFFFFFFFFFFFFFFFFFFFFFFFFFFFFFFFFFFFFF AND EQ PUSH2 0x405 JUMPI PUSH1 0x40 MLOAD PUSH32 0x8C379A000000000000000000000000000000000000000000000000000000000 DUP2 MSTORE PUSH1 0x4 ADD PUSH2 0x3FC SWAP1 PUSH2 0xDB2 JUMP JUMPDEST PUSH1 0x40 MLOAD DUP1 SWAP2 SUB SWAP1 REVERT JUMPDEST DUP1 PUSH0 DUP1 DUP5 DUP2 MSTORE PUSH1 0x20 ADD SWAP1 DUP2 MSTORE PUSH1 0x20 ADD PUSH0 KECCAK256 PUSH1 0x3 ADD PUSH0 PUSH2 0x100 EXP DUP2 SLOAD DUP2 PUSH20 0xFFFFFFFFFFFFFFFFFFFFFFFFFFFFFFFFFFFFFFFF MUL NOT AND SWAP1 DUP4 PUSH20 0xFFFFFFFFFFFFFFFFFFFFFFFFFFFFFFFFFFFFFFFF AND MUL OR SWAP1 SSTORE POP PUSH1 0x2 PUSH0 DUP1 DUP5 DUP2 MSTORE PUSH1 0x20 ADD SWAP1 DUP2 MSTORE PUSH1 0x20 ADD PUSH0 KECCAK256 PUSH1 0x2 ADD DUP2 SWAP1 SSTORE POP PUSH0 DUP1 PUSH0 DUP5 DUP2 MSTORE PUSH1 0x20 ADD SWAP1 DUP2 MSTORE PUSH1 0x20 ADD PUSH0 KECCAK256 PUSH1 0x1 ADD SLOAD SWAP1 POP PUSH1 0x2 PUSH0 SWAP1 SLOAD SWAP1 PUSH2 0x100 EXP SWAP1 DIV PUSH20 0xFFFFFFFFFFFFFFFFFFFFFFFFFFFFFFFFFFFFFFFF AND PUSH20 0xFFFFFFFFFFFFFFFFFFFFFFFFFFFFFFFFFFFFFFFF AND PUSH4 0xDEB7BFEA DUP3 PUSH1 0x6 PUSH1 0x40 MLOAD DUP4 PUSH4 0xFFFFFFFF AND PUSH1 0xE0 SHL DUP2 MSTORE PUSH1 0x4 ADD PUSH2 0x4E3 SWAP3 SWAP2 SWAP1 PUSH2 0xE09 JUMP JUMPDEST PUSH0 PUSH1 0x40 MLOAD DUP1 DUP4 SUB DUP2 PUSH0 DUP8 DUP1 EXTCODESIZE ISZERO DUP1 ISZERO PUSH2 0x4FA JUMPI PUSH0 DUP1 REVERT JUMPDEST POP GAS CALL ISZERO DUP1 ISZERO PUSH2 0x50C JUMPI RETURNDATASIZE PUSH0 DUP1 RETURNDATACOPY RETURNDATASIZE PUSH0 REVERT JUMPDEST POP POP POP POP DUP3 PUSH32 0xACD6DAA7BDB343FD926B8FC930653E20A1F21C99FA6FA731B338100A08530DE7 PUSH1 0x2 PUSH1 0x40 MLOAD PUSH2 0x541 SWAP2 SWAP1 PUSH2 0xE69 JUMP JUMPDEST PUSH1 0x40 MLOAD DUP1 SWAP2 SUB SWAP1 LOG2 POP POP POP JUMP JUMPDEST PUSH0 PUSH1 0x20 MSTORE DUP1 PUSH0 MSTORE PUSH1 0x40 PUSH0 KECCAK256 PUSH0 SWAP2 POP SWAP1 POP DUP1 PUSH0 ADD SLOAD SWAP1 DUP1 PUSH1 0x1 ADD SLOAD SWAP1 DUP1 PUSH1 0x2 ADD SLOAD SWAP1 DUP1 PUSH1 0x3 ADD PUSH0 SWAP1 SLOAD SWAP1 PUSH2 0x100 EXP SWAP1 DIV PUSH20 0xFFFFFFFFFFFFFFFFFFFFFFFFFFFFFFFFFFFFFFFF AND SWAP1 DUP1 PUSH1 0x4 ADD SLOAD SWAP1 DUP1 PUSH1 0x5 ADD SLOAD SWAP1 DUP1 PUSH1 0x6 ADD SLOAD SWAP1 DUP1 PUSH1 0x7 ADD SLOAD SWAP1 DUP1 PUSH1 0x8 ADD SLOAD SWAP1 DUP1 PUSH1 0x9 ADD SLOAD SWAP1 POP DUP11 JUMP JUMPDEST PUSH1 0x1 SLOAD DUP2 JUMP JUMPDEST PUSH1 0x2 PUSH0 SWAP1 SLOAD SWAP1 PUSH2 0x100 EXP SWAP1 DIV PUSH20 0xFFFFFFFFFFFFFFFFFFFFFFFFFFFFFFFFFFFFFFFF AND DUP2 JUMP JUMPDEST PUSH0 DUP1 PUSH0 DUP4 DUP2 MSTORE PUSH1 0x20 ADD SWAP1 DUP2 MSTORE PUSH1 0x20 ADD PUSH0 KECCAK256 PUSH1 0x4 ADD SLOAD SWAP1 POP PUSH1 0x3 PUSH0 DUP1 DUP5 DUP2 MSTORE PUSH1 0x20 ADD SWAP1 DUP2 MSTORE PUSH1 0x20 ADD PUSH0 KECCAK256 PUSH1 0x2 ADD DUP2 SWAP1 SSTORE POP PUSH0 DUP1 PUSH0 DUP5 DUP2 MSTORE PUSH1 0x20 ADD SWAP1 DUP2 MSTORE PUSH1 0x20 ADD PUSH0 KECCAK256 PUSH1 0x1 ADD SLOAD SWAP1 POP PUSH1 0x2 PUSH0 SWAP1 SLOAD SWAP1 PUSH2 0x100 EXP SWAP1 DIV PUSH20 0xFFFFFFFFFFFFFFFFFFFFFFFFFFFFFFFFFFFFFFFF AND PUSH20 0xFFFFFFFFFFFFFFFFFFFFFFFFFFFFFFFFFFFFFFFF AND PUSH4 0xDEB7BFEA DUP3 PUSH1 0x7 PUSH1 0x40 MLOAD DUP4 PUSH4 0xFFFFFFFF AND PUSH1 0xE0 SHL DUP2 MSTORE PUSH1 0x4 ADD PUSH2 0x68B SWAP3 SWAP2 SWAP1 PUSH2 0xEBB JUMP JUMPDEST PUSH0 PUSH1 0x40 MLOAD DUP1 DUP4 SUB DUP2 PUSH0 DUP8 DUP1 EXTCODESIZE ISZERO DUP1 ISZERO PUSH2 0x6A2 JUMPI PUSH0 DUP1 REVERT JUMPDEST POP GAS CALL ISZERO DUP1 ISZERO PUSH2 0x6B4 JUMPI RETURNDATASIZE PUSH0 DUP1 RETURNDATACOPY RETURNDATASIZE PUSH0 REVERT JUMPDEST POP POP POP POP CALLER PUSH20 0xFFFFFFFFFFFFFFFFFFFFFFFFFFFFFFFFFFFFFFFF AND PUSH2 0x8FC DUP4 SWAP1 DUP2 ISZERO MUL SWAP1 PUSH1 0x40 MLOAD PUSH0 PUSH1 0x40 MLOAD DUP1 DUP4 SUB DUP2 DUP6 DUP9 DUP9 CALL SWAP4 POP POP POP POP ISZERO DUP1 ISZERO PUSH2 0x6FB JUMPI RETURNDATASIZE PUSH0 DUP1 RETURNDATACOPY RETURNDATASIZE PUSH0 REVERT JUMPDEST POP CALLER PUSH20 0xFFFFFFFFFFFFFFFFFFFFFFFFFFFFFFFFFFFFFFFF AND DUP4 PUSH32 0x99F2F3325E35634C09536D4983B1B2B0C9313E74F2B74508C7A1A521F6FCE9AB DUP5 PUSH1 0x40 MLOAD PUSH2 0x743 SWAP2 SWAP1 PUSH2 0x9BF JUMP JUMPDEST PUSH1 0x40 MLOAD DUP1 SWAP2 SUB SWAP1 LOG3 DUP3 PUSH32 0xACD6DAA7BDB343FD926B8FC930653E20A1F21C99FA6FA731B338100A08530DE7 PUSH1 0x3 PUSH1 0x40 MLOAD PUSH2 0x77C SWAP2 SWAP1 PUSH2 0xF1B JUMP JUMPDEST PUSH1 0x40 MLOAD DUP1 SWAP2 SUB SWAP1 LOG2 POP POP POP JUMP JUMPDEST PUSH0 DUP1 PUSH0 DUP4 DUP2 MSTORE PUSH1 0x20 ADD SWAP1 DUP2 MSTORE PUSH1 0x20 ADD PUSH0 KECCAK256 PUSH1 0x4 ADD SLOAD SWAP1 POP PUSH1 0x4 PUSH0 DUP1 DUP5 DUP2 MSTORE PUSH1 0x20 ADD SWAP1 DUP2 MSTORE PUSH1 0x20 ADD PUSH0 KECCAK256 PUSH1 0x2 ADD DUP2 SWAP1 SSTORE POP PUSH0 DUP1 PUSH0 DUP5 DUP2 MSTORE PUSH1 0x20 ADD SWAP1 DUP2 MSTORE PUSH1 0x20 ADD PUSH0 KECCAK256 PUSH1 0x1 ADD SLOAD SWAP1 POP PUSH1 0x2 PUSH0 SWAP1 SLOAD SWAP1 PUSH2 0x100 EXP SWAP1 DIV PUSH20 0xFFFFFFFFFFFFFFFFFFFFFFFFFFFFFFFFFFFFFFFF AND PUSH20 0xFFFFFFFFFFFFFFFFFFFFFFFFFFFFFFFFFFFFFFFF AND PUSH4 0xDEB7BFEA DUP3 PUSH1 0xB PUSH1 0x40 MLOAD DUP4 PUSH4 0xFFFFFFFF AND PUSH1 0xE0 SHL DUP2 MSTORE PUSH1 0x4 ADD PUSH2 0x82D SWAP3 SWAP2 SWAP1 PUSH2 0xF6D JUMP JUMPDEST PUSH0 PUSH1 0x40 MLOAD DUP1 DUP4 SUB DUP2 PUSH0 DUP8 DUP1 EXTCODESIZE ISZERO DUP1 ISZERO PUSH2 0x844 JUMPI PUSH0 DUP1 REVERT JUMPDEST POP GAS CALL ISZERO DUP1 ISZERO PUSH2 0x856 JUMPI RETURNDATASIZE PUSH0 DUP1 RETURNDATACOPY RETURNDATASIZE PUSH0 REVERT JUMPDEST POP POP POP POP CALLER PUSH20 0xFFFFFFFFFFFFFFFFFFFFFFFFFFFFFFFFFFFFFFFF AND PUSH2 0x8FC DUP4 SWAP1 DUP2 ISZERO MUL SWAP1 PUSH1 0x40 MLOAD PUSH0 PUSH1 0x40 MLOAD DUP1 DUP4 SUB DUP2 DUP6 DUP9 DUP9 CALL SWAP4 POP POP POP POP ISZERO DUP1 ISZERO PUSH2 0x89D JUMPI RETURNDATASIZE PUSH0 DUP1 RETURNDATACOPY RETURNDATASIZE PUSH0 REVERT JUMPDEST POP DUP3 PUSH32 0xACD6DAA7BDB343FD926B8FC930653E20A1F21C99FA6FA731B338100A08530DE7 PUSH1 0x4 PUSH1 0x40 MLOAD PUSH2 0x8CF SWAP2 SWAP1 PUSH2 0xFCD JUMP JUMPDEST PUSH1 0x40 MLOAD DUP1 SWAP2 SUB SWAP1 LOG2 POP POP POP JUMP JUMPDEST PUSH0 DUP1 REVERT JUMPDEST PUSH0 DUP2 SWAP1 POP SWAP2 SWAP1 POP JUMP JUMPDEST PUSH2 0x8F2 DUP2 PUSH2 0x8E0 JUMP JUMPDEST DUP2 EQ PUSH2 0x8FC JUMPI PUSH0 DUP1 REVERT JUMPDEST POP JUMP JUMPDEST PUSH0 DUP2 CALLDATALOAD SWAP1 POP PUSH2 0x90D DUP2 PUSH2 0x8E9 JUMP JUMPDEST SWAP3 SWAP2 POP POP JUMP JUMPDEST PUSH0 DUP1 PUSH0 DUP1 PUSH0 DUP1 PUSH0 PUSH1 0xE0 DUP9 DUP11 SUB SLT ISZERO PUSH2 0x92E JUMPI PUSH2 0x92D PUSH2 0x8DC JUMP JUMPDEST JUMPDEST PUSH0 PUSH2 0x93B DUP11 DUP3 DUP12 ADD PUSH2 0x8FF JUMP JUMPDEST SWAP8 POP POP PUSH1 0x20 PUSH2 0x94C DUP11 DUP3 DUP12 ADD PUSH2 0x8FF JUMP JUMPDEST SWAP7 POP POP PUSH1 0x40 PUSH2 0x95D DUP11 DUP3 DUP12 ADD PUSH2 0x8FF JUMP JUMPDEST SWAP6 POP POP PUSH1 0x60 PUSH2 0x96E DUP11 DUP3 DUP12 ADD PUSH2 0x8FF JUMP JUMPDEST SWAP5 POP POP PUSH1 0x80 PUSH2 0x97F DUP11 DUP3 DUP12 ADD PUSH2 0x8FF JUMP JUMPDEST SWAP4 POP POP PUSH1 0xA0 PUSH2 0x990 DUP11 DUP3 DUP12 ADD PUSH2 0x8FF JUMP JUMPDEST SWAP3 POP POP PUSH1 0xC0 PUSH2 0x9A1 DUP11 DUP3 DUP12 ADD PUSH2 0x8FF JUMP JUMPDEST SWAP2 POP POP SWAP3 SWAP6 SWAP9 SWAP2 SWAP5 SWAP8 POP SWAP3 SWAP6 POP JUMP JUMPDEST PUSH2 0x9B9 DUP2 PUSH2 0x8E0 JUMP JUMPDEST DUP3 MSTORE POP POP JUMP JUMPDEST PUSH0 PUSH1 0x20 DUP3 ADD SWAP1 POP PUSH2 0x9D2 PUSH0 DUP4 ADD DUP5 PUSH2 0x9B0 JUMP JUMPDEST SWAP3 SWAP2 POP POP JUMP JUMPDEST PUSH0 PUSH20 0xFFFFFFFFFFFFFFFFFFFFFFFFFFFFFFFFFFFFFFFF DUP3 AND SWAP1 POP SWAP2 SWAP1 POP JUMP JUMPDEST PUSH0 PUSH2 0xA01 DUP3 PUSH2 0x9D8 JUMP JUMPDEST SWAP1 POP SWAP2 SWAP1 POP JUMP JUMPDEST PUSH2 0xA11 DUP2 PUSH2 0x9F7 JUMP JUMPDEST DUP2 EQ PUSH2 0xA1B JUMPI PUSH0 DUP1 REVERT JUMPDEST POP JUMP JUMPDEST PUSH0 DUP2 CALLDATALOAD SWAP1 POP PUSH2 0xA2C DUP2 PUSH2 0xA08 JUMP JUMPDEST SWAP3 SWAP2 POP POP JUMP JUMPDEST PUSH0 DUP1 PUSH1 0x40 DUP4 DUP6 SUB SLT ISZERO PUSH2 0xA48 JUMPI PUSH2 0xA47 PUSH2 0x8DC JUMP JUMPDEST JUMPDEST PUSH0 PUSH2 0xA55 DUP6 DUP3 DUP7 ADD PUSH2 0x8FF JUMP JUMPDEST SWAP3 POP POP PUSH1 0x20 PUSH2 0xA66 DUP6 DUP3 DUP7 ADD PUSH2 0xA1E JUMP JUMPDEST SWAP2 POP POP SWAP3 POP SWAP3 SWAP1 POP JUMP JUMPDEST PUSH0 PUSH1 0x20 DUP3 DUP5 SUB SLT ISZERO PUSH2 0xA85 JUMPI PUSH2 0xA84 PUSH2 0x8DC JUMP JUMPDEST JUMPDEST PUSH0 PUSH2 0xA92 DUP5 DUP3 DUP6 ADD PUSH2 0x8FF JUMP JUMPDEST SWAP2 POP POP SWAP3 SWAP2 POP POP JUMP JUMPDEST PUSH2 0xAA4 DUP2 PUSH2 0x9F7 JUMP JUMPDEST DUP3 MSTORE POP POP JUMP JUMPDEST PUSH0 PUSH2 0x140 DUP3 ADD SWAP1 POP PUSH2 0xABE PUSH0 DUP4 ADD DUP14 PUSH2 0x9B0 JUMP JUMPDEST PUSH2 0xACB PUSH1 0x20 DUP4 ADD DUP13 PUSH2 0x9B0 JUMP JUMPDEST PUSH2 0xAD8 PUSH1 0x40 DUP4 ADD DUP12 PUSH2 0x9B0 JUMP JUMPDEST PUSH2 0xAE5 PUSH1 0x60 DUP4 ADD DUP11 PUSH2 0xA9B JUMP JUMPDEST PUSH2 0xAF2 PUSH1 0x80 DUP4 ADD DUP10 PUSH2 0x9B0 JUMP JUMPDEST PUSH2 0xAFF PUSH1 0xA0 DUP4 ADD DUP9 PUSH2 0x9B0 JUMP JUMPDEST PUSH2 0xB0C PUSH1 0xC0 DUP4 ADD DUP8 PUSH2 0x9B0 JUMP JUMPDEST PUSH2 0xB19 PUSH1 0xE0 DUP4 ADD DUP7 PUSH2 0x9B0 JUMP JUMPDEST PUSH2 0xB27 PUSH2 0x100 DUP4 ADD DUP6 PUSH2 0x9B0 JUMP JUMPDEST PUSH2 0xB35 PUSH2 0x120 DUP4 ADD DUP5 PUSH2 0x9B0 JUMP JUMPDEST SWAP12 SWAP11 POP POP POP POP POP POP POP POP POP POP POP JUMP JUMPDEST PUSH0 DUP2 SWAP1 POP SWAP2 SWAP1 POP JUMP JUMPDEST PUSH0 PUSH2 0xB67 PUSH2 0xB62 PUSH2 0xB5D DUP5 PUSH2 0x9D8 JUMP JUMPDEST PUSH2 0xB44 JUMP JUMPDEST PUSH2 0x9D8 JUMP JUMPDEST SWAP1 POP SWAP2 SWAP1 POP JUMP JUMPDEST PUSH0 PUSH2 0xB78 DUP3 PUSH2 0xB4D JUMP JUMPDEST SWAP1 POP SWAP2 SWAP1 POP JUMP JUMPDEST PUSH0 PUSH2 0xB89 DUP3 PUSH2 0xB6E JUMP JUMPDEST SWAP1 POP SWAP2 SWAP1 POP JUMP JUMPDEST PUSH2 0xB99 DUP2 PUSH2 0xB7F JUMP JUMPDEST DUP3 MSTORE POP POP JUMP JUMPDEST PUSH0 PUSH1 0x20 DUP3 ADD SWAP1 POP PUSH2 0xBB2 PUSH0 DUP4 ADD DUP5 PUSH2 0xB90 JUMP JUMPDEST SWAP3 SWAP2 POP POP JUMP JUMPDEST PUSH0 DUP3 DUP3 MSTORE PUSH1 0x20 DUP3 ADD SWAP1 POP SWAP3 SWAP2 POP POP JUMP JUMPDEST PUSH32 0x496E636F72726563742072657761726420616D6F756E742073656E7400000000 PUSH0 DUP3 ADD MSTORE POP JUMP JUMPDEST PUSH0 PUSH2 0xBFC PUSH1 0x1C DUP4 PUSH2 0xBB8 JUMP JUMPDEST SWAP2 POP PUSH2 0xC07 DUP3 PUSH2 0xBC8 JUMP JUMPDEST PUSH1 0x20 DUP3 ADD SWAP1 POP SWAP2 SWAP1 POP JUMP JUMPDEST PUSH0 PUSH1 0x20 DUP3 ADD SWAP1 POP DUP2 DUP2 SUB PUSH0 DUP4 ADD MSTORE PUSH2 0xC29 DUP2 PUSH2 0xBF0 JUMP JUMPDEST SWAP1 POP SWAP2 SWAP1 POP JUMP JUMPDEST PUSH32 0x4E487B7100000000000000000000000000000000000000000000000000000000 PUSH0 MSTORE PUSH1 0x11 PUSH1 0x4 MSTORE PUSH1 0x24 PUSH0 REVERT JUMPDEST PUSH0 PUSH2 0xC67 DUP3 PUSH2 0x8E0 JUMP JUMPDEST SWAP2 POP PUSH32 0xFFFFFFFFFFFFFFFFFFFFFFFFFFFFFFFFFFFFFFFFFFFFFFFFFFFFFFFFFFFFFFFF DUP3 SUB PUSH2 0xC99 JUMPI PUSH2 0xC98 PUSH2 0xC30 JUMP JUMPDEST JUMPDEST PUSH1 0x1 DUP3 ADD SWAP1 POP SWAP2 SWAP1 POP JUMP JUMPDEST PUSH0 DUP2 SWAP1 POP SWAP2 SWAP1 POP JUMP JUMPDEST PUSH0 PUSH2 0xCC7 PUSH2 0xCC2 PUSH2 0xCBD DUP5 PUSH2 0xCA4 JUMP JUMPDEST PUSH2 0xB44 JUMP JUMPDEST PUSH2 0x8E0 JUMP JUMPDEST SWAP1 POP SWAP2 SWAP1 POP JUMP JUMPDEST PUSH2 0xCD7 DUP2 PUSH2 0xCAD JUMP JUMPDEST DUP3 MSTORE POP POP JUMP JUMPDEST PUSH0 PUSH2 0x120 DUP3 ADD SWAP1 POP PUSH2 0xCF1 PUSH0 DUP4 ADD DUP13 PUSH2 0x9B0 JUMP JUMPDEST PUSH2 0xCFE PUSH1 0x20 DUP4 ADD DUP12 PUSH2 0xCCE JUMP JUMPDEST PUSH2 0xD0B PUSH1 0x40 DUP4 ADD DUP11 PUSH2 0xA9B JUMP JUMPDEST PUSH2 0xD18 PUSH1 0x60 DUP4 ADD DUP10 PUSH2 0x9B0 JUMP JUMPDEST PUSH2 0xD25 PUSH1 0x80 DUP4 ADD DUP9 PUSH2 0x9B0 JUMP JUMPDEST PUSH2 0xD32 PUSH1 0xA0 DUP4 ADD DUP8 PUSH2 0x9B0 JUMP JUMPDEST PUSH2 0xD3F PUSH1 0xC0 DUP4 ADD DUP7 PUSH2 0x9B0 JUMP JUMPDEST PUSH2 0xD4C PUSH1 0xE0 DUP4 ADD DUP6 PUSH2 0x9B0 JUMP JUMPDEST PUSH2 0xD5A PUSH2 0x100 DUP4 ADD DUP5 PUSH2 0x9B0 JUMP JUMPDEST SWAP11 SWAP10 POP POP POP POP POP POP POP POP POP POP JUMP JUMPDEST PUSH32 0x5265717565737420616C72656164792061636365707465640000000000000000 PUSH0 DUP3 ADD MSTORE POP JUMP JUMPDEST PUSH0 PUSH2 0xD9C PUSH1 0x18 DUP4 PUSH2 0xBB8 JUMP JUMPDEST SWAP2 POP PUSH2 0xDA7 DUP3 PUSH2 0xD68 JUMP JUMPDEST PUSH1 0x20 DUP3 ADD SWAP1 POP SWAP2 SWAP1 POP JUMP JUMPDEST PUSH0 PUSH1 0x20 DUP3 ADD SWAP1 POP DUP2 DUP2 SUB PUSH0 DUP4 ADD MSTORE PUSH2 0xDC9 DUP2 PUSH2 0xD90 JUMP JUMPDEST SWAP1 POP SWAP2 SWAP1 POP JUMP JUMPDEST PUSH0 DUP2 SWAP1 POP SWAP2 SWAP1 POP JUMP JUMPDEST PUSH0 PUSH2 0xDF3 PUSH2 0xDEE PUSH2 0xDE9 DUP5 PUSH2 0xDD0 JUMP JUMPDEST PUSH2 0xB44 JUMP JUMPDEST PUSH2 0x8E0 JUMP JUMPDEST SWAP1 POP SWAP2 SWAP1 POP JUMP JUMPDEST PUSH2 0xE03 DUP2 PUSH2 0xDD9 JUMP JUMPDEST DUP3 MSTORE POP POP JUMP JUMPDEST PUSH0 PUSH1 0x40 DUP3 ADD SWAP1 POP PUSH2 0xE1C PUSH0 DUP4 ADD DUP6 PUSH2 0x9B0 JUMP JUMPDEST PUSH2 0xE29 PUSH1 0x20 DUP4 ADD DUP5 PUSH2 0xDFA JUMP JUMPDEST SWAP4 SWAP3 POP POP POP JUMP JUMPDEST PUSH0 DUP2 SWAP1 POP SWAP2 SWAP1 POP JUMP JUMPDEST PUSH0 PUSH2 0xE53 PUSH2 0xE4E PUSH2 0xE49 DUP5 PUSH2 0xE30 JUMP JUMPDEST PUSH2 0xB44 JUMP JUMPDEST PUSH2 0x8E0 JUMP JUMPDEST SWAP1 POP SWAP2 SWAP1 POP JUMP JUMPDEST PUSH2 0xE63 DUP2 PUSH2 0xE39 JUMP JUMPDEST DUP3 MSTORE POP POP JUMP JUMPDEST PUSH0 PUSH1 0x20 DUP3 ADD SWAP1 POP PUSH2 0xE7C PUSH0 DUP4 ADD DUP5 PUSH2 0xE5A JUMP JUMPDEST SWAP3 SWAP2 POP POP JUMP JUMPDEST PUSH0 DUP2 SWAP1 POP SWAP2 SWAP1 POP JUMP JUMPDEST PUSH0 PUSH2 0xEA5 PUSH2 0xEA0 PUSH2 0xE9B DUP5 PUSH2 0xE82 JUMP JUMPDEST PUSH2 0xB44 JUMP JUMPDEST PUSH2 0x8E0 JUMP JUMPDEST SWAP1 POP SWAP2 SWAP1 POP JUMP JUMPDEST PUSH2 0xEB5 DUP2 PUSH2 0xE8B JUMP JUMPDEST DUP3 MSTORE POP POP JUMP JUMPDEST PUSH0 PUSH1 0x40 DUP3 ADD SWAP1 POP PUSH2 0xECE PUSH0 DUP4 ADD DUP6 PUSH2 0x9B0 JUMP JUMPDEST PUSH2 0xEDB PUSH1 0x20 DUP4 ADD DUP5 PUSH2 0xEAC JUMP JUMPDEST SWAP4 SWAP3 POP POP POP JUMP JUMPDEST PUSH0 DUP2 SWAP1 POP SWAP2 SWAP1 POP JUMP JUMPDEST PUSH0 PUSH2 0xF05 PUSH2 0xF00 PUSH2 0xEFB DUP5 PUSH2 0xEE2 JUMP JUMPDEST PUSH2 0xB44 JUMP JUMPDEST PUSH2 0x8E0 JUMP JUMPDEST SWAP1 POP SWAP2 SWAP1 POP JUMP JUMPDEST PUSH2 0xF15 DUP2 PUSH2 0xEEB JUMP JUMPDEST DUP3 MSTORE POP POP JUMP JUMPDEST PUSH0 PUSH1 0x20 DUP3 ADD SWAP1 POP PUSH2 0xF2E PUSH0 DUP4 ADD DUP5 PUSH2 0xF0C JUMP JUMPDEST SWAP3 SWAP2 POP POP JUMP JUMPDEST PUSH0 DUP2 SWAP1 POP SWAP2 SWAP1 POP JUMP JUMPDEST PUSH0 PUSH2 0xF57 PUSH2 0xF52 PUSH2 0xF4D DUP5 PUSH2 0xF34 JUMP JUMPDEST PUSH2 0xB44 JUMP JUMPDEST PUSH2 0x8E0 JUMP JUMPDEST SWAP1 POP SWAP2 SWAP1 POP JUMP JUMPDEST PUSH2 0xF67 DUP2 PUSH2 0xF3D JUMP JUMPDEST DUP3 MSTORE POP POP JUMP JUMPDEST PUSH0 PUSH1 0x40 DUP3 ADD SWAP1 POP PUSH2 0xF80 PUSH0 DUP4 ADD DUP6 PUSH2 0x9B0 JUMP JUMPDEST PUSH2 0xF8D PUSH1 0x20 DUP4 ADD DUP5 PUSH2 0xF5E JUMP JUMPDEST SWAP4 SWAP3 POP POP POP JUMP JUMPDEST PUSH0 DUP2 SWAP1 POP SWAP2 SWAP1 POP JUMP JUMPDEST PUSH0 PUSH2 0xFB7 PUSH2 0xFB2 PUSH2 0xFAD DUP5 PUSH2 0xF94 JUMP JUMPDEST PUSH2 0xB44 JUMP JUMPDEST PUSH2 0x8E0 JUMP JUMPDEST SWAP1 POP SWAP2 SWAP1 POP JUMP JUMPDEST PUSH2 0xFC7 DUP2 PUSH2 0xF9D JUMP JUMPDEST DUP3 MSTORE POP POP JUMP JUMPDEST PUSH0 PUSH1 0x20 DUP3 ADD SWAP1 POP PUSH2 0xFE0 PUSH0 DUP4 ADD DUP5 PUSH2 0xFBE JUMP JUMPDEST SWAP3 SWAP2 POP POP JUMP INVALID LOG2 PUSH5 0x6970667358 0x22 SLT KECCAK256 0xE6 GASLIMIT PUSH17 0x57C54470E4E088E65C0BF8DB650A64C399 DUP13 0xF8 PUSH24 0x9C8631FA49A5E3EC1064736F6C6343000818003300000000 "
		},
		"gasEstimates": {
			"creation": {
				"codeDepositCost": "824800",
				"executionCost": "infinite",
				"totalCost": "infinite"
			},
			"external": {
				"acceptShippingRequest(uint256,address)": "infinite",
				"addShippingRequest(uint256,uint256,uint256,uint256,uint256,uint256,uint256)": "infinite",
				"cancelshippingRequest(uint256)": "infinite",
				"completeShippingRequest(uint256)": "infinite",
				"orderContract()": "infinite",
				"requestCount()": "2425",
				"shippingRequests(uint256)": "infinite"
			}
		},
		"methodIdentifiers": {
			"acceptShippingRequest(uint256,address)": "4bc5630f",
			"addShippingRequest(uint256,uint256,uint256,uint256,uint256,uint256,uint256)": "1743e5ab",
			"cancelshippingRequest(uint256)": "b7cc0a5d",
			"completeShippingRequest(uint256)": "b3a35134",
			"orderContract()": "6d37e5ce",
			"requestCount()": "5badbe4c",
			"shippingRequests(uint256)": "4d394c55"
		}
	},
	"abi": [
		{
			"inputs": [
				{
					"internalType": "address",
					"name": "_orderContractAddress",
					"type": "address"
				}
			],
			"stateMutability": "nonpayable",
			"type": "constructor"
		},
		{
			"anonymous": false,
			"inputs": [
				{
					"indexed": true,
					"internalType": "uint256",
					"name": "reqId",
					"type": "uint256"
				},
				{
					"indexed": true,
					"internalType": "address",
					"name": "receiver",
					"type": "address"
				},
				{
					"indexed": false,
					"internalType": "uint256",
					"name": "amount",
					"type": "uint256"
				}
			],
			"name": "RewardTransferred",
			"type": "event"
		},
		{
			"anonymous": false,
			"inputs": [
				{
					"indexed": true,
					"internalType": "uint256",
					"name": "reqId",
					"type": "uint256"
				},
				{
					"indexed": false,
					"internalType": "uint256",
					"name": "orderId",
					"type": "uint256"
				},
				{
					"indexed": false,
					"internalType": "uint256",
					"name": "status",
					"type": "uint256"
				},
				{
					"indexed": false,
					"internalType": "address",
					"name": "lgUser",
					"type": "address"
				},
				{
					"indexed": false,
					"internalType": "uint256",
					"name": "reward",
					"type": "uint256"
				},
				{
					"indexed": false,
					"internalType": "uint256",
					"name": "country",
					"type": "uint256"
				},
				{
					"indexed": false,
					"internalType": "uint256",
					"name": "city",
					"type": "uint256"
				},
				{
					"indexed": false,
					"internalType": "uint256",
					"name": "street",
					"type": "uint256"
				},
				{
					"indexed": false,
					"internalType": "uint256",
					"name": "zipcode",
					"type": "uint256"
				},
				{
					"indexed": false,
					"internalType": "uint256",
					"name": "building",
					"type": "uint256"
				}
			],
			"name": "ShippingRequestAdded",
			"type": "event"
		},
		{
			"anonymous": false,
			"inputs": [
				{
					"indexed": true,
					"internalType": "uint256",
					"name": "reqId",
					"type": "uint256"
				},
				{
					"indexed": false,
					"internalType": "uint256",
					"name": "status",
					"type": "uint256"
				}
			],
			"name": "ShippingRequestStatusChanged",
			"type": "event"
		},
		{
			"inputs": [
				{
					"internalType": "uint256",
					"name": "_id",
					"type": "uint256"
				},
				{
					"internalType": "address",
					"name": "_lgUser",
					"type": "address"
				}
			],
			"name": "acceptShippingRequest",
			"outputs": [],
			"stateMutability": "nonpayable",
			"type": "function"
		},
		{
			"inputs": [
				{
					"internalType": "uint256",
					"name": "_orderId",
					"type": "uint256"
				},
				{
					"internalType": "uint256",
					"name": "_reward",
					"type": "uint256"
				},
				{
					"internalType": "uint256",
					"name": "_country",
					"type": "uint256"
				},
				{
					"internalType": "uint256",
					"name": "_city",
					"type": "uint256"
				},
				{
					"internalType": "uint256",
					"name": "_street",
					"type": "uint256"
				},
				{
					"internalType": "uint256",
					"name": "_zipcode",
					"type": "uint256"
				},
				{
					"internalType": "uint256",
					"name": "_building",
					"type": "uint256"
				}
			],
			"name": "addShippingRequest",
			"outputs": [
				{
					"internalType": "uint256",
					"name": "",
					"type": "uint256"
				}
			],
			"stateMutability": "payable",
			"type": "function"
		},
		{
			"inputs": [
				{
					"internalType": "uint256",
					"name": "_id",
					"type": "uint256"
				}
			],
			"name": "cancelshippingRequest",
			"outputs": [],
			"stateMutability": "payable",
			"type": "function"
		},
		{
			"inputs": [
				{
					"internalType": "uint256",
					"name": "_id",
					"type": "uint256"
				}
			],
			"name": "completeShippingRequest",
			"outputs": [],
			"stateMutability": "payable",
			"type": "function"
		},
		{
			"inputs": [],
			"name": "orderContract",
			"outputs": [
				{
					"internalType": "contract OrderManagementInterface",
					"name": "",
					"type": "address"
				}
			],
			"stateMutability": "view",
			"type": "function"
		},
		{
			"inputs": [],
			"name": "requestCount",
			"outputs": [
				{
					"internalType": "uint256",
					"name": "",
					"type": "uint256"
				}
			],
			"stateMutability": "view",
			"type": "function"
		},
		{
			"inputs": [
				{
					"internalType": "uint256",
					"name": "",
					"type": "uint256"
				}
			],
			"name": "shippingRequests",
			"outputs": [
				{
					"internalType": "uint256",
					"name": "id",
					"type": "uint256"
				},
				{
					"internalType": "uint256",
					"name": "orderId",
					"type": "uint256"
				},
				{
					"internalType": "uint256",
					"name": "status",
					"type": "uint256"
				},
				{
					"internalType": "address",
					"name": "lgUser",
					"type": "address"
				},
				{
					"internalType": "uint256",
					"name": "reward",
					"type": "uint256"
				},
				{
					"internalType": "uint256",
					"name": "country",
					"type": "uint256"
				},
				{
					"internalType": "uint256",
					"name": "city",
					"type": "uint256"
				},
				{
					"internalType": "uint256",
					"name": "streen",
					"type": "uint256"
				},
				{
					"internalType": "uint256",
					"name": "zipcode",
					"type": "uint256"
				},
				{
					"internalType": "uint256",
					"name": "building",
					"type": "uint256"
				}
			],
			"stateMutability": "view",
			"type": "function"
		}
	]
}